:020000041000EA
:1000000000B5324B212058609868022188439860DF
:10001000D860186158612E4B002199600221596106
:100020000121F02299502B49196001219960352056
:1000300000F044F80222904214D00621196600F024
:1000400034F8196E01211966002018661A6600F04E
:100050002CF8196E196E196E052000F02FF8012189
:100060000842F9D1002199601B49196000215960AB
:100070001A491B48016001219960EB211966A021F2
:10008000196600F012F800219960164914480160C1
:100090000121996001BC002800D000471248134993
:1000A000086003C880F30888084703B5996A0420EC
:1000B0000142FBD001200142F8D103BD02B5186610
:1000C0001866FFF7F2FF186E186E02BD00000240BE
:1000D000000000180000070000035F00212200005C
:1000E000F4000018222000A00001001008ED00E03C
:1000F00000000000000000000000000074B24E7A12
:1001000000200420F7010010C3010010C5010010F9
:10011000C1010010C1010010C1010010C101001097
:10012000C1010010C1010010C1010010C701001081
:10013000C1010010C1010010C9010010CB01001065
:10014000CD010010CD010010CD010010CD01001037
:10015000CD010010CD010010CD010010CD01001027
:10016000CD010010CD010010CD010010CD01001017
:10017000CD010010CD010010CD010010CD01001007
:10018000CD010010CD010010CD010010CD010010F7
:10019000CD010010CD010010CD010010CD010010E7
:1001A000CD010010CD010010CD010010CD010010D7
:1001B000CD010010CD010010CD010010CD010010C7
:1001C00000BE00BE00BE00BE00BE00BEEFF3058054
:1001D000103800BEF2EB88713C310110683101101B
:1001E0003402001090A31AE700201F49086006C8D7
:1001F00081F3088810471D48006800282FD10DA4FE
:100200000ECC002902D000F012F8F9E71849194A7B
:10021000002000E001C19142FCD1174988471749ED
:1002200088471749884700BEFDE701C901C29A42C5
:10023000FBD3704768310110C0000020401500203A
:10024000E84501100000042000000420E8450110EA
:10025000001004200010042000000000704709482E
:100260000AF09CFC0047000008ED00E0000000D010
:10027000601500201030002025990010B9040010EE
:10028000E19800105756000006005250ABB360537F
:10029000C827011006005250861C0302D8270110FF
:1002A000060052505422A29DE8270110050052502A
:1002B000DE65F468E8450110F8B5C04610B5064C97
:1002C0002378002B07D1054B002B02D0044800E017
:1002D00000BF0123237010BD101800200000000093
:1002E00098010110044B10B5002B03D003490448BA
:1002F00000E000BF10BDC046000000001418002040
:10030000980101107047704710B5002000F074FC90
:10031000012000F071FC022000F06EFC032000F0D0
:100320006BFC132000F068FC152000F065FC122027
:1003300000F062FC142000F05FFC1C2000F05CFC6C
:100340001D2000F059FC042000F056FC052000F0B0
:1003500053FC10BDF0B5D6464F464646C0B5D02238
:100360001206546801231C4061424C4101210C409B
:10037000240105781026B146B5432C430470546817
:1003800064081C4065426C410C40640107782025DC
:10039000AA46AF433C4304705468A4081C4067421B
:1003A0007C410C40A40107782035AF433C430470E6
:1003B0005468E4081C4067427C41E40105787F27CB
:1003C0002F403C4304705468A40C1C4067427C419D
:1003D0000C40A40005780427BD432C4304705468E6
:1003E000240D1C4025006C426C410C40E400057853
:1003F000AC460825A84665464646B5432C430470DE
:100400005468640D1C4025006C426C410C40640033
:100410000578AC460225A84665464646B5432C43BA
:1004200004705468E40C1C4025006C426C410C4084
:1004300005789D432C430470546824091C40250012
:100440006C426C410C4045789D432C434470546889
:1004500064091C4025006C426C410C40A4004578A6
:10046000BD432C4344705468640F1C4067427C4178
:100470000C40240147784D46AF433C4344705268DA
:10048000120F13405A4253410B405B01E2B25146F6
:100490008A4313434370E0BCBA46B146A846F0BD58
:1004A00080231B01036043608360C360704710B505
:1004B00000F070F810BD000010B584B00CF050FAD8
:1004C000642008F01BFB11480CF00EFAFFF71CFF2C
:1004D00001AC0C22002120000CF0CAF82000FFF72C
:1004E00039FF63789B0609D4094B1B886A46138041
:1004F000684600F093FA002004B010BD05480AF0E9
:100500004DFB0300002108009847C04698010110E8
:10051000AC01011055420000194B1B68194A1268C2
:1005200093421BDA0A33164A1360154B1B68002BE3
:1005300022D1FF33144A126853401B041B0C134A88
:1005400013600F4B1B68002B18DB1B040E4A12684C
:1005500053401B0C1B040D4A136070470A3B084AAA
:1005600013600B4A1268934201DC054B1A60044B7E
:100570001A68044B1A60D8E70023DBE70023E4E79E
:100580009C200020982000205C0005405C10054065
:10059000A420002010B5FA21044A490101F07DFB96
:1005A000002800D110BDFFF7B7FFFBE7642C002047
:1005B00070B5174B1E68002E28D04468C568291CEA
:1005C000201C0BF0A1FE002800D0251CFE2189056F
:1005D000281C0BF099FE002801D0FE25AD050D4921
:1005E000281C0BF042FE0BF0EDFE84B20021281C0B
:1005F0000BF08AFE002801D0A419A4B2064B1C609F
:10060000064B1B689C4201DD044B1C6070BDC0465C
:10061000A020002000004842A420002098200020B4
:1006200010B584B0134B01221A700F3200216846B6
:100630000CF01EF8FE239B05019303936846FFF719
:10064000B7FF002407E0FFF767FF09F0BBF80820B9
:1006500008F054FA01343D2CF5DD00230193039397
:10066000044B00221A706846FFF7A2FFFFF754FF01
:1006700004B010BD0B300020F0B5C64600B582B006
:10068000192007F0F3F8182007F0F0F8D0231B0624
:10069000802292045A62802252045A620421192054
:1006A00007F0B2F80421182007F0AEF8304F04220A
:1006B0003A60304B98461A602F4AFF25156615663A
:1006C0002E4C2268120C12042D4802601A68910008
:1006D00089188A002B4B9C4662441668FF21090446
:1006E0007140090C090480267601324311603A6892
:1006F000910089188A00204B9C46624417680121AA
:100700000B00BB433243136043461B689A00D21868
:10071000930063441A6891431E43316023686B4021
:100720001B041B0C036023681B0C1B040360962036
:10073000002108F0B7F96B46DC1D991D200000F080
:10074000E1F82378104A13601A1CCD2B00D9CD2272
:1007500032320E490A70002B02D10B4A13600B7023
:10076000AF20400008F0CAF902B080BCB846F0BD26
:10077000D42C002090270020000005405C0005409C
:100780005C1005400C000540A0200020EF2F002049
:10079000F0B5C64600B504000A282DD00B282FD08E
:1007A000092803D0002080BCB846F0BD0B270A23DF
:1007B0009846200007F05AF801263300A340D025C0
:1007C0002D06AB6200220121200007F035F84046DB
:1007D00007F04CF83300424693406B62AB6138003F
:1007E00007F044F83300BB406B62AB616B68E340D9
:1007F0001E4209D00120D6E70B2709239846D8E7E7
:1008000009270A239846D4E70020CCE710B5092031
:10081000FFF7BEFF10BD10B50B20FFF7B9FF10BDED
:1008200010B50A20FFF7B4FF10BD30B583B001AC9E
:100830002378102293432370DAB27F23134023706E
:10084000DBB2402293432370FFF7EAFF01252840E3
:10085000830020780422904318432070FFF7D6FFCE
:1008600003002B4020780122904318432070FFF7AB
:10087000D2FF28404000257802239D432843207062
:10088000C3B2082213432370DBB2202293432370A8
:100890006378012213436370FFF7C2FE208803B020
:1008A00030BD704710B5041C03480460416082608D
:1008B000C360FFF77DFE10BD642D002010B512E06F
:1008C0000C4B9A6A0C4B1A600C480FF0D5FB00F0E9
:1008D000C1FA094C206804F011FC206802F0A6FE61
:1008E0002068FFF7E4FD064904480FF0EDFB0028FF
:1008F000E6D1ECE700400540B81D002000150020BF
:100900009C210020044B2A22FF329A5C02702C2288
:10091000FF329B5C0B707047601600207047000030
:10092000014B0020185670478811002010B5002098
:10093000FFF7E9FC0020FFF7E5FC00220021002082
:1009400008F092FF10BD000010B5284B1B78002B5B
:100950002CD0274927480FF0B7FB00282ED1264876
:10096000FFF7F8FC254B1B78002B2FD103F064F91F
:10097000234C2068204904F04DFC206801F008F960
:1009800006F034F9002825D01D4C20681D4903F0DD
:1009900023FB206800221C4906F054F91B4B1B78EE
:1009A0005BB2012B1DD008F00DFF10BD00211848CF
:1009B00008F04EFF0D4B01221A70CAE7154B9A6AD8
:1009C0000F4B1A600B480FF057FBC8E70A48FFF7B8
:1009D000A5FFCBE70A4B18680B4A0F4900F01CFB38
:1009E000DCE7074B186801F00BF9DCE7FC2F00206F
:1009F000982100200015002078180020D22F002018
:100A0000B81D002040180020601800208811002028
:100A10004C1D0000004005409018002070B582B0C9
:100A2000051E00D1C7E001F033F90400FFF76CFCAC
:100A30006248FFF78FFC00F061FA002833D05F4E68
:100A40005F4B01935F4B009333005F4A5F496048FF
:100A500004F060F9B378DB062BD4FFF70DFE01F04C
:100A6000F3FFE3B2012B2AD0022B2DD001242C5707
:100A7000631C30D00022AA56564B1A704F4B1B787D
:100A80009A062CD45A063CD4DA063CD45AB2002A30
:100A90003BDB5A073BD40A221A40022A39D01B07F3
:100AA0001ED503241CE000F0E3F8C82008F026F867
:100AB000C5E70622002148480BF0DAFDCDE7454B9B
:100AC00002221A700024D9E723041B0F414A137035
:100AD0002405240FD2E7414B02241C57CAE7062401
:100AE0003E4ABA235B00D65C3A4B1B785BB20133BB
:100AF00011D06425E3B2062B40D8A300384AD3585E
:100B00009F460124ECE70024EAE70224E8E70524F5
:100B1000E6E70424E4E701F097F8002804D12D4B20
:100B200002221A704625E5E7642001F071F8294B8E
:100B300001221A706425DDE72A48322100F09EFF69
:100B40002900300000F0ACFF224B00215956200054
:100B500000F072FA194B9B789B0727D4194A174962
:100B6000200002F011FF0CF015FA1F480CF000FAFB
:100B7000FFF7EAFEFCE7FF200006DEE71B48DCE7A4
:100B8000FF200002D9E7134B00221A70FF20000457
:100B90001925D2E70F4B00221A7015480F25CCE714
:100BA0000C4B00221A7013481925C6E70B4B9C709A
:100BB00000F09EF9D2E702B070BDC0467818002060
:100BC0008418002090180020401800206018002091
:100BD00050180020881100208C170020601600207B
:100BE000B001011000F115FFBD08001000A1A1A186
:100BF00000FF61000000FFE610B5040006F036FEBD
:100C000000220121200006F017FE0123A340D0227C
:100C10001206936210BD000010B512480BF094FE4E
:100C2000002407E0104B5B18D97810480BF08CFEBD
:100C30000134E4B2052C0DD80CF080FC2100C0B2C8
:100C4000094A1219D070002CECD1130001229043F4
:100C5000D870E7E7044B9B221A720A200BF010FEB3
:100C600010BDC046CC01011060160020DC0101104F
:100C7000F0B5DE4657464E464546E0B5EDB0D425C4
:100C80006D002A00002102A80BF0F2FC634B02AABF
:100C90001380059B0193DB0FDB07802212011343B6
:100CA0000593069B0193DB0FDB0713430693079B1A
:100CB0000193DB0FDB0713430793089B0193DB0FC3
:100CC000DB071A430892564F0A97564E0B96564C1E
:100CD0000C9456480D9056490E91564A0F92564B19
:100CE00010931297139614941590169117921893C7
:100CF000524B19931A931B931C931D931E931F938E
:100D000020932193802202A98B5004328B5004320D
:100D10008B5004328B5004328B5004328B5004328F
:100D20008B50FF231B049946A8230A004946D15043
:100D3000434B9B46AC235946D150424B9846B02377
:100D40004146D150FF273F060433D750FF263602D5
:100D50000433D65004333C4A02A9CA503B4B9A464E
:100D6000C0230A005146D15004334946D1500433C0
:100D7000D7500433D65004334146D1500433D650B3
:100D8000A23B2A22FF3202A98B5401328B54C63A6D
:100D9000C921490002A84252023143520231425253
:100DA0003532FF3201008352294C2A0020000BF01B
:100DB00065FC002002F0AEFD012002F0ABFD032037
:100DC00002F0A8FD042002F0A5FD052002F0A2FD1E
:100DD00020009C30062200210BF04AFC2000A230AB
:100DE000062200210BF044FCFFF716FFBC235B003A
:100DF0004A46E25004335A46E25004334246E25037
:100E00000433E7500433E65004335246E2506DB0E9
:100E1000F0BCBB46B246A946A046F0BD01A0FFFF0C
:100E2000000034420000B442000007430000344395
:100E3000000061430000874300809D43000016448A
:100E40000000FF4D0000FFE600F115FF00FF61000C
:100E50006016002070B51D4CA5441D4B1B78002B5F
:100E600003D180235B019D4470BD0CF0ABF8EFF320
:100E7000108672B600230093164A002101A80BF0D9
:100E8000F7FBD4225200144968460BF0F7FB80258B
:100E90006D01124C290020000FF01EF92A0069464E
:100EA00020000FF0F9F886F310880CF095F80C4B41
:100EB0001B78002B03D1064B00221A70D1E705F0F6
:100EC00029FF074B00221A70F5E7C04600F0FFFF2C
:100ED000F32F0020FC0F00006016002000D012004D
:100EE000FD2F0020014B01221A707047FD2F0020BA
:100EF000014B01221A707047F32F002010B5154CDA
:100F0000D4225200144920000BF0B8FB2288134B66
:100F10009A4214D10F4A95235B00D35C1A1C312BE3
:100F200000D832220B4B952149005A54DA782A39DD
:100F3000FF398A43DA709B221A72012010BD0848DB
:100F40000BF0D2FCFFF794FE0020FFF7D1FF00204A
:100F5000F4E7C0466016002000D0121001A0000087
:100F6000E401011010B5031C642800D9642303496F
:100F70002A22FF328B54FFF77FFB10BD6016002042
:100F800010B5022817D008D800280DD001280FD19D
:100F90000B4ACA235B00D1520AE0032808D1084A51
:100FA000CC235B00D15203E0054AC9235B00D15238
:100FB00003F042FB10BD024ACB235B00D152F7E79E
:100FC0006016002030B50F4C40004508E068C00FA7
:100FD000C0072843E060490048082169C90FC907D4
:100FE00001432161520051086269D20FD2070A43BE
:100FF00062615B005A08A369DB0FDB071343A3613F
:1010000030BDC04660160020062800DD0020014BE0
:10101000987070476016002010B5034B1B68002BBA
:1010200000D0984710BDC0469C1B0020014B0020FB
:1010300018567047DE2F002010B588B00400234BEF
:1010400018700C22002105A80BF012FB10220021C1
:1010500001A80BF00DFBE3B2062B03D8A4001C4B38
:101060001B599F461B4B1C4A1A60002000F0C0FE13
:1010700008B010BD174B184A1A60062000F0B8FEE1
:10108000F6E7144B144A1A60012000F0B1FEEFE7B6
:10109000104B114A1A60022000F0AAFEE8E70D4B3F
:1010A0000E4A1A6001AA05A90020FFF7B5FFDFE785
:1010B000084B0B4A1A6001AA05A90020FFF7ACFFF4
:1010C000D6E7044B074A1A60D2E7C046DE2F00205D
:1010D0003C0201109C1B00209D1E0010355B00107F
:1010E00075630010C1680010F0B5C64600B590B039
:1010F00004000D0016001F0016AB1B789846494BE4
:10110000984200D188E00721380006F07DFB0123DA
:1011100000933A00290020000CF0FCFA1022002174
:1011200008A80BF0A5FA80235B020893F8235B0262
:1011300009938023DB020A93C0231B030A93102226
:1011400008A904A80BF09AFAF31C059A03923649F1
:101150001140F20111431B0319430591079B0393AF
:10116000DB00DB0880229205134307932F4B1940C5
:101170000591102204A90CA80BF080FA0F9B039391
:101180002B4A1A40BF0217430F974346002B45D006
:1011900020220E9B03932749194080239B020B4377
:1011A0005206F82189050A4013430E939B009B08C1
:1011B0008022D20513430E93052008F065FA1E49DC
:1011C00009F040FD0BF0A5F880460BF0FBF887B264
:1011D000002F25D038000BF09CF8011C40460BF086
:1011E00024F88721C9050BF040F80BF0EBF8C0B2EA
:1011F00000023F0407430C970CAB3200290020008B
:101200000CF0DAFA22680123AB409A4313432360BF
:1012100010B080BCB846F0BD062175E71822B8E7CB
:101220000020E5E7000020507F00FEFFFFFFFF9F4A
:10123000FF83FFFFFFFFF5C10050C300014B0122F8
:101240001A707047EC2F002070B5174B1B78002BDD
:1012500028D1164B00221A70134B01321A70002449
:101260000A2C1FD80CF06AF9062109F0EBFC104B90
:1012700019550134E4B2F3E70D4D2B5D5E339B004D
:101280000C4A9958A2000C4BD1500CF057F906218A
:1012900009F0D8FC29550134E4B20A2CECD9FFF747
:1012A000CDFF70BD0024F8E7EB2F0020D82F0020E1
:1012B000B41B0020601600203C200020034B198046
:1012C000034B1860034B00221A707047C62F002092
:1012D000D81F0020E92F002070B505000C00008801
:1012E0000BF017F81B490AF0AAFF1B490AF0BDFFD3
:1012F0000BF068F8C2B22B79A978C943C9B2594337
:10130000090A5B1ADBB23F2528402D1AEDB258437B
:1013100080096B439B11DBB20818C0B2CB18DBB25B
:101320003F2A10D9403AD2B23F2A06D81A060B06F5
:101330001B0A0002134318430AE0090600041B02BB
:101340000843184304E000061B040902184308433D
:10135000206070BD00007F4300003F43F8B5CE46DB
:10136000474680B50400234B1D78002D05D100238E
:101370000360C0BCB946B046F8BD642DF9D087788B
:10138000E678B81963789846C0180AF0C7FF1A497A
:101390000AF055FF814628000AF0BBFF17490AF002
:1013A0004EFF051C011C48460AF09EFF0028E0D1B4
:1013B0004946281C0AF043FF051C38000AF0A9FF23
:1013C000291C0AF052FF0AF0FDFFA07030000AF05D
:1013D000A0FF291C0AF049FF0AF0F4FFE070404624
:1013E0000AF097FF291C0AF040FF0AF0EBFF60703B
:1013F000BFE7C046AA11002000007F430000C8429A
:10140000F0B5D6464F464646C0B504000368002BEB
:1014100035D083789846C778D819667880190AF04D
:101420007DFF051C40460AF074FF8046291C0AF027
:1014300006FF824638000AF06CFF071C291C0AF0E0
:10144000FEFE814630000AF064FF061C291C0AF0EB
:10145000F6FE051C514640460AF007FF0AF0B2FFAF
:10146000A0704946381C0AF000FF0AF0ABFFE0709C
:10147000291C301C0AF0F9FE0AF0A4FF6070E0BCE1
:10148000BA46B146A846F0BD30B585B01D4B1B78B5
:10149000002B0FD100240A2C09D80CF04FF8FF21A3
:1014A00009F0D0FB184B19550134E4B2F3E7154BA2
:1014B00001221A7000241FE0134D2B5D134A10788F
:1014C000C018FF2109F096FBC9B2295502A8018076
:1014D000FF23438083800023019301A9FFF7FCFED3
:1014E00001A8FFF73BFF0A48A300019A1A50C01851
:1014F000FFF786FF0134E4B20A2CDDD9FFF79EFE28
:1015000005B030BDEB2F0020A81F0020AB1100203C
:101510003C20002000220AE0930006495958064B5F
:101520005B68DB03FBD4044B19610132D2B20A2A97
:10153000F2D97047DC1F002000002050F8B5DE46CD
:1015400057464E464546E0B506000D00141C80780F
:101550000AF0DFFE8046F0780AF0DBFE071C7078A8
:101560000AF0D7FE061CA8780AF0D3FE8346E87876
:101570000AF0CFFE824668780AF0CBFE81464146EB
:1015800058460AF052FE211C0AF06FFE41460AF04E
:1015900051FE051C391C50460AF047FE211C0AF07A
:1015A00064FE391C0AF046FE071C311C48460AF04E
:1015B0003CFE211C0AF059FE311C0AF03BFE061CC1
:1015C000281C0AF0FFFEC5B2381C0AF0FBFEC4B2AC
:1015D000301C0AF0F7FEC0B22D0400022406284396
:1015E0002043F0BCBB46B246A946A046F8BD000069
:1015F000F8B52D4B1D8828000AF090FE011CFE2036
:1016000080050AF01CFE041C284B1B78002B11D00F
:101610002749284B0A0043CB43C243CB43C243CBA9
:1016200043C203CB03C20023234A13701F4A137023
:10163000224A1370204B1E78B54204D21F4B1878F3
:1016400000281ED0F8BD30000AF063FE211C0AF00D
:101650000CFE051C00240BE0A7001949C919144809
:10166000C0192A1CFFF76AFF124BD8510134E4B2AB
:101670000A2CF1D90136104B1E70FFF74BFF0020EA
:10168000E0E70C490E4B0A0013CB13C213CB13C275
:1016900013CB13C203CB03C2FFF73CFF074B01225E
:1016A0001A700120CEE7C046C42F0020EC2F002086
:1016B00010200020DC1F0020AD110020AC11002004
:1016C0003C200020F0B5C64600B506000F0015000E
:1016D000984600240AE0335D9B004246EA50305DA4
:1016E00080002818FFF78CFE0134E4B2BC42F2D32C
:1016F00080BCB846F0BD0000031C642800D96423F8
:10170000014A13707047C046AA11002030B583B05B
:10171000050000240CE0019501A8FFF71FFE064814
:10172000A300019A1A50C018FFF76AFE0134E4B210
:101730000A2CF0D903B030BD3C20002010B5094878
:101740000388094A12789B18FF2213400380074C34
:101750002100FFF7C1FD2068FFF7D8FFFFF76EFDFE
:1017600010BDC046A4110020AB110020A41F002012
:1017700010B50D4B1B78002B05D10C4B00221A70B5
:10178000094B01321A70094C23785E339B00084ADA
:101790009858FFF7BBFF20780130062109F02AFA9C
:1017A0002170FFF74BFD10BDEB2F0020D82F00203C
:1017B0006016002010B50F4B1B78002B10D10E4B7C
:1017C0001B68002B02D10C4B0C4A1A600A4B18689C
:1017D000FFF79CFFFFF732FD064B01221A7010BD88
:1017E0000020FFF793FFFFF729FD024B00221A703C
:1017F000F5E7C04605300020082000200000FFE685
:1018000070B51D4B1C78002C05D01C4B1B78002B91
:101810001ED0200070BD1A491A480B00020023CACE
:1018200023C323CA23C323CA23C303CA03C3164B38
:101830001868FFF76BFFFFF701FD144B1A88144B74
:101840001A800D4B01221A700C4B00221A70E0E72F
:1018500010490B480B00020013CA13C313CA13C369
:1018600013CA13C303CA03C3FFF7E8FC034A137880
:10187000013313700024CCE7E92F00200930002049
:10188000382D0020DC1F00200C200020C62F002057
:10189000C42F00203C20002070B504000D000A2851
:1018A00003D883001F49CB589F4601241E4E1BE0DE
:1018B00004241E4E18E001241D4E15E001241D4E87
:1018C00012E001241C4E0FE001241C4E0CE0012408
:1018D0001B4E09E001241B4E06E001241A4E03E0D2
:1018E00001241A4E00E01A4E002A12D02B00194A89
:1018F00021003000FFF7E6FE2B00174A21003000E0
:10190000FFF7E0FE2B00154A21003000FFF7DAFE5A
:1019100070BD2B00104A21003000FFF7D3FEFFF707
:101920008DFCF5E758020110D4020110C00201102D
:10193000CC020110BC020110C4020110D00201103F
:10194000DC020110D8020110B4020110B80201102B
:10195000C8020110102000203C200020DC1F0020C5
:1019600070B50C4B19682C220B480AF087FE002436
:101970000CE0A300084DED182800FFF7EFFC2968E4
:1019800000222000FFF788FF0134E4B20A2CF0D9CE
:1019900070BDC046682000206C20002010B5024BAE
:1019A0001860FFF7DDFF10BD6820002010B5074B61
:1019B0001B78002B00D010BD0548FFF7EFFFFFF7A5
:1019C0003DFC024B01221A70F5E7C046EB2F0020C8
:1019D00008170020234AC8235B00D35C834209D048
:1019E000002B03D19133FF330521D1541D4AC82365
:1019F0005B00D0541B4AC8235B00D25C1A4B1A70A0
:101A00001A4B1978052903D88B001949CB589F46E2
:101A1000184B15221A80174B1A88174B1A807047DB
:101A2000144B15221A80F6E7124B15221A80F2E7A2
:101A3000104B15221A80EEE79300D218FA2A00D92B
:101A4000FA22FF231A409A1A0A4B1A80E3E79300FE
:101A5000D218FA2A00D9FA22FF231A409A1A054B03
:101A60001A80D8E760160020AB110020EA2F002072
:101A700084020110C82F0020C42F002010B5054B90
:101A800018604908044C2000FFF718FC034B1C6049
:101A900010BDC0460C20002001180010D81F0020E7
:101AA00070B582B004000D00254B1B78002B0CD0C4
:101AB000244B1C700023244A1370244A1370052CF5
:101AC00016D8A400224B1B599F46224E22493000B3
:101AD0000BF004FE0200002300930F3300213000BE
:101AE000FFF702FB164B01221A70FFF713FDDFE729
:101AF0001A4B1B4A1A601B4AC8235B00D05CFFF7D5
:101B000069FF002D15DA02B070BD144B164A1A6039
:101B1000F1E7124B154A1A60EDE7104B144A1A60B0
:101B2000E9E70E4B134A1A60E5E70C4B124A1A60BC
:101B3000E1E7FF2D00DDFF25E8B2FFF7DDFDE2E77D
:101B4000ED2F0020EA2F0020EB2F0020EE2F0020A9
:101B50009C02011000002050E0020110D41F002060
:101B6000AD190010601600203D17001089140010F8
:101B7000B5170010711700104912001010B5034B73
:101B8000186064210520FFF78BFF10BD082000209E
:101B900010B5144A144900F080F8002800D110BD97
:101BA000FFF726FD002803D1104B1B78002BF6D041
:101BB0000F4B1B68002B0ED098470028EFD0002455
:101BC0000B4B1C600B4AC8235B00D05CFFF702FF85
:101BD000094B1C70E3E7094B1B68002BDFD09847CB
:101BE000DDE7C0466C2C00201A410000EE2F0020DB
:101BF000D81F002060160020EB2F0020D41F0020EB
:101C0000704710B50020FEF77EFBFEF78FFE10BD7B
:101C100000B583B023280AD8C0B20538C0B27F23EC
:101C2000184001AB04221A70587003B000BDAF23F6
:101C30005B00984200D9180028380A2108F0DAFF22
:101C4000C0B21F30C0B2EAE710B502480AF04CFE3D
:101C5000012010BDF0020110072804D88000024BBB
:101C60009C466044016070470C80054010B5072811
:101C700002D90024200010BD8000044B9C46604423
:101C8000046800210520FFF7E7FFF3E70C8005401B
:101C900010B50520FFF7EAFF10BD106053688342BE
:101CA00005D9C31A013B8B4205D2002070478342FD
:101CB00004D2C31AF7E750600120F7E70020F5E7E8
:101CC00030B51860002A0BD15C6884420BD9041B24
:101CD000013C0025002D0BD1A14209D9100030BDD7
:101CE00058600020FBE7844205D2041B0025F1E781
:101CF00058600120F3E71000F1E7000010B5FFF78E
:101D000095F9022801D0024810BD0248FCE7C04600
:101D1000280301101804011010B500200DF042F93D
:101D200010BD000010B5102106480EF0DDF90028A6
:101D300000D110BD044B01221A7002480EF09CF92C
:101D4000F7E7C04608150020FA2F002010B5102133
:101D500006480EF0C9F9002800D110BD044B00223E
:101D60001A7002480EF088F9F7E7C04608150020FF
:101D7000FA2F002070B5050010210D480EF0B4F9BF
:101D8000041E09D10B4B22000B492800FFF798FFD6
:101D9000051E08D1200070BD084B1C78E4B2044831
:101DA0000EF06AF9EEE7FFF7BDFF2C00F2E7C04640
:101DB00008150020742D0020A0860100FA2F0020B5
:101DC000037801330370044B1B785BB2022B01D004
:101DD000024870470248FCE76C1200205C050110C5
:101DE00094060110014B18607047C046C8210020BE
:101DF00010B50400002001F013FC022C2BD0062C9F
:101E00001CD0012C10D0012001F00AFC1748FFF76C
:101E1000E9FF174B174A1A60174B184A1A60184BFC
:101E20001C700DF0CBFC10BD0120FFF7DBFF104B49
:101E3000144A1A60104B144A1A60F0E7012001F0AE
:101E4000EFFB1248FFF7CEFF094B114A1A600A4B0D
:101E50000A4A1A60E3E70120FFF7C4FF044B0D4A6A
:101E60001A60054B0C4A1A60D9E7C046141E0000E0
:101E7000C4210020516A0010CC210020191D00103F
:101E80006C120020B1740010F5240010DC05000075
:101E900035760010F95200108129001070B5040049
:101EA0000D0016000120002140420CF0EFFB200045
:101EB000FFF760FF002809D1154B1B78002B04D1D8
:101EC000144B1B689847124B187070BD124B196861
:101ED000124A2000FFF7E1FE0028F6D0FFF736FF98
:101EE0000B4B1B78002BF0D00D4B1B6831002800EA
:101EF000984701246442002120000CF0C7FB002118
:101F000020000CF0C3FB002120000CF0BFFBDCE73D
:101F1000FB2F0020CC210020C8210020742C0020A1
:101F2000C4210020084B1B785BB2022B07D0062B84
:101F300007D0012B01D0054870470548FCE705484C
:101F4000FAE70548F8E7C0466C120020000D0110C2
:101F5000A40501108006011078150110084B1B78AC
:101F60005BB2022B07D0062B07D0012B01D005480E
:101F700070470548FCE70548FAE70548F8E7C0461A
:101F80006C120020C00C01107405011054060110E1
:101F90004C1501100020704710B5134B1B785BB235
:101FA000022B13D0062B18D0002B05D00B78002B5A
:101FB0000FD1FFF7B7FE0CE00B78302B03D0212BAD
:101FC00001D0812B05D1FFF7ADFE02E00B78212B6C
:101FD00000D010BDFFF7A6FEFBE70B78012BF8D170
:101FE000FFF7A0FEF5E7C0466C12002070B504AC08
:101FF00025882E4C247864B2012C2DD0022C12D0CE
:10200000002C00D070BD0029FCD1002AFAD118782C
:10201000102804D02A00190001F052F8F2E7981CA9
:1020200000F0D6FDEEE70029ECD1002AEAD11A78BB
:10203000112A05D0132AE5D11D480AF085FCE1E7F5
:102040005B78002B06D01B490B1C1B4A1B48FEF774
:1020500029FCD7E70021F7E70029D3D1002AD1D105
:102060001A78002ACED15A78082ACBD1DA78002AF9
:1020700002D11979002911D01B79101C9A4200D283
:10208000181CC0B20AF045F90D490AF0D8F8011C35
:10209000031C094A0948FEF705FCB3E70020031CAE
:1020A000021C011CFEF7FEFBACE7C0466C120020D0
:1020B000DC0401106666263F000020420000F0426A
:1020C00000007F43064B1B785BB2022B03D0062B2C
:1020D00003D1044870470448FCE70448FAE7C046C7
:1020E0006C1200208C150110E8050110140D011070
:1020F00070B5EE2824D0002825D080001E4BC5588E
:1021000028000DF081FFC0B21F2800D91F20002336
:1021100027E05A1C194CA15C0902E25C0A43440006
:102120001749625202330130112BF2D9154A144B70
:1021300013CB13C211001A680A609B888B8019E0C8
:1021400000200023F0E70C4B196802220E480AF029
:1021500095FA012007E05A1CEC5C5100094BCC5267
:10216000D3B29842F7D801304000C0239B001843F7
:10217000044B1880034870BD901100202005011009
:102180002C180020C81B0020CA1B002000B591B0ED
:102190004022694600200DF093F900200DF0A6F9C9
:1021A000064B1B785BB2002B01D011B000BD044878
:1021B0000AF09AFB684604F0D1FDF6E76C120020A5
:1021C000F4040110F0B583B005001400012966D1B4
:1021D00013785B069B0F012B58D0022B03D0002BEA
:1021E00001D000205CE06378022B24D0072B03D0C1
:1021F000012B19D0002053E0227963791B0213438D
:10220000042B03D0052B08D0002049E02433264AB4
:10221000210028000CF05EFB42E08D33234A2100B0
:1022200028000CF057FB3BE02723214A210028001F
:102230000CF050FB34E0227963791B021343072B27
:1022400030D11C4B1B785BB2022B0FD06B469F1D0D
:10225000194E0222310038000AF010FA3B88320091
:10226000083A210028000CF035FB19E06B469F1D51
:10227000124E0222310038000AF000FA3B88320088
:10228000083A210028000CF025FB09E051780C48A1
:102290000AF05AFB210028000CF000FB00E00120AE
:1022A00003B0F0BD0020FBE744120020B011002075
:1022B000340501106C1200206C030110440401105D
:1022C0000C050110012815D0022907D000290BD1D7
:1022D000022A29D0002A29D006207047022A1FD0BE
:1022E000002A1FD00800F8E7022A21D0002A21D0B6
:1022F0000820F2E7022907D000290BD1022A1FD0BB
:10230000002A1FD00720E8E7022A15D0002A15D09E
:102310000320E2E7022AE0D0002A15D00020DCE703
:102320000120DAE70320D8E70720D6E70520D4E725
:102330000020D2E70420D0E71000CEE70420CCE74D
:102340000820CAE70620C8E70520C6E70120704735
:1023500010B58422002102480AF08AF910BDC04657
:10236000EC25002010B50020FFF7F2FF10BD0000A3
:10237000F0B5C64600B580460D008B795D2B24D1A3
:102380000B79DF00FF1ABFB21937BFB2974221D8CD
:102390000C780C19002605E0104A53700136F6B28D
:1023A0002378E4182B79B34210D96378052BF7D141
:1023B000210040460BF098FE00280DD0A378DA09E2
:1023C000012AE9D0054A9370E8E70027380080BC6D
:1023D000B846F0BD0027F9E70027F7E7EC25002015
:1023E00030B583B0040014484078884206D0124AC1
:1023F00092788A420CD0012003B030BD0F4A002AE7
:1024000018D09AB20E490020FFF7C6FD0120F3E76D
:102410000C4D9BB200932B00002200210020FFF7FF
:10242000E5FD2B00443B997840232A0020000BF067
:10243000CFFEE1E70120DFE7EC250020991F001027
:10244000F02500203026002010B50BF0B1FD00284B
:1024500003D10023002B08D110BD0BF0B1FD0028E3
:1024600001D10123F6E70023F4E70B4B9978002014
:102470000BF0EAFE0028EFD1074CA1780BF080FEAC
:1024800022004432A178402300200BF0A1FEA17865
:1024900000200BF089FEDFE7EC25002070B5050079
:1024A0000C000BF08DFD002806D1812100200BF0DF
:1024B00067FE002803D170BD0BF08AFDF5E7231CF1
:1024C000402C00D940239CB2094E22002900300044
:1024D0000AF0D4F8351F69782300320000200BF091
:1024E00077FE697800200BF05FFEFFF7ADFFE2E7B3
:1024F000F025002010B5104B5C780BF059FD00283A
:1025000006D10023002B13D0002C09D1002010E0AD
:102510000BF056FD002801D10123F3E70023F1E77A
:10252000210000200BF090FE002803D1013000E0D4
:10253000002010BD0020FCE7EC25002010B53C2257
:10254000002102480AF094F810BDC046641C002027
:1025500010B50020FFF7F2FF10BD0000F0B583B00A
:1025600006000F001500FEF761FD02284CD13B79F3
:10257000DC00E41AA4B21234A4B2AC4248D800235E
:10258000002B09D00025002D44D0397879184B78DC
:10259000212B11D0002438E01A01D21A92001F48D2
:1025A00082185278002A02D00133DBB2E8E71A0120
:1025B000D11A89004518E6E7A9630B78C9183A795A
:1025C0006B1C0193AB1C0093032330000BF0A6FDA2
:1025D000002821D0BB79012B13D001232B71BB78AC
:1025E0002B70AA6BD179137A1B020B43EB80A9786D
:1025F00000290AD02A003032062330000BF0E8FD13
:1026000003E0FB79EB70E8E70024200003B0F0BDA5
:102610000024FAE70024F8E70024F6E7641C002011
:1026200070B582B005001D4C002000280AD000289B
:1026300030D162788A4213D0A2788A421AD001201F
:1026400002B070BD0401241AA400144A1419A2781F
:102650008A42ECD062788A42E9D00130C0B2E4E725
:102660000F4A002A18D0210008319AB2FFF794FCD3
:102670000120E5E7260030369BB2009333000022AC
:102680000021FFF7B3FCA1780623320028000BF0ED
:102690009FFDD5E70020D3E70120D1E7641C00208F
:1026A000991F0010F0B5C64600B582B006001500AF
:1026B00012781F231340012B00D01FE1287900243A
:1026C000002C0DD0FF24002C00D01CE1270060233B
:1026D00018001040134239D101290BD001200EE11E
:1026E00023011B1B9B008E4FDB5D9842EBD0013416
:1026F000E4B2E5E7EA786B78062B06D0062B00D02B
:1027000005E1222A12D00020F9E0212AF6D1230186
:102710001F1BBF00824BDF19BA6B002A00D1F4E007
:102720001378290030000CF0D5F8E8E02000FFF71E
:10273000C9FC02003B01DF1BBF00794BDF19FB889E
:10274000290030000CF0C6F80120D8E0202800D085
:10275000DFE06B780B2B00D9DDE09B00714AD3588A
:102760009F46012901D00120C9E0EA78A978230118
:102770001B1B9B0008336A4FFF18A879EB791B02DB
:102780000343181C252B00D9252080B2002909D02D
:10279000012B16D97B1C9C463970013880B201236D
:1027A000984602E0BC46002398460090634620000D
:1027B000FFF7F0FB030043449BB2002B05D1002040
:1027C0009DE0BC4600239846EFE73A002900300020
:1027D0000CF080F8012092E0012903D0032915D0E4
:1027E00001208CE0AA79EB791B021343062B01D957
:1027F000002084E02201121B9200303248498A18DE
:10280000290030000CF066F8012078E0EA78A97819
:1028100023011B1B9B0030334148C318AE79E87974
:1028200000023043051C062800D90625ADB2002958
:1028300004D0012802D91878884205D000952000DC
:10284000FFF7D4FB01205AE00133013DADB2F5E7BB
:10285000012901D0012052E0E97823011F1BBF00AC
:102860002F4BDF197971304B002B04D0200000E092
:1028700000BF002843D0290030000CF00FF80120E1
:102880003DE0012901D0012039E02201171BBF00E2
:10289000234AD21905320123290030000CF01AF81E
:1028A00001202CE0012901D0012028E02201171B82
:1028B000BF001B4AD21904320123290030000CF05A
:1028C00009F801201BE0012903D0032907D00120CA
:1028D00015E0290030000BF0E1FF01200FE0A9789E
:1028E00023011F1BBF000E4BDF1939710F4B002B4B
:1028F00013D0200000E000BF012000E0002002B063
:1029000080BCB846F0BD0020F9E70020F7E70020C2
:10291000F5E70020F3E70020F1E70120EFE7C046EC
:10292000641C0020B8050110000000000000000039
:1029300010B50301181A8000104B181844780BF0DA
:1029400037FB002806D10023002B13D0002C09D11F
:10295000002010E00BF034FB002801D10123F3E745
:102960000023F1E7210000200BF06EFC002803D1CA
:10297000013000E0002010BD0020FCE7641C0020B6
:1029800010B50020FFF7D4FF10BD0000F8B504001B
:102990000F0016001D0003011B1A9B001F4AD318CD
:1029A000597800200BF0ECFB002825D0002F24D014
:1029B0002B1C242D00D924239DB2184A2301191B56
:1029C000890051180F721B1B9B000833D01801306F
:1029D0002A00310009F052FE0135ADB20F4B200143
:1029E000021B920008329A18001B800018184178C8
:1029F0002B0000200BF0ECFBF8BD2B1C252D00D983
:102A000025239DB22001001B80000830034B1818BD
:102A10002A00310009F032FEE0E7C046641C0020C5
:102A200010B513000A0001000020FFF7AFFF10BD32
:102A3000107003120F20184050700B011843507093
:102A4000091191707047000070B5124D8024240167
:102A50002A0021002000FFF7EBFFEA1C21002000E4
:102A6000FFF7E6FFAA1D21002000FFF7E1FF2A0083
:102A7000093221002000FFF7DBFF2A000C32210081
:102A80002000FFF7D5FF2A000F3221002000FFF7BA
:102A9000CFFF70BD982F002010B5402200210248C2
:102AA00009F0E6FD10BDC04608210020014B18705A
:102AB0007047C046F62F0020014B18737047C04680
:102AC00008210020014B58737047C04608210020A0
:102AD000074A0021535E107806490870023399B204
:102AE0001BB21380FF2B01DDFF3911807047C046F8
:102AF000CC2F002008210020024B1A78024B5A707C
:102B00007047C046D007011008210020054B032262
:102B10009A734821D9731A74013A5A74473919764D
:102B20005A7670470821002010B5C4B2000A00236D
:102B300007E019000E31044A545401315054023355
:102B4000DBB20D2BF5D910BD0821002010B5030014
:102B50007F2800D97F2080B2002B08D009F0D9FB54
:102B6000044909F082FB044909F064FB10BD0248E6
:102B7000FCE7C046BA6693400000204210B503004F
:102B80007F2800D97F2080B2002B08D009F0C1FB3C
:102B9000044909F06AFB044909F04CFB10BD0248E6
:102BA000FCE7C046C56613410000A04210B5030013
:102BB0007F2800D97F2080B2002B05D009F0A9FB27
:102BC000024909F03CFB10BD0020FCE70000FE427A
:102BD000F8B5CE46474680B5C278930909D0012B97
:102BE00049D0022B43D142781202037813439B054C
:102BF0003DD00478E3075AD5630899464378DA0054
:102C00007821114088468278D200082515405B095A
:102C10001D43ED002F4E002700244378DB0601D52D
:102C20000023984683789B0700D500250021381C97
:102C300009F04CFB002803D04846FFF79FFF071C14
:102C40000021301C09F042FB002803D02000FFF7D0
:102C50007DFF061C4046FFF7A9FF041C2800FFF774
:102C6000A5FF031C321C211C381CFDF71BFEC0BC39
:102C7000B946B046F8BD81780C024678330023434C
:102C80001B05F4D003789807F1D17F240C40520043
:102C90007E252A40CD091543F101FF220A409B08F9
:102CA0001A439146730898460026371CBEE764080D
:102CB0004378DA007821114088468278D2000825CE
:102CC00015405B091D43ED000026034F0023994684
:102CD000A3E7C046000020430000A0430A4B0122A6
:102CE0001A7000225A7003329A70084A117AD97009
:102CF000D179197191795971517999711179D97184
:102D0000D2781A727047C046082100206016002051
:102D100010B50400FFF7C0FE8120FFF7C7FE012CAD
:102D200009D0064B1C70064B19784023034A00203B
:102D30000CF060F910BDFFF7D1FFF4E70821002087
:102D4000F62F002070B586B06C462A4B0433220063
:102D500070CB70C270CB70C2022837D0032841D02C
:102D60000023002500E00133052B10D8224AD21899
:102D70002D32FF3214780522D21A885C8442F2D0B8
:102D80001D4AD2182D32FF3210700125EBE7002DBD
:102D900019D18120FFF790FE184801238373164B49
:102DA0001A7AC273DA7902749A7942745A798274FF
:102DB0001A79C274DB78037515301822694609F058
:102DC0005DFC06B070BDFEF793F8E2E78120FFF7E7
:102DD00073FE0A48022383730F301022084909F05A
:102DE0004DFCEEE78120FFF767FE044B03229A7348
:102DF000E7E7C046D0070110601600200821002038
:102E00008821002070B504000E001500FFF744FE75
:102E10002120FFF74BFEFFF75BFEFFF76DFE200062
:102E2000FFF750FE482C48D8A4002E4B1B599F4654
:102E30008020FFF741FE00234BE0F07A431E9841CB
:102E4000C0B200F0EDFB8020FFF736FEF3E7310063
:102E50000C31F07AFFF776FFEDE78020FFF72CFECC
:102E6000F27A214B1A70E6E78220FFF725FEFFF782
:102E70004DFEE0E78020FFF71FFEDCE79020FFF724
:102E80001BFEF27BF17A307B00F0FCF9D3E7FEF712
:102E9000B8FED0E78020FFF70FFECCE78320FFF7D6
:102EA0000BFE6420FFF740FEC5E78020FFF704FE1D
:102EB000C1E78020FFF700FEBDE70023AB4202D24E
:102EC00001339BB2FAE78020FFF7F6FDB3E7013349
:102ED000DBB21F2BFBD94023044A212100200CF038
:102EE00089F870BDAC060110701200200821002086
:102EF00070B50C00150010280DD080280FD00128C7
:102F000000D070BD881CFFF763FEA07A2A00210064
:102F1000FFF778FFF5E7881CFFF75AFEF1E74878DE
:102F2000FFF7F6FEEDE70000094B1B780A2B07D0F0
:102F30000B2B09D0064B0A221A70054B18787047E4
:102F4000034B0B221A70F8E7014B0C221A70F4E7BE
:102F50007112002070B50500524B1B78002B04D174
:102F6000514B1B78302B0BD070BD504B1A88504BF7
:102F700018785049FFF7BCFF4A4B00221A70F3E75C
:102F8000FFF78AFD3020FFF791FDFFF7A1FDFFF766
:102F9000B3FD00F0EBF98378474C2373C378637378
:102FA0000378A3734378E3730379237443796374D9
:102FB000037AA374437AE37483792375C3796375C1
:102FC000837AA375C37AE37500F0D0F9837823760A
:102FD000C37863760378A3764378E376037923771F
:102FE00043796377037AA377437AE377827920235F
:102FF000E254C2790133E254827A0133E254C27A54
:103000000133E25400F0B2F982782423E254C2780A
:103010000133E25402780133E25442780133E2543E
:1030200002790133E25442790133E254027A0133E6
:10303000E254427A0133E25482790133E254C27994
:103040000133E254827A0133E254C27A0133E2540A
:103050002B78A3706B78E370AB782371EB78637196
:103060002B790F210B40A3716879AB791B020343C5
:103070001B11E371EB7923722B7A19406172697A23
:10308000AB7A1B020B431B11A372FFF74DFFE072DB
:103090000A4B19784023220000200BF0ABFF01F00F
:1030A00003FE61E7F72F0020701200206E1200204F
:1030B000F82F00204821002008210020F62F0020B2
:1030C00010B5054B01241C70044B1870044B1A807A
:1030D000044809F0D3FA10BDF72F0020F82F002084
:1030E0006E1200204821002010B5024B181809F07C
:1030F000C5FA10BD08210020502800D1B0E003D946
:1031000060282FD0FF2010E0402800D9AAE0202816
:1031100005D34B2924D88B00564AD3589F46002804
:1031200003D0102800D09FE0002070479520FCE7D6
:103130000020FAE72A39504B59182D31FF31087811
:10314000F3E704394C4B59182D31FF310878ECE77F
:103150000020EAE70020E8E76820E6E70020E4E74F
:103160000020E2E7A92979D88B00444AD3589F462A
:10317000FF20DAE70220D8E70120D6E72320D4E7B2
:103180000020D2E7B920D0E71A20CEE70120CCE713
:103190000020CAE74020C8E70020C6E74020C4E777
:1031A0000020C2E74020C0E70120BEE70020BCE7C6
:1031B0000120BAE70020B8E70120B6E70020B4E715
:1031C0003B20B2E73420B0E73B20AEE73420ACE749
:1031D0003B20AAE73420A8E73D39294B585CA4E7F7
:1031E0003D39274B585CA0E71A209EE71A209CE740
:1031F0001A209AE75E2098E7012096E7502094E78E
:10320000FD2092E7002090E700208EE7C6208CE7A3
:103210000F208AE70F2088E7302086E7612084E7C7
:10322000AE2082E7902080E7D9207EE7D4207CE79B
:1032300014207AE7542078E7412076E7152074E7D8
:10324000542072E7C72070E779206EE79C206CE776
:1032500033206AE7362068E7632066E7002064E7EA
:10326000002062E7FF2060E7FF205EE722205CE7A6
:1032700003205AE7EC070110601600201C0901101A
:10328000982F0020F0B58BB006000F00150008A99C
:103290000F70487000248C70CC700A7105220E20CB
:1032A000FFF722FF00941A22002101A809F0E0F99B
:1032B00007E03919C9B23000FFF71EFF6B461855F9
:1032C0000134A542F5DC2A0069461320FFF70CFF04
:1032D0000BB0F0BDF8B50400204921480CF0F4FE15
:1032E0000028F9D01F4D2B68581C032107F082FCE1
:1032F0002778627812021C4E4800401883005B1841
:103300003A43F254120AF3185A70A078E278120283
:1033100002439A70120ADA7020796279120202432B
:103320001A71120A5A71A079E279120202439A7153
:10333000120ADA71207A627A120202431A72120AAF
:103340005A72A07AE27A120202439A72120ADA726E
:10335000296003480CF090FEF8BDC0461C1E0020FA
:1033600010150020181E0020F01D002010B509497E
:1033700009480CF0A9FE0028F9D0084B1C68064843
:103380000CF07AFE6000001980000019044B181838
:1033900010BDC046201E002010150020181E002061
:1033A000F01D00204118CB0F5B185B1080225202E9
:1033B000914204DA044A914203DB18B27047034891
:1033C000FCE70348FAE7C046FFFFFEFFFF7F00006F
:1033D0000080FFFF70B52848FEF7D0FB274D06227E
:1033E0000021280009F044F9A81D0622002109F057
:1033F0003FF9234B01221A70224BFA2292011A60E4
:10340000214B00221A70214E214C31002000FDF783
:1034100048FA0023E25E9C3D9C23EA540223E25ECC
:103420009D23EA540423E25E9E23EA540623E25ECF
:103430009F23EA540823E25EA023EA540A23E25EB3
:10344000A123EA540023F25EA223EA540223F25E8F
:10345000A323EA540423F25EA423EA540623F25E73
:10346000A523EA540823F25EA623EA540A23F25E57
:10347000A723EA5470BDC0460000FFFFFC160020E1
:10348000E02F0020EC1D0020E12F0020DC1D00209B
:10349000BC1D002010B5084ABA235B00D05C012196
:1034A0004942FEF7FDFAFDF71DFDFDF721FD034B37
:1034B00000221A7010BDC04660160020E02F0020C8
:1034C000F8B552495248FDF7ECF9524B1B78002BE6
:1034D00000D160E0504C9C254D4E0023F15E6057BA
:1034E000FFF760FF605501350223F15E6057FFF77B
:1034F00059FF605501350423F15E6057FFF752FF15
:10350000605501350623F15E6057FFF74BFF6055AC
:1035100001350823F15E6057FFF744FF6055013520
:103520000A23F15E6057FFF73DFF6055A227374D34
:103530000023E95EE057FFF735FFE055013702232E
:10354000E95EE057FFF72EFFE05501370423E95EFF
:10355000E057FFF727FFE05501370623E95EE05704
:10356000FFF720FFE05501370823E95EE057FFF73A
:1035700019FFE05501370A23E95EE057FFF712FF14
:10358000E055002333732B73244A1368013B136007
:10359000002B37D0F8BD1E4A0023D05E1E4B9C2165
:1035A00058540221505E9D2158540421505E9E21A2
:1035B00058540621505E9F2158540821505EA02186
:1035C00058540A21515EA1229954104A0021505E9C
:1035D000A22158540221505EA32158540421505E68
:1035E000A42158540621505EA52158540821505E4C
:1035F000A62158540A21515EA7229954054BA63A98
:103600001A70C7E7FFF746FFC4E7C046DC1D00207D
:10361000BC1D0020E12F002060160020EC1D0020C2
:10362000014B18707047C046E22F0020F8B5474B99
:103630001B78002B04D1464B1B78002B03D1F8BD1F
:10364000FFF73EFFFBE7FA21424A8900FEF725FB20
:103650000028F4D0404C21004048FDF722F9237B9C
:10366000002B03D03D4B1B7B002B09D13B4B1B7B1D
:10367000002B67D10023394A1373374A1373DEE7EF
:10368000364F3888364C9C23E3569BB2C01A324ED4
:103690003188A223E3569BB2C91A09B200B2FFF7E0
:1036A00081FE304D288078889D23E3569BB2C01A56
:1036B0007188A323E3569BB2C91A09B200B2FFF77F
:1036C00071FE6880B8889E23E3569BB2C01AB18809
:1036D000A423E3569BB2C91A09B200B2FFF762FEF7
:1036E000A880F8889F23E3569BB2C01AF188A523CF
:1036F000E3569BB2C91A09B200B2FFF753FEE88045
:103700003889A023E3569BB2C01A3189A623E35619
:103710009BB2C91A09B200B2FFF744FE288178892A
:10372000A123E3569BB2C01A7189A723E3569BB22B
:10373000C91A09B200B2FFF735FE68812800FFF709
:10374000C9FD97E70548FFF7C5FD93E7E02F002087
:10375000E22F00207C2C0020DC1D0020BC1D00205E
:1037600060160020CC1D002004281ED00CDC01288F
:1037700016D000280FDD0238C0B201280BD80D4B3F
:103780000B60083313600AE0052804D10A4B0B6074
:103790000833136003E0094B0B6008331360704774
:1037A000074B0B6008331360F9E7064B0B600833D7
:1037B0001360F4E75817002078170020381700200E
:1037C000481700206817002030B50F220D780F230E
:1037D0001D40047894432C4304704C781C40250110
:1037E00004781C402C4304708D781D404478944329
:1037F0002C434470CC781C40250144781C402C4359
:1038000044700D791D40847894432C4384704C7926
:103810001C40250184781C402C4384708D791D4008
:10382000C47894432C43C470CC791C402501C478DF
:103830001C402C43C4700D7A1D40047994432C43E2
:1038400004714C7A1C40250104791C402C430471FE
:103850008D7A1D40447994432C434471CC7A1C40AA
:10386000250144791C402C4344710D7B1D40847913
:1038700094432C4384714C7B1C40250184791C406B
:103880002C4384718D7B1D40C479944322002A43CC
:10389000C271CA7B1A401201C1790B401343C37134
:1038A00030BD0B781B071B0F03700B781B0943708F
:1038B0004B781B071B0F83704B781B09C3708B78E9
:1038C0001B071B0F03718B781B094371CB781B07F8
:1038D0001B0F8371CB781B09C3710B791B071B0F5F
:1038E00003720B791B0943724B791B071B0F837201
:1038F0004B791B09C3728B791B071B0F03738B79E1
:103900001B094373CB791B071B0F8373CB791B09EF
:10391000C373704770B50400144D154A2900FFF7B2
:1039200023FF2B68134A1168526819605A60042CEF
:1039300012D0052C15D0032C09D00D4B1B6800228A
:103940001A800A4B19680C48FFF7ABFF70BD084B93
:103950001B680A4A1A80F4E7054B1B68084A1A805C
:10396000EFE7034B1B68074A1A80EAE7D01F0020E5
:10397000C0210020080C0110B41F002000E1FFFF4F
:1039800000C0FFFF00CAFFFF10B50E4B19600E4BC1
:103990001A600E4B18700E4C0E4A2100FFF7E4FE21
:1039A00021680D4C2000FFF77CFFE37A0B3B5A1E89
:1039B00093410A4A1370637A093B5A1E9341084A9D
:1039C000137010BDFC18002000190020E82F002003
:1039D000D01F0020C0210020B41F0020E72F0020AE
:1039E000E32F0020024A94235B00D0547047C04666
:1039F0006016002010B5044B00221A70034B1968A2
:103A00000348FFF74EFF10BDD42F0020D01F002029
:103A1000B41F002070B590B00500384C384E22001D
:103A20003100FFF7A1FE31683648FFF73AFFFFF794
:103A3000E1FF002300933C22002101A808F018FEBA
:103A4000A6236A461370557033681A781207120F4E
:103A500069468A701A781209CA705A781207120FCA
:103A60000A715A7812094A719A781207120F8A71EC
:103A70009A781209CA71DA781207120F0A72DA7884
:103A800012094A721A791207120F8A721A791209E8
:103A9000CA725A791207120F0A735A7912094A73B5
:103AA0009A791207120F8A739A791209CA73DA790E
:103AB0001207120F0A74DB791B094B7422681388F2
:103AC0001B0A8B741388CB740F4B942252009A5CA0
:103AD0000A75952252009B5C4B75FA20000103F099
:103AE00091F8002801D110B070BD00200BF02EFD20
:103AF0004022694600200BF00BFDF4E7B4210020C2
:103B0000B0210020A02100206016002070B50A001E
:103B100000210F2937D803000B41DB0714D40131F2
:103B2000C9B2F6E70133DBB20F2B0FD82A4AD05CBB
:103B30002A4A12789042F5D1294A14680120984007
:103B4000228802432280EDE70023EDE7224C234840
:103B500003786354224B1D6801228A402B889343CB
:103B60002B8002781F4808F0EFFE1F4B00221A70CE
:103B70001E4B18682100FFF727FE1D4B002018562A
:103B8000FFF748FF70BD002AFCD0002401E001349B
:103B9000E4B20F2C14D8104B1A5D104B1B789A42CC
:103BA000F5D12100134808F0CFFE0D4B1968012212
:103BB000A2400B8813430B800B4B00221A70E6E7E0
:103BC0000A4B18680449FFF7FFFD094B00201856FF
:103BD000FFF720FFD6E7C046A0210020D32F00200A
:103BE000B4210020C40B0110D42F0020B0210020EC
:103BF000F92F0020E00B011070B504000D00084EF5
:103C0000084A3100FFF7B0FD31680748FFF749FE69
:103C1000064B1C70064B1D70064B01221A7070BDBE
:103C2000B0210020B4210020A0210020F92F002085
:103C3000D32F0020D42F002070B5D04B00221A8043
:103C40009A70CF4B1B78002B13D0CE4B1A68937809
:103C50009B07D90F002B03DA9378022083439370DC
:103C6000C84B1B681A78587800021043FFF74EFFC4
:103C700070BD01F03BFB002826D0C24B19688A7842
:103C80000124A2438A7019688A78022082438A70CC
:103C900019684A781025AA434A7019684A7810357D
:103CA000AA434A7019680A78A2430A7019680A7808
:103CB00082430A7019680A78023082430A701A68CF
:103CC000137808218B431370AC4B00229B5EAE4AE5
:103CD00012685178C90600D527E1AA4909684978D0
:103CE000C906C90FA948007B814009B20B43A3490B
:103CF0000B805178890600D519E1A24909684978F5
:103D00008906C90FA148407B814009B20B439B4CF7
:103D100023809C49096888788007C00F4000A578F7
:103D20000226B5432843A0708878C007C50FA07845
:103D3000013EB0432843A0701078C00700D5F8E0DA
:103D40000878C007C00F914C2478A04000B203430C
:103D50008A4803801078800700D5ECE00878800757
:103D6000C00F8A4C6478A04000B2034383480380AC
:103D70001078400700D5E0E008784007C00F834C7A
:103D8000A478A04000B203437C4803801078000769
:103D900000D5D4E008780007C00F7C4CE478A04040
:103DA00000B20343754803801078C00600D5C8E010
:103DB0000878C006C00F754C2479A04000B20343B8
:103DC0006E4803801078800600D5BCE00878800635
:103DD000C00F6E4C6479A04000B203436748038073
:103DE0001078400600D5B0E008784006C00F674C58
:103DF000A479A04000B20343604803801078C00952
:103E000000D0A4E00878C009604CE479A04000B27A
:103E100003435A4803805078C00700D599E048789A
:103E2000C007C00F594C247AA04000B20343534846
:103E300003805078400700D58DE048784007C00FD8
:103E4000524CA47AA04000B203434C4803805078FF
:103E5000800700D581E048788007C00F4B4C647A1A
:103E6000A04000B2034398B2444C2080800576D530
:103E70004748424DEC1CE870050A65700025A570A6
:103E8000000EE070507880076BD448788007C00F30
:103E90003E4C647AA04000B2034338480380507817
:103EA000000760D448780007C00F384CE47AA0407F
:103EB00000B2034398B2314C2080000555D53448F8
:103EC0002E4DEC1DE871050A65700025A570000EE9
:103ED000E070507800074AD448780007C00F2B4C98
:103EE000E47AA04000B2034324480380507840069F
:103EF0003FD448784006C00F244CA47BA04000B2B9
:103F000003431E4803805278D20934D14A78D2093B
:103F10001E49C97B8A4012B2184913430B801D4BBE
:103F200018680C2208F0AAFBA2E60021DEE60021B8
:103F3000ECE600200BE7002017E7002023E7002035
:103F40002FE700203BE7002047E7002053E7002051
:103F50005EE700206AE7002076E7002082E7002085
:103F600087E7002098E70020A3E70020A8E70020CB
:103F7000B9E70020C4E70022CEE7C046C41F0020F6
:103F8000D42F0020FC180020C0210020B41F0020E6
:103F9000FF0F00000019002080231B0113605360F5
:103FA0009360D3607047000010B50011084A137881
:103FB000991C084C60540133DBB213703D2B01D8BF
:103FC000002010BD130000221A700120F9E7C0463E
:103FD000DF2F0020B820002010B50C00FA213D4A48
:103FE0008900FDF75AFE00281DD03B4B1B78002BA3
:103FF00012D13A4B1B78002B60D123680B3BFF3B5F
:10400000374A93422BD9374B1C60344B01221A702C
:10401000354B00221A7006E0324B1B681868FFF718
:10402000C3FF002800D110BD304BA5221A702E4AC4
:1040300012785A70FA20000102F0E4FD002805D140
:104040000023254A1370254A1370ECE740222749C4
:1040500000200BF05DFA00200BF078FAF0E76368BF
:104060000B3BFF3B1E4A934208D904341D4B1C6096
:1040700001231A4A13701C4A1370D4E7A3680B3B40
:10408000FF3B174A934209D90834164B1C60134B67
:1040900001221A70144B01321A70C4E7E3680B3B1B
:1040A000FF3B0F4A9342BED90C340E4B1C600B4BA6
:1040B00001221A700C4B02321A70B4E7094B1B68CC
:1040C0001B680B3BFF3B064A9342ACD8024B0122D4
:1040D0001A70A8E7AC2C0020D62F0020DD2F00207E
:1040E000EB0D00008C2E0020F42F0020B8200020C3
:1040F00070B5041C0D000B78002B0AD0CE68011C93
:10410000301C08F0F9F8002804D06868211C08F079
:10411000ACF870BD311C201C08F087F8A96808F0C5
:10412000A4F8024908F086F8F3E7C0460000B4415D
:1041300070B508F07AF84000400808F04BF9040028
:104140000D0002000B000020054906F0C2FF02002E
:104150000B00200029000BF0DFFF07F0AFF870BD67
:104160000080764070B5061C0C1C151C111C201C10
:1041700008F0BAF800280FD0311C201C08F0B4F861
:10418000002807D0311C281C08F0B6F8002802D0FF
:10419000012000E0002070BD311C201C08F0A4F8B4
:1041A000002807D1311C281C08F0A6F8002803D0ED
:1041B0000120F0E70120EEE70020ECE7F8B5071C4E
:1041C0000E000024002503E0002206E00134E4B2E2
:1041D000072C0DD8062CF7D8621CA3009200B25809
:1041E000F158381CFFF7BEFF0028EFD02500EDE79F
:1041F0002800F8BD10B508F0EDF80022104B07F0CC
:104200009BF907F05BF8041C002108F067F8002810
:104210000FD1201C08F0DEF800220A4B06F06BFFDD
:1042200007F010F8C217520F801807231840801AA1
:1042300010BD0549201C07F0FDFF041CE9E7C0463E
:1042400000807640008046400000B44310B507F07F
:10425000F1FF041C0B4908F057F8002806D0094963
:10426000201C07F0E2FF041C201C10BD0021201CB4
:1042700008F034F80028F7D00249201C07F0DAFFD4
:10428000041CF1E70000B44370B5CD1A801A08F0A1
:1042900045F8041C280008F041F8211C08F0B6F885
:1042A000114907F0E2FF08F095F8104A104B06F0AC
:1042B00022FF07F003F8041C002108F00FF8002883
:1042C0000BD10C49201C08F017F800280AD0094926
:1042D000201C07F0AAFF041C04E00649201C07F07C
:1042E000A9FF041C201C70BD00003443182D445449
:1042F000FB2109400000B443F8B50C0017001E0074
:1043000008F00CF8051C380008F008F8011C281CFF
:1043100007F08BFF051C200008F000F8041C30009B
:1043200007F0FCFF011C201C07F07FFF041C291C68
:10433000281C07F09AFF051C211C201C07F095FF84
:10434000011C281C07F076FF08F04EF8F8BD0000AD
:10435000F8B50F00160008F03DF80B4A0B4B06F0BD
:10436000E8FE06F0ABFF08F035F804000D0006F09B
:10437000BBFF06F0A3FF38602000290006F0CAFF4B
:1043800006F09CFF3060F8BD399D52A246DF913F98
:10439000F0B5DE4657464E464546E0B583B080460A
:1043A0008B4615001F001100FFF708FF04000628C8
:1043B0005CDC461CA3009946EB589A46B600A95906
:1043C000181CFFF7B5FE051C51464046FFF7B0FE2E
:1043D0008046291C07F033FF051C4B46FB589A46C4
:1043E000011CFE20800507F020FF011C504607F04D
:1043F0003CFF8246B859291C07F037FF011C504684
:1044000007F018FF051C0C9B4A469858414607F0D8
:104410002CFF031C22010D9989180D98825C002A3B
:1044200003D0181CFFF764FE031CA400304AA058F8
:10443000191CFFF70BFF0026019600966A4601A99A
:10444000FFF786FF5946281C07F00FFF041C311C9C
:1044500007F044FF00280BD18A21C905201C07F072
:1044600053FF002805D08A24E40502E00026A1E7D6
:1044700000240199201C07F0F8FE051C0190211C66
:10448000009807F0F2FE00908A21C905281C07F069
:10449000D1FE08F043F807F063FF002823DB8023F8
:1044A0005B01984200DB134807F038FF0E9B186051
:1044B0008A21C905009807F0BDFE08F02FF807F023
:1044C0004FFF002811DB80235B01984200DB094885
:1044D00007F024FF0F9B186003B0F0BCBB46B24648
:1044E000A946A046F0BD0020E0E70020F2E7C04664
:1044F000100C0110FF0F0000F8B507000E0000249B
:1045000009E0A500795975198A20C00507F097FEC2
:1045100028600134E4B2072CF3D9F8BDF8B50500E2
:104520000E0000240DE00023A7009B00E958E85985
:10453000FFF7FEFD011C064807F081FEF051013433
:10454000E4B2072C03D8062CEDD8631CECE7F8BDC9
:1045500000003442F0B5C64600B580460F00002486
:1045600019E02601BE19012333702868164907F0A7
:1045700061FE051CF060011C134807F060FE7060CE
:10458000291C124807F051FE011C0F4807F057FE86
:10459000B0600134E4B2072C12D8A50045440021D4
:1045A000286807F093FE0028DBD02301FB180022C7
:1045B0001A70054ADA60FE2292055A609A60E8E7AE
:1045C00080BCB846F0BDC0460000B4410000344293
:1045D0000A4AD3685B005B1009490B6053695B00B2
:1045E0005B1008490B6013695B005B1006490B60A8
:1045F00093695B005B10054A1360704760160020EA
:10460000F820002000210020FC20002004210020B0
:1046100010B5054B1B68054A12680549096805482D
:104620000068FCF7CFFC10BD042100200021002011
:10463000FC200020F820002010B5104C104920006C
:10464000FFF76CFF200020300E49FFF767FF2000C6
:1046500040300D49FFF750FF200060300B49FFF755
:104660004BFF20001930FF300949FFF773FF20008E
:104670003930FF300749FFF76DFF10BD7C16002071
:1046800074120020B412002094120020D4120020D2
:10469000641E0020241F002010B50E4B00221A803B
:1046A0000D4C20320021200007F0E2FF20002030D6
:1046B0002022002107F0DCFF2000403820220021CA
:1046C00007F0D6FF200020382022002107F0D0FF7D
:1046D00010BDC046CA2F0020BC160020F0B5DE4633
:1046E00057464E464546E0B583B004005F4B9B46B7
:1046F0005F4B9A465B461B685246126841680068E9
:10470000FFF7C2FD071C5B4B99465B4D1B682A688F
:10471000E168A068FFF7B8FD80460190574E311C54
:104720000097381CFFF792FD071C311C4046FFF72D
:104730008DFD061C381CFFF75DFD0700301CFFF7E0
:1047400059FD06005B461B68524612686168206886
:10475000FFF7D2FD82464B461B682A68E168A068D5
:10476000FFF7CAFD8046009807F034FE0022444B54
:1047700006F0E2FE06F0A2FD041CFE21890507F00A
:10478000ADFD002805D13F49201C07F0BDFD0028E4
:1047900022D03A00163292003B4B9B185868514683
:1047A00007F09CFD002817D03849504607F0ACFDB3
:1047B000002811D0344A3B0016339B00D3185146D1
:1047C0005960BB1D9B00D218009B53600122BA4068
:1047D0002F490B8813430B80019807F0FBFD002243
:1047E000274B06F0A9FE06F069FD041CFE21890591
:1047F00007F074FD002805D12249201C07F084FD34
:10480000002824D032001E3292001F4B9B1858689B
:10481000414607F063FD002819D01C49404607F0C7
:1048200073FD002813D0184A33001E339B00D318A1
:104830004146596033000E339B00D218019B5360F0
:1048400008360122B24012490B8813430B80104BEB
:104850001888104B9C46604443425841C0B203B094
:10486000F0BCBB46B246A946A046F0BDFC200020E5
:10487000F820002004210020002100200000B44185
:104880000080464000003042601600200000FA42DE
:10489000CA2F00200100FFFF064B02681A60064B7A
:1048A00042681A60054B82681A60C268044B1A603D
:1048B0007047C046F8200020FC2000200021002086
:1048C00004210020F0B5DE4600B584B0040000915C
:1048D0000192224B9B46224F1B683A684168006850
:1048E000FFF7D2FC02901F4E1F4D33682A68E16823
:1048F000A068FFF7C9FC03905B461B683A686168D3
:104900002068FFF7F9FC071C33682A68E168A06893
:10491000FFF7F2FC041C1549381C07F0F5FC0028D1
:1049200009D11249201C07F0EFFC00280CD104B07B
:1049300080BCBB46F0BD0298FFF75CFC0023009AE8
:104940001370019B1870F2E70398FFF753FC0123E3
:10495000009A1370019B1870E9E7C046FC20002004
:10496000F820002004210020002100200000FA424D
:10497000F0B5DE4657464E464546E0B585B00400E4
:1049800000910192294B9A46294D1B682A6841687B
:104990000068FFF779FC8146264E274F33683A6856
:1049A000E168A068FFF770FC8046244B9B46191C09
:1049B0004846FFF74BFC029059464046FFF746FC3D
:1049C000039053461B682A6861682068FFF794FCCF
:1049D000051C33683A68E168A068FFF78DFC041C89
:1049E0001749281C07F090FC00280CD11449201C02
:1049F00007F08AFC00280FD105B0F0BCBB46B246D8
:104A0000A946A046F0BD0298FFF7F4FB0023009AE8
:104A10001370019B1870EFE70398FFF7EBFB01237E
:104A2000009A1370019B1870E6E7C046FC20002036
:104A3000F820002004210020002100200000B441C3
:104A40000000FA42F0B5DE4657464E464546E0B510
:104A500085B00400334B9A46334D1B682A68416881
:104A60000068FFF711FC81460190304E304F3368EB
:104A70003A68E168A068FFF707FC80462D4B9B462B
:104A8000191C4846FFF7E2FB029059464046FFF7E3
:104A9000DDFB039053461B682A6861682068FFF7B6
:104AA0002BFC814633683A68E168A068FFF724FC74
:104AB000041C2149484607F027FC00280DD11E4957
:104AC000201C07F021FC002819D1002005B0F0BC03
:104AD000BB46B246A946A046F0BD0298FFF78AFB46
:104AE000164A831D9B00D318019959601630800027
:104AF00010184B464360FFF79FFD0120E6E703983F
:104B0000FFF778FB0D4A03000E339B00D318414694
:104B100059601E30800010184460FFF78DFD0120A1
:104B2000D4E7C046FC200020F8200020042100200B
:104B3000002100200000B4410000FA42601600206D
:104B4000F0B5DE4657464E464546E0B589B004000E
:104B50000D00484B9B46484B99465B461B684A46AE
:104B6000126841680068FFF78FFB8046434E444F50
:104B700033683A68E168A068FFF786FB82465B46C7
:104B80001B684A46126861682068FFF7B5FB8146DA
:104B900033683A68E168A068FFF7AEFB071C0023A2
:104BA0000793069305930493364C06AB039307AB28
:104BB0000293354B0193354B0093354B2200494608
:104BC0004046FFF7E5FB2200203204AB039305AB20
:104BD0000293304B0193304B0093304B391C5046BD
:104BE000FFF7D6FB1C3C0F23E356002B25DB079871
:104BF00007F0B6FB28602A4BDB7C5BB2002B23DB83
:104C0000069807F0ADFB6860254BDB7D5BB2002B9F
:104C100021DB059807F0A4FBA860214BDB7E5BB28B
:104C2000002B1FDB049807F09BFBE86009B0F0BC89
:104C3000BB46B246A946A046F0BD0799194807F001
:104C4000F4FA07F08DFBD5E70699164807F0EDFA60
:104C500007F086FBD7E70599124807F0E6FA07F058
:104C60007FFBD9E704990F4807F0DFFA07F078FBDC
:104C7000DBE7C046FC200020F820002004210020B3
:104C8000002100207C160020641E002074120020E9
:104C900094120020241F0020B4120020D4120020FF
:104CA0006016002000F07F450023044A1370044A78
:104CB0001370044A1370044A13707047E41E0020F6
:104CC000EC1E0020A8200020B020002010B5E1201C
:104CD0000004FCF753FFFFF7DFFC0A4C2022002101
:104CE000200007F0C5FC200020302022002107F022
:104CF000BFFC0023044A1370044A1370044B0122C2
:104D00001A7010BD94170020CE2F0020D02F002045
:104D1000CF2F002010B50E4C20600E4801600E49C8
:104D20000A600E4C23600E4B039A1A600D4B029AD8
:104D30001A60FFF74DFCFFF77FFC23685A78302399
:104D40001340302B00D010BDFFF7C0FFFBE7C0467B
:104D5000C01B0020C41B002070180020F818002081
:104D6000041900200819002010B5084B00221A7001
:104D7000FFF74EFCFFF760FC054ABA235B00D05CEE
:104D800001214942FCF78CFE10BDC046CF2F002008
:104D90006016002010B50A4B00221A70FFF738FC8D
:104DA000FCF7A6F8C82003F0A9FEFFF745FC054A6A
:104DB000BA235B00D05C01214942FCF771FE10BDB3
:104DC000CF2F00206016002010B5024B1868FFF7A7
:104DD00039FE10BDC01B002010B5124B1B78002BF4
:104DE0000CD1114B1868FFF757FD0E4B01221A70BA
:104DF0000E4B1B689B789B0711D410BD0A4B18689B
:104E0000FFF76CFC0028F3D0094B1B78002BEFD187
:104E1000074B01221A700748FCF7B0FEE8E7FFF7DE
:104E2000B9FFEAE7D02F0020C01B0020F8180020AF
:104E3000CE2F00200080008030B55368C51A802432
:104E40002401A04209D000241457002C0BD1002DBE
:104E500006DD01231370086000E00C60506030BD77
:104E600001235B42F6E7002C04DD8342F6DA08609A
:104E70005060F3E7002C01DB0860EFE78342EDDDD3
:104E800008605060EAE7000010B503000A0003491B
:104E900008681900FFF76CFD10BDC046C01B00205C
:104EA00010B503000A00034908681900FFF70AFD5E
:104EB00010BDC046C01B0020F0B5DE4657464E462A
:104EC0004546E0B585B004000D0080231B019B46DC
:104ED0001A0041680068FFF70FFA81465B465A46A0
:104EE000E168A068FFF708FA8046824EC9235B009C
:104EF000F75A5B46D81B07F011FA8246CB235B00BA
:104F0000F05A5B46181A07F009FA8346CA235B0079
:104F1000F05A80231B019C46604407F0FFF951467C
:104F200007F08DF90090CC235B00F05A80231B0121
:104F30009C46604407F0F2F9594607F080F9019069
:104F4000380007F0EBF9061C494607F0D5F90028B0
:104F50001AD080231B012B606B60664ACB235B0059
:104F6000D05A07F0DBF9071C414607F0C5F90028C5
:104F700064D080231B01AB60EB6005B0F0BCBB4686
:104F8000B246A946A046F0BD311C484607F04DF98F
:104F9000824680221201130061682068FFF774F9CD
:104FA00000260296039603AA02A9FFF7D1F95146FB
:104FB000009807F05AF9071C311C07F08FF90028F8
:104FC00009D18A21C905381C07F09EF9002803D0B1
:104FD0008A27FF0500E000270299381C07F045F9F1
:104FE000061C0290391C039807F03FF903908A21B0
:104FF000C905301C07F01EF907F090FA07F0B0F968
:10500000002805DB80235B01984202DB3A4800E080
:10501000002028608A21C905039807F00BF907F0E2
:105020007DFA07F09DF9002805DB80235B0198429B
:1050300002DB314800E0002068608EE7391C404602
:1050400007F0F3F8804680221201E168A06813009F
:10505000FFF71AF900270297039703AA02A9FFF79F
:1050600077F94146019807F000F9041C391C07F054
:1050700035F9002809D18A21C905201C07F044F917
:10508000002803D08A24E40500E000240299201CB3
:1050900007F0EBF8061C02900399201C07F0E5F8D6
:1050A000041C03908A21C905301C07F0C3F807F0DF
:1050B00035FA07F055F9031E05DB802252019042B4
:1050C00002DB0D4B00E00023AB608A21C905201CE8
:1050D00007F0B0F807F022FA07F042F9002805DBE4
:1050E00080235B01984202DB034800E00020E86077
:1050F00043E7C04660160020FF0F000070B50400B3
:10510000364AC821FCF7C9FD002800D170BD344BD8
:105110001868FBF7C5F9334B1B78002B21D0FFF73C
:105120005BFE314CA66D701C072105F063FD0D0080
:10513000700080198000201801302C4B19680C2257
:1051400007F09CFA2378002B35D1274A936D013361
:105150009365072BDAD1130001221A7000229A6599
:10516000D4E7234E1E4B18683100FFF7E9FC214DB0
:105170002A6831002000FEF70FFF1F4C286821002D
:10518000FFF79AFE1D4D1E4A29682068FFF754FE5E
:10519000296808311B4AA068FFF74EFE2B68191DCD
:1051A000194A6068FFF748FE29680C31E068174A21
:1051B000FFF742FEB5E70C4C6900491989006118F8
:1051C0000131134B18680C2207F058FAA36D581CD4
:1051D000072105F00FFDA16598E7C046842C00204B
:1051E000C01B0020CF2F00209C1800200819002091
:1051F0007C2D00207018002080260020C41B002079
:10520000E41E0020A8200020EC1E0020B02000207A
:105210000419002070B504000D00FA212B4A890101
:10522000FCF73BFD00280CD0AB780422110019409C
:105230001A420FD0264B1B78002B0BD1244B033A7C
:105240001A70244B1B78002B21D1224B1B78002B8A
:105250002BD070BD0029F4D11D4B1B78012BF0D150
:105260001D4A137801214B40DBB21370184A00210C
:105270001170002B05D0FF2018310006FCF7FEFB53
:10528000DFE7FF2010210004FCF7F8FBD9E7AA783C
:105290001207D20F114B12492000FCF711FD002814
:1052A000D3D00C4B00221A70D3E7AA78D20801237E
:1052B0005A4001231A400B4B0B492000FCF700FD1C
:1052C0000028C6D0FBF72CFBC3E7C046A42C002067
:1052D000F12F0020F4120020F22F0020BC2C00201F
:1052E000A0860100B42C0020C0C62D00014B187808
:1052F0007047C046F22F0020F8B5DE4657464E46AE
:105300004546E0B504000D00CE4B21221A70086816
:1053100007F004F8CC4906F0A8FFCC4906F08AFF54
:105320008146686806F0FAFFC74906F09EFFC74944
:1053300006F080FF8046A86806F0F0FFC24906F03C
:1053400094FFC24906F076FF071CE86806F0E6FF06
:10535000BD4906F08AFFBD4906F06CFF061C2278A5
:10536000D206D20FBA4B01218C4619786046814390
:105370000A431A7022789206D20F5200187802213E
:10538000884302431A7022785206D20F92001D7889
:10539000042085432A431A702278D209D20092460B
:1053A0001A7806318B468A4355462A431A7062782A
:1053B000D206D50F29005D78624695432A000D007C
:1053C00015435D7062789207D20FD2005D7859461E
:1053D0008D432A435A7062781207D20F92005D788B
:1053E00085432A435A7065786D07ED0F6800D2B285
:1053F00006398A4302435A700021484606F06EFF80
:1054000000280AD19349484606F07EFF002818D1AB
:10541000484606F0D7FFC0B200E000208C4B9870E1
:105420000021404606F05AFF00280CD18949404629
:1054300006F06AFF00281AD1404606F0C3FFC0B24A
:1054400002E0FF20EAE70020814BD8700021381CE1
:1054500006F044FF00280CD17E49381C06F054FFAA
:1054600000281AD1381C06F0ADFFC0B202E0FF20C0
:10547000EAE70020764B18710021301C06F02EFF61
:1054800000280CD17349301C06F03EFF002842D1A1
:10549000301C06F097FFC0B202E0FF20EAE70020D0
:1054A0006B4B587122789207D20F920119784020E5
:1054B00081430A431A702278D207110E18787F228E
:1054C00002400A431A7022785207D20F120119784B
:1054D000102081430A431A7022781207D20F52011A
:1054E0001978103081430A431A705B4A94235B0099
:1054F000D35C032B00D1E6E00FD8012B00D194E060
:10550000022B50D16278D30700D4C0E052499523D2
:105510005B00CB5CBCE0FF20C2E7042B43D1637887
:10552000DB07DB0F4A491D436D004B780222934392
:105530001D434D7063789B07DB0FDB00EAB2082048
:10554000824313434B7063781B07DB0F9B004A7841
:105550000438824313434B70E378207900021843E8
:10556000627912041043A3791B0603431B11DBB2BB
:105570008B716278920700D5FF2335488371E379F8
:10558000217A09021943627A12041143A37A1B0695
:105590000B431B11DBB2C3716278120700D5FF23E6
:1055A0002B4AD37125E063789B070CD4E3782179EB
:1055B00009021943627912041143A3791B060B43B4
:1055C0001B11DBB200E0FF23214A937163781B07B4
:1055D0000CD4E379217A09021943627A1204114347
:1055E000A37A1B060B431B11DBB200E0FF23184A12
:1055F000D3711A4B1B78002B00D0A0E0114B142262
:105600005A70103A9A72DA741A77144B033A1A7075
:1056100025220C490020FDF703FAFFF745FBF0BCFB
:10562000BB46B246A946A046F8BD6278D30704D56A
:10563000094995235B00CB5C00E0002392070FD45F
:10564000DBB20EE09427002082E2473D0000E041FB
:10565000F027002000007F4360160020D92F002093
:10566000FF233A488371E379217A09021943627A68
:1056700012041143A37A1B060B431B11DBB2C37147
:105680006278120700D5FF23304AD371B1E70023B7
:10569000120701D4DBB200E0FF232C48C371E3788A
:1056A000217909021943627912041143A3791B0677
:1056B0000B431B11DBB283716278920700D5FF2385
:1056C000224A937195E7E3782179090219436279B7
:1056D00012041143A3791B060B431B11DBB21B4AB7
:1056E00093716278920700D5FF2318488371E3799C
:1056F000217A09021943627A12041143A37A1B0624
:105700000B431B11DBB2C3716278120700D5FF2374
:105710000E4AD3716378DB0700D46AE7130012786E
:1057200001210A431A70FF229A71DA715A7808210E
:105730000A435A70D2B204210A435A7059E7044806
:1057400008220249023006F099FF61E7F0270020A5
:1057500094270020F0B5DE4657464E464546E0B554
:1057600091B006008B4690461D001A9C1022002125
:1057700008A806F07DFF80235B020893F8235B02F4
:1057800009938023DB020A93C0231B030A93102290
:1057900008A904A806F072FF42461732059B03933E
:1057A000494B03990B404146C9010B431203134374
:1057B0000593079A0392D200D2088021C9050A43B3
:1057C0000792424A13400B4305930CAB99461022B3
:1057D00004A9180006F052FF22004B4683CB83C277
:1057E0001B681360280002F041F8394B9E4266D0D6
:1057F0000721280002F008F80023009301332A0053
:105800005946300007F086FF324BE2681340EA0346
:105810001343E360304A13402B4380225203134367
:10582000E3602E4B626813402A0613436360052031
:1058300003F02AFF2A4905F005FA06F06AFD8246C0
:1058400006F0C0FD83B29946002B3AD0180006F04E
:1058500060FD011C504606F0E8FC8721C90506F0F2
:1058600004FD06F0AFFDC0B200024B461B04184316
:1058700020601C4BE2681340AD021D43E5601A4AEC
:10588000A3681A4081231B041343A360174A1340E3
:10589000174A1343A360230042465946300007F0DD
:1058A0008BFF3268012359468B409A431343336080
:1058B00011B0F0BCBB46B246A946A046F0BD0621D9
:1058C00097E70020D0E7C0467F00FEFFFFFFFF9F65
:1058D00000002050FF7FF0FFE0FF0FFCFFFFFFE024
:1058E00000093D00FF83FFFFFFFF0AFEFFFFF5C138
:1058F0000000021070B582B0104B1B6B9B0701D4E7
:1059000002B070BD0D4C022323630D4B1E6823684B
:105910000125AB43236000230093013309220021BA
:10592000200007F0F7FE074B32000021200007F0AF
:1059300043FF2368AB432B432360E1E70000305073
:10594000601C0020481C00200B4B5B68DB03FBD471
:10595000094B902212051A61074B5B68DB03FBD4ED
:10596000054B00221A61044B5B68DB03FBD4024B3E
:10597000C02292041A61704700003050254B5B68CA
:10598000DB03FBD4234B00221A61224B5B68DB0351
:10599000FBD4204B802212061A611E4B5B68DB038E
:1059A000FBD41C4B802212061A611A4B5B68DB0386
:1059B000FBD4184B802212061A61164B5B68DB037E
:1059C000FBD4144B802212061A61124B5B68DB0376
:1059D000FBD4104B802212061A610E4B5B68DB036E
:1059E000FBD40C4B00221A610A4B5B68DB03FBD42F
:1059F000084B00221A61074B5B68DB03FBD4054BA5
:105A000000221A61034B5B68DB03FBD4014B0022CD
:105A10001A6170470000305010B5254B1A781206F5
:105A2000244B5B68DB03FBD4224B1A61204B5A7872
:105A30001206204B5B68DB03FBD41E4B1A611C4B28
:105A40009A7812061B4B5B68DB03FBD4194B1A6177
:105A5000174BDA781206174B5B68DB03FBD4154B48
:105A60001A61134B1A791206124B5B68DB03FBD4E5
:105A7000104B1A610E4B5A7912060E4B5B68DB0312
:105A8000FBD40C4B1A610A4B9A791206094B5B68DE
:105A9000DB03FBD4074B1A61054BDA791206054B81
:105AA0005B68DB03FBD4034B1A61FFF7FDF810BD05
:105AB000F81200200000305070B582B00D4B1E6807
:105AC0000D4C23680125AB43236000230093013371
:105AD00009220021200007F01DFE084B32000021A2
