:020000041000EA
:1000000000B5324B212058609868022188439860DF
:10001000D860186158612E4B002199600221596106
:100020000121F02299502B49196001219960352056
:1000300000F044F80222904214D00621196600F024
:1000400034F8196E01211966002018661A6600F04E
:100050002CF8196E196E196E052000F02FF8012189
:100060000842F9D1002199601B49196000215960AB
:100070001A491B48016001219960EB211966A021F2
:10008000196600F012F800219960164914480160C1
:100090000121996001BC002800D000471248134993
:1000A000086003C880F30888084703B5996A0420EC
:1000B0000142FBD001200142F8D103BD02B5186610
:1000C0001866FFF7F2FF186E186E02BD00000240BE
:1000D000000000180000070000035F00212200005C
:1000E000F4000018222000A00001001008ED00E03C
:1000F00000000000000000000000000074B24E7A12
:1001000000200420F7010010C3010010C5010010F9
:10011000C1010010C1010010C1010010C101001097
:10012000C1010010C1010010C1010010C701001081
:10013000C1010010C1010010C9010010CB01001065
:10014000CD010010CD010010CD010010CD01001037
:10015000CD010010CD010010CD010010CD01001027
:10016000CD010010CD010010CD010010CD01001017
:10017000CD010010CD010010CD010010CD01001007
:10018000CD010010CD010010CD010010CD010010F7
:10019000CD010010CD010010CD010010CD010010E7
:1001A000CD010010CD010010CD010010CD010010D7
:1001B000CD010010CD010010CD010010CD010010C7
:1001C00000BE00BE00BE00BE00BE00BEEFF3058054
:1001D000103800BEF2EB88712C1201105812011079
:1001E0003402001090A31AE700201F49086006C8D7
:1001F00081F3088810471D48006800282FD10DA4FE
:100200000ECC002902D000F012F8F9E71849194A7B
:10021000002000E001C19142FCD1174988471749ED
:1002200088471749884700BEFDE701C901C29A42C5
:10023000FBD3704758120110C00000207814002032
:1002400010260110000004200000042010260110D8
:10025000001004200010042000000000704709482E
:1002600009F05CF80047000008ED00E0000000D055
:1002700098140020A42F0020A5800010B1040010C5
:10028000618000105756000006005250ABB3605317
:10029000B808011006005250861C0302C80801105D
:1002A000060052505422A29DD80801100500525059
:1002B000DE65F46810260110F8B5C04610B5064C8E
:1002C0002378002B07D1054B002B02D0044800E017
:1002D00000BF0123237010BDF816002000000000AD
:1002E000F8E80010044B10B5002B03D00349044874
:1002F00000E000BF10BDC04600000000FC1600205A
:10030000F8E80010704710B5002000F035FA012021
:1003100000F032FA022000F02FFA032000F02CFA4D
:10032000132000F029FA152000F026FA122000F020
:1003300023FA142000F020FA1C2000F01DFA1D20E2
:1003400000F01AFA042000F017FA052000F014FA61
:1003500010BDF0B5D6464F464646C0B5D02212066F
:10036000546801231C4061424C4101210C4024018E
:1003700005781026B146B5432C43047054686408D0
:100380001C4065426C410C40640107782025AA4658
:10039000AF433C4304705468A4081C4067427C414E
:1003A0000C40A40107782035AF433C4304705468E7
:1003B000E4081C4067427C41E40105787F272F4018
:1003C0003C4304705468A40C1C4067427C410C40C0
:1003D000A40005780427BD432C4304705468240D01
:1003E0001C4025006C426C410C40E4000578AC4692
:1003F0000825A84665464646B5432C430470546814
:10040000640D1C4025006C426C410C406400057872
:10041000AC460225A84665464646B5432C430470C3
:100420005468E40C1C4025006C426C410C4005787B
:100430009D432C430470546824091C4025006C42E1
:100440006C410C4045789D432C43447054686409CA
:100450001C4025006C426C410C40A4004578BD4313
:100460002C4344705468640F1C4067427C410C402C
:10047000240147784D46AF433C4344705268120F05
:1004800013405A4253410B405B01E2B251468A434A
:1004900013434370E0BCBA46B146A846F0BD802382
:1004A0001B01036043608360C360704770470000B6
:1004B00010B582B00AF00CFE642006F055FF11481A
:1004C0000AF0CAFDFFF71FFF01AC03220021200044
:1004D0000AF086FC2000FFF73CFF63789B0609D4F6
:1004E000094B1B886A461380684600F089F8002093
:1004F00002B010BD054808F011FF030000210800FC
:100500009847C046F8E800100CE90010554200007A
:100510007047704710B515E00E4B9A6A0E4B1A6083
:100520000E480EF069F900F0F7F90B4C206803F063
:10053000EFFD206802F044F9206800F0D1FD20684A
:10054000FFF7B4FF064905480EF07EF90028E3D115
:10055000E9E7C04600400540441C0020401400204C
:10056000F41E00207047000070B51C491C480EF0B6
:100570006BF900281AD11B4C2000FFF7EAFE1A4B3A
:100580001868210003F034FE02F06AFC05F060FAFE
:10059000002813D1144B1868144A154900F09CFA2E
:1005A000144B1B785BB2012B13D070BD124B9A6AAF
:1005B0000D4B1A600A480EF01FF9DCE70A4D286857
:1005C0000E4C210002F0DEFF2868210005F08CFAB5
:1005D000E0E7054B186800F0A7FDE6E7F01E0020F5
:1005E000401400208C170020441C002070170020AD
:1005F00090170020E8100020004005404017002020
:1006000070B5041E00D1A4E0FFF77DFE00F0CEFC23
:100610005048FFF79EFE00F0F5F900283AD100F0AF
:10062000E7F8C82006F0A0FE4B4800F0B7FC494BA5
:100630004A4A4B494B4803F0B7FC4B4B4A22FF3226
:10064000995C4C22FF32985CFFF78CFF01F056FB5F
:10065000012565576B1C27D00023E3565A1C01D097
:10066000424A13703B4B1B785A063BD4DA0627D418
:100670005AB2002A1FDB5A0726D40A221A40022A3D
:100680002CD01B072CD4042D12DC022D1DDA012DD9
:1006900029D016E0304800F081FC2E4B2F4A30491B
:1006A000304803F081FCC8E72F4B02255D57D3E7A4
:1006B000052D01D005E005252C4B01221A7012E012
:1006C000002500F04FFC0EE00425284B00221A7094
:1006D0000A2000F0BBFB00F045FC04E00325F4E732
:1006E0000225F2E701250023E356013318D000F07C
:1006F000B7FB184B9B789B0726D41D4A1549280049
:1007000002F06AFA194B00215956280000F0F4F95A
:100710000AF0F8FF17480AF0E3FFFFF725FFFCE7B0
:1007200000F028FD002808D14B3000F08FFB00F0CE
:1007300019FC0E4B02221A70D9E7642000F0FEFC6F
:100740000A4B01221A70D2E7074B9D7000F032F974
:10075000D3E770BD8C1700205C16002040170020E6
:10076000701700205817002098150020E81000206E
:10077000901700201505001010B5040005F0ACFC22
:1007800000220121200005F08DFC0123A340D0228E
:100790001206936210BD000010B512480AF08CFCDE
:1007A000002407E0104B5B18D97810480AF084FC4D
:1007B0000134E4B2052C0DD80BF078FA2100C0B258
:1007C000094A1219D070002CECD113000122904379
:1007D000D870E7E7044B9B221A720A200AF008FC43
:1007E00010BDC04610E900109815002020E9001047
:1007F000F0B5D7B0AC2464002200002168460AF0AE
:10080000EFFA3D4B6A46138080231B010393049348
:1008100005930693394B1793189319931A931B93C7
:100820001C931D931E931F93802269468B500432A4
:100830008B5004328B5004328B5004328B50043274
:100840008B5004328B50FF200004C423C850043363
:100850002B4ACA502B4A0433CA50FF2109060433DD
:100860006D46E950FF231B02D4256E4673510435B3
:10087000254E6F467E510435244E7E510435785105
:10088000E4203950E8217B5004317A50F022694647
:10089000BB5032234A22FF32BB540132BB542200E8
:1008A0001B480AF0A3FA002002F05CF9012002F0D4
:1008B00059F9022002F056F9032002F053F90420FE
:1008C00002F050F9002306E0114AD2189C32FF21B1
:1008D000117001339BB2192BF6D90E4C0622002160
:1008E00020000AF07DFAA01D062200210AF078FA05
:1008F000FFF752FF57B0F0BD00A0FFFF0000164405
:100900000000FF4D0000FFE600F115FF00FF610051
:10091000981500204E16002070B51D4CA5441D4BA7
:100920001B78002B03D180235B019D4470BD0AF02E
:1009300001FFEFF3108672B600230093164A0021E0
:1009400001A80AF04DFAAC225200144968460AF098
:100950004DFA80256D01124C290020000DF07CFF1E
:100960002A00694620000DF057FF86F310880AF030
:10097000EBFE0C4B1B78002B03D1064B00221A70A8
:10098000D1E705F091F8074B00221A70F5E7C04651
:1009900000F0FFFF8D2F0020FC0F000098150020B5
:1009A00000D01200952F0020014B01221A707047D1
:1009B000952F0020014B01221A7070478D2F0020C7
:1009C00010B5031C322800D93223D8B203494C2277
:1009D000FF328B540121FFF7C5FD10BD9815002093
:1009E00010B5031C322800D93223D9B2044A4A2058
:1009F000FF3013544C23FF33D05CFFF7B3FD10BD21
:100A00009815002010B51A4CAC225200194920004C
:100A10000AF0ECF92288A0231B029A4209D016485A
:100A20000AF01AFBFFF7E4FE0020FFF7C3FF0020E7
:100A30001CE00F4AA5235B00D35C1A1C312B00D8A5
:100A400032220B4CA5235B00E2544C23FF33E05CC5
:100A5000FFF7B6FF4A23FF33E05CFFF7C1FFE378FF
:100A600001229343E3709B232372012010BDC046F3
:100A70009815002000D0121028E9001010B5034C82
:100A8000E06021616261A36110BDC046981500203D
:100A900070B50D00064C2022010020000AF0A6F9D6
:100AA00020002030202229000AF0A0F970BDC046A5
:100AB000F415002070B50D00064C20220100200026
:100AC0000AF094F920002030202229000AF08EF943
:100AD00070BDC046B415002010B5034B1B68002B39
:100AE00000D0984710BDC046301A0020014B0020AE
:100AF000185670477A2F002010B5154B1870C3B2E6
:100B0000052B03D88000134B1B589F46124B134AEA
:100B10001A60002000F062FB10BD0F4B0F4A1A60F4
:100B2000012000F05BFBF7E70B4B0C4A1A60052035
:100B300000F054FBF0E7084B094A1A60ECE7064B5B
:100B4000084A1A60E8E7044B074A1A60E4E7C0461F
:100B50007A2F002080E90010301A00205D1200106A
:100B6000554A0010C551001055570010F8B5CE4633
:100B7000474680B50400234B1D78002D05D1002386
:100B80000360C0BCB946B046F8BD642DF9D0877883
:100B9000E678B81963789846C01809F077FF1A49C3
:100BA00009F00DFF8146280009F06BFF174909F095
:100BB00006FF051C011C484609F04EFF0028E0D145
:100BC0004946281C09F0FBFE051C380009F059FFB6
:100BD000291C09F00AFF09F0ADFFA070300009F0F0
:100BE00050FF291C09F001FF09F0A4FFE070404606
:100BF00009F047FF291C09F0F8FE09F09BFF60701F
:100C0000BFE7C0460411002000007F430000C84237
:100C1000F0B5D6464F464646C0B504000368002BE3
:100C200035D083789846C778D8196678801909F046
:100C30002DFF051C404609F024FF8046291C09F0C1
:100C4000BEFE8246380009F01CFF071C291C09F073
:100C5000B6FE8146300009F014FF061C291C09F07D
:100C6000AEFE051C5146404609F0BFFE09F062FF8A
:100C7000A0704946381C09F0B8FE09F05BFFE0702F
:100C8000291C301C09F0B1FE09F054FF6070E0BC73
:100C9000BA46B146A846F0BD00220AE093000649D4
:100CA0005958064B5B68DB03FBD4044B19610132D6
:100CB000D2B20A2AF2D97047141D00200000205039
:100CC000F8B5DE4657464E464546E0B506000D00EF
:100CD000141C807809F0D5FE8046F07809F0D1FE2A
:100CE000071C707809F0CDFE061CA87809F0C9FE33
:100CF0008346E87809F0C5FE8246687809F0C1FEAF
:100D000081464146584609F050FE211C09F06DFE0F
:100D1000414609F04FFE8046391C504609F045FE19
:100D2000211C09F062FE391C09F044FE051C311C2F
:100D3000484609F03AFE211C09F057FE311C09F023
:100D400039FE09F0F7FEC4B22402404609F0F2FE73
:100D5000C3B21B041C43281C09F0ECFE0006204310
:100D6000F0BCBB46B246A946A046F8BDF8B5244B38
:100D70001B78002B1DD02349234B0A0013CB13C231
:100D800013CB13C213CB13C203CB03C200231F4ADE
:100D900013701B4A137000221C4B1E78152E1ED890
:100DA000300009F06EFE1A4909F01FFE051C0024F0
:100DB0000DE00122F0E7A7001649C9191148C01932
:100DC0002A1CFFF77DFF104BD8510134E4B20A2CE6
:100DD000F1D901360D4B1E70FFF75EFFF8BD002AFA
:100DE000FCD109490B4B0A0013CB13C213CB13C21E
:100DF00013CB13C203CB03C2FFF74EFFEEE7C0468F
:100E0000862F0020401D0020141D00200511002009
:100E1000310C433D6C1D0020F0B5C64600B5060000
:100E20000F001500984600240AE0335D9B004246FF
:100E3000EA50305D80002818FFF7EAFE0134E4B282
:100E4000BC42F2D380BCB846F0BD0000031C64284D
:100E500000D96423014A13707047C0460411002072
:100E6000014B01221A707047862F002030B583B0E5
:100E7000050000240CE0019501A8FFF777FE064865
:100E8000A300019A1A50C018FFF7C2FE0134E4B261
:100E90000A2CF0D903B030BD6C1D002010B50B003A
:100EA0000A2808D88000224A12589746214A012170
:100EB0002148FFF7B1FF10BD1E4A01211F48FFF76F
:100EC000ABFFF8E71B4A04211D48FFF7A5FFF2E737
:100ED000184A01211B48FFF79FFFECE7154A012143
:100EE0001948FFF799FFE6E7124A01211748FFF773
:100EF00093FFE0E70F4A01211548FFF78DFFDAE77E
:100F00000C4A01211348FFF787FFD4E7094A012162
:100F10001148FFF781FFCEE7064A01210F48FFF78E
:100F20007BFFC8E7034A01210D48FFF775FFC2E7C1
:100F300098E900106C1D0020E4E90010D8E90010C9
:100F4000D0E90010DCE90010CCE90010D4E9001071
:100F5000E0E90010ECE90010E8E90010C4E9001035
:100F6000C8E9001070B50B4B19682C220A4809F02B
:100F70003DFF00240BE0A300074DED182800FFF70C
:100F8000F5FD29682000FFF789FF0134E4B20A2C3F
:100F9000F1D970BD981D00209C1D002010B5024B9A
:100FA0001860FFF7DFFF10BD981D002070B58CB0F2
:100FB000434D444928000AF049FF040006210F2050
:100FC00005F058F8012300930F22002128000AF0B1
:100FD00059FF1022002108A809F002FF80235B02BC
:100FE0000893F8235B0209938023DB020A93C02352
:100FF0001B030A93102208A904A809F0F7FEE21CBB
:10100000059B0393304B03990B40E1010B43120303
:1010100013430593079A0392D200D20880218905D1
:101020000A430792294A13400593102204A908A8ED
:1010300009F0DCFE0B9B0393254A1A40F0239B0129
:1010400013430B930A9B0393224A1A40224B1343E8
:101050000A939B009B088022D20513430A93052024
:1010600006F048FF1D4908F0ADF909F00AFD061C1D
:1010700009F060FD85B2002D1FD0280009F001FDA8
:10108000011C301C09F091FC8721C90509F0ADFC59
:1010900009F050FDC0B200022D0405430895084D2B
:1010A00008AB2200002128000AF03EFF2B68012235
:1010B000934313432B600CB070BD0020EBE7C04698
:1010C00000002050F0E900107F00FEFFFFFFFF9FAF
:1010D000FF83FFFFFFFFF5C1000002300050C30097
:1010E00010B50E4B18600E4B1B68984208D2C31AFD
:1010F000013B0C4A934207D80023002B0AD110BDB4
:10110000984205D9C31AF4E7054B18600123F4E7A8
:101110000023F2E7FFF72AFEF1E7C046382F002050
:10112000B029002019410000704710B50020FFF7DA
:10113000E9F89620400006F017F910BD00B583B01D
:1011400023280AD8C0B20538C0B27F23184001ABAB
:1011500004221A70587003B000BDAF235B009842A0
:1011600000D9180028380A2108F004F9C0B21F304D
:10117000C0B2EAE710B5024809F06EFF012010BDC9
:1011800000EA001010B5FFF7B1FC052801D00248B5
:1011900010BD0248FCE7C04638EA001028EB0010FA
:1011A00010B500200CF0B6FA10BD00000378013332
:1011B0000370044B1B785BB2052B01D002487047CB
:1011C0000248FCE7C41100205CEC001094ED001014
:1011D000014B18607047C046201F002010B5040066
:1011E000002001F0E7FA012C0FD0052C17D0114890
:1011F000FFF7EEFF104B114A1A60114B114A1A60AB
:10120000114B1C700CF092FE10BD6420FFF7E0FF44
:10121000094B0E4A1A600A4B0D4A1A60F0E7642027
:10122000FFF7D6FF044B0B4A1A60054B0A4A1A60B7
:10123000E6E7C046B01D00001C1F0020E558001066
:10124000241F0020A1110010C4110020315F0010E4
:10125000A917001005430010351C001070B50600DA
:101260000C0015000120002140420BF0C7FD1F4B70
:101270001B785BB2012B01D0052B0AD11C4B1B68DC
:101280009847002804D01B4B1B6829002000984772
:1012900070BD194B1A78194B1E60002A15D1184BD6
:1012A0001B689E4215D2F31A013B16498B4214D893
:1012B000002A16D00E4B1B6898470028E8D00D4B2B
:1012C0001B68290020009847E2E70D4B1E600022B2
:1012D000EEE79E42ECD9F31AE7E7094B1E600122C4
:1012E000E6E7054B00221A70D2E7C046C411002081
:1012F000241F00201C1F0020942F00203C2F0020C2
:10130000B42900204B1D0000064B1B785BB2012B5B
:1013100003D0052B03D1044870470448FCE7044878
:10132000FAE7C046C411002080ED0010A4EC0010C4
:1013300088F40010064B1B785BB2012B03D0052B01
:1013400003D1044870470448FCE70448FAE7C04664
:10135000C411002054ED001074EC001048F400108B
:1013600000207047014B01221A707047942F002013
:1013700070B504AC2588234C247864B2012C28D0A5
:10138000052C0FD0002908D1002A06D11878102882
:1013900004D02A00190000F0DBFF70BD981C00F09B
:1013A0004BFDFAE70029F8D1002AF6D11A78112A64
:1013B00005D0132AF1D1144809F07EFEEDE75B78E1
:1013C000002B04D0FE208005FFF7A3F8E5E70020FE
:1013D000FAE70029E1D1002ADFD11A78002ADCD10E
:1013E0005A78082AD9D1DA78002A02D11B79002B41
:1013F00004D0FE208005FFF78CF8CEE70020FFF731
:1014000088F8CAE7C4110020ECEB0010044B1B78ED
:101410005BB2052B01D0034870470348FCE7C04688
:10142000C41100209CF40010E8EC001070B5EE2808
:1014300024D0002825D080001E4BC55828000DF070
:101440009BF9C0B21F2800D91F20002327E05A1C97
:10145000194CA15C0902E25C0A434400174962523C
:1014600002330130112BF2D9154A144B13CB13C29E
:1014700011001A680A609B888B8019E00020002305
:10148000F0E70C4B196802220E4809F0AFFC01206E
:1014900007E05A1CEC5C5100094BCC52D3B2984285
:1014A000F7D801304000C0239B001843044B18803C
:1014B000034870BDF010002030EC0010141700201D
:1014C000541A0020561A002000B591B040226946F7
:1014D00000200CF0ADFB00200CF0C0FB064B1B788D
:1014E0005BB2002B01D011B000BD044809F0B4FD7F
:1014F000684604F067FBF6E7C411002004EC001016
:10150000F0B583B005001400012966D113785B069D
:101510009B0F012B58D0022B03D0002B01D00020B1
:101520005CE06378022B24D0072B03D0012B19D069
:10153000002053E0227963791B021343042B03D06C
:10154000052B08D0002049E02433264A210028003A
:101550000BF078FD42E08D33234A210028000BF088
:1015600071FD3BE01523214A210028000BF06AFDA4
:1015700034E0227963791B021343072B30D11C4BD3
:101580001B785BB2052B0FD06B469F1D194E0222B4
:101590003100380009F02AFC3B883200083A21006B
:1015A00028000BF04FFD19E06B469F1D124E0222E2
:1015B0003100380009F01AFC3B883200083A21005B
:1015C00028000BF03FFD09E051780C4809F074FD4C
:1015D000210028000BF01AFD00E0012003B0F0BD4F
:1015E0000020FBE79C1100200811002044EC0010B3
:1015F000C41100207CEA001054EB00101CEC001019
:101600000120704710B584220021024809F0E8FB50
:1016100010BDC0464423002010B50020FFF7F2FFA4
:1016200010BD0000F0B5C64600B580460D008B79B0
:101630005D2B24D10B79DF00FF1ABFB21937BFB27F
:10164000974221D80C780C19002605E0104A5370F7
:101650000136F6B22378E4182B79B34210D96378B7
:10166000052BF7D1210040460BF0F6F800280DD0ED
:10167000A378DA09012AE9D0054A9370E8E7002740
:10168000380080BCB846F0BD0027F9E70027F7E72F
:101690004423002030B583B00400144840788842C9
:1016A00006D0124A92788A420CD0012003B030BD95
:1016B0000F4A002A18D09AB20E490020FFF752FEB6
:1016C0000120F3E70C4D9BB200932B000022002178
:1016D0000020FFF74DFE2B00443B997840232A0061
:1016E00020000BF02DF9E1E70120DFE74423002083
:1016F00065130010482300208823002010B50BF04C
:101700000FF8002803D10023002B08D110BD0BF0E7
:101710000FF8002801D10123F6E70023F4E70B4B73
:10172000997800200BF048F90028EFD1074CA178F8
:101730000BF0DEF822004432A178402300200BF0A9
:10174000FFF8A17800200BF0E7F8DFE74423002042
:1017500070B505000C000AF0EBFF002806D18121CE
:1017600000200BF0C5F8002803D170BD0AF0E8FF97
:10177000F5E7231C402C00D940239CB2094E2200DF
:101780002900300009F032FB351F69782300320050
:1017900000200BF0D5F8697800200BF0BDF8FFF7BA
:1017A000ADFFE2E74823002010B5104B5C780AF04B
:1017B000B7FF002806D10023002B13D0002C09D13D
:1017C000002010E00AF0B4FF002801D10123F3E764
:1017D0000023F1E7210000200BF0EEF8002803D1F0
:1017E000013000E0002010BD0020FCE74423002071
:1017F00010B53C220021024809F0F2FA10BDC046A3
:10180000F01A002010B50020FFF7F2FF10BD000015
:10181000F0B583B006000F001500FFF767F9052843
:101820004CD13B79DC00E41AA4B21234A4B2AC422D
:1018300048D80023002B09D00025002D44D039784A
:1018400079184B78212B11D0002438E01A01D21AD4
:1018500092001F4882185278002A02D00133DBB26E
:10186000E8E71A01D11A89004518E6E7A9630B7861
:10187000C9183A796B1C0193AB1C00930323300009
:101880000BF004F8002821D0BB79012B13D00123E1
:101890002B71BB782B70AA6BD179137A1B020B4387
:1018A000EB80A97800290AD02A00303206233000C4
:1018B0000BF046F803E0FB79EB70E8E7002420002A
:1018C00003B0F0BD0024FAE70024F8E70024F6E7AF
:1018D000F01A002070B582B005001D4C00200028D1
:1018E0000AD0002830D162788A4213D0A2788A4286
:1018F0001AD0012002B070BD0401241AA400144AB9
:101900001419A2788A42ECD062788A42E9D0013078
:10191000C0B2E4E70F4A002A18D0210008319AB279
:10192000FFF720FD0120E5E7260030369BB200934B
:10193000330000220021FFF71BFDA17806233200AF
:1019400028000AF0FDFFD5E70020D3E70120D1E70A
:10195000F01A002065130010F0B5C64600B582B03D
:101960000600150012781F231340012B00D01FE141
:1019700028790024002C0DD0FF24002C00D01CE17D
:101980002700602318001040134239D101290BD0E1
:1019900001200EE123011B1B9B008E4FDB5D984253
:1019A000EBD00134E4B2E5E7EA786B78062B06D099
:1019B000062B00D005E1222A12D00020F9E0212ACE
:1019C000F6D123011F1BBF00824BDF19BA6B002A1F
:1019D00000D1F4E01378290030000BF033FBE8E08D
:1019E0002000FFF713FD02003B01DF1BBF00794B16
:1019F000DF19FB88290030000BF024FB0120D8E020
:101A0000202800D0DFE06B780B2B00D9DDE09B00B5
:101A1000714AD3589F46012901D00120C9E0EA78D4
:101A2000A97823011B1B9B0008336A4FFF18A87974
:101A3000EB791B020343181C252B00D9252080B20B
:101A4000002909D0012B16D97B1C9C46397001381E
:101A500080B20123984602E0BC46002398460090DD
:101A600063462000FFF77CFC030043449BB2002B3D
:101A700005D100209DE0BC4600239846EFE73A00E0
:101A8000290030000BF0DEFA012092E0012903D09A
:101A9000032915D001208CE0AA79EB791B021343AE
:101AA000062B01D9002084E02201121B9200303263
:101AB00048498A18290030000BF0C4FA012078E068
:101AC000EA78A97823011B1B9B0030334148C318D7
:101AD000AE79E87900023043051C062800D90625B6
:101AE000ADB2002904D0012802D91878884205D067
:101AF00000952000FFF73CFC01205AE00133013D36
:101B0000ADB2F5E7012901D0012052E0E9782301C7
:101B10001F1BBF002F4BDF197971304B002B04D0F6
:101B2000200000E000BF002843D0290030000BF067
:101B30006DFA01203DE0012901D0012039E02201A8
:101B4000171BBF00234AD219053201232900300098
:101B50000BF078FA01202CE0012901D0012028E0C7
:101B60002201171BBF001B4AD2190432012329008E
:101B700030000BF067FA01201BE0012903D0032994
:101B800007D0012015E0290030000BF03FFA0120BA
:101B90000FE0A97823011F1BBF000E4BDF1939711D
:101BA0000F4B002B13D0200000E000BF012000E00D
:101BB000002002B080BCB846F0BD0020F9E700204C
:101BC000F7E70020F5E70020F3E70020F1E7012028
:101BD000EFE7C046F01A0020B8EC0010000000004B
:101BE0000000000010B50301181A8000104B1818EF
:101BF00044780AF095FD002806D10023002B13D06D
:101C0000002C09D1002010E00AF092FD002801D13B
:101C10000123F3E70023F1E7210000200AF0CCFEC6
:101C2000002803D1013000E0002010BD0020FCE7B7
:101C3000F01A002010B50020FFF7D4FF10BD0000FF
:101C4000F8B504000F0016001D0003011B1A9B00CD
:101C50001F4AD318597800200AF04AFE002825D0E0
:101C6000002F24D02B1C242D00D924239DB2184AE8
:101C70002301191B890051180F721B1B9B0008338D
:101C8000D01801302A00310009F0B0F80135ADB2AA
:101C90000F4B2001021B920008329A18001B800093
:101CA000181841782B0000200AF04AFEF8BD2B1CC2
:101CB000252D00D925239DB22001001B800008306E
:101CC000034B18182A00310009F090F8E0E7C046ED
:101CD000F01A002010B513000A0001000020FFF7E1
:101CE000AFFF10BD107003120F20184050700B0191
:101CF00018435070091191707047000070B5124D73
:101D0000802424012A0021002000FFF7EBFFEA1CB9
:101D100021002000FFF7E6FFAA1D21002000FFF7A9
:101D2000E1FF2A00093221002000FFF7DBFF2A0033
:101D30000C3221002000FFF7D5FF2A000F322100CE
:101D40002000FFF7CFFF70BD142F002010B54022F8
:101D50000021024809F044F810BDC046601E002072
:101D6000014B18707047C046902F0020014B18732C
:101D70007047C046601E0020014B58737047C04634
:101D8000601E0020074A0021535E10780649087043
:101D9000033399B21BB21380FF2B01DDFF39118091
:101DA0007047C0466A2F0020601E0020024B1A7840
:101DB000024B5A707047C04648F00010601E002069
:101DC000054B03229A734821D9731A74013A5A7445
:101DD000473919765A767047601E002010B5C4B294
:101DE000000A002307E019000E31044A545401315F
:101DF00050540233DBB20D2BF5D910BD601E00200C
:101E000030B5C4780325455743780821194001228D
:101E100093437E322240012B01D9002907D0402A6A
:101E200007D9002D01DB012004E0002002E00120A1
:101E300000E0002030BD000070B50400FFF7E0FFB7
:101E4000002832D0657801239D436D08E3787F2018
:101E500018404038C0B208F014FEF221890508F09D
:101E6000C4FD061C280008F00CFEF021890508F0CE
:101E7000BCFD041C011C301C08F0FEFD002800D035
:101E8000341C0C49201C08F0B0FD0B4908F092FDF1
:101E9000041CFE21890508F0E7FD002801D0FE247E
:101EA000A405201CFEF735FB70BD0020FEF731FBBA
:101EB000FAE7C046CDCCCC3D6666663F0A4B0122B0
:101EC0001A7000225A7003329A70084A117AD97037
:101ED000D179197191795971517999711179D971B2
:101EE000D2781A727047C046601E002098150020F4
:101EF00010B50400FFF72AFF8120FFF731FF012C06
:101F00000DD02100094809F0D7F8094B1C70094B86
:101F100019784023064A00200BF024FC10BD064827
:101F200009F0CAF8FFF7CAFFF1E7C046C4ED001098
:101F3000601E0020902F0020ACED001070B586B020
:101F40006C462A4B0433220070CB70C270CB70C237
:101F5000022837D0032841D00023002500E00133B8
:101F6000052B10D8224AD2184D32FF3214780522A0
:101F7000D21A885C8442F2D01D4AD2184D32FF3208
:101F800010700125EBE7002D19D18120FFF7EEFE3F
:101F9000184801238373164B1A7AC273DA790274D4
:101FA0009A7942745A7982741A79C274DB7803750B
:101FB00015301822694608F019FF06B070BDFEF70B
:101FC000F9FCE2E78120FFF7D1FE0A480223837380
:101FD0000F301022084908F009FFEEE78120FFF7D3
:101FE000C5FE044B03229A73E7E7C04648F0001091
:101FF00098150020601E0020E01E002070B504002F
:102000000D001600FFF7A2FE2120FFF7A9FEFFF743
:10201000B9FEFFF7CBFE2000FFF7AEFE6A4809F0DD
:102020004BF8482C00D9A7E0A300684AD3589F4634
:10203000674809F011F88020FFF798FE654809F01D
:102040003BF80024B4E0E97A634809F035F8E87A0F
:10205000431E9841C0B200F0ADFB8020FFF786FE22
:10206000ECE75E4808F0F8FF29000C31E87AFFF74A
:1020700065FFE3E7E97A5A4809F01EF88020FFF788
:1020800075FEEA7A574B1A70D8E7574808F0E4FF14
:102090008220FFF76BFEFFF793FECFE7E97A534804
:1020A00009F00AF88020FFF761FEC7E7297BEA7A8A
:1020B000EB7B4F4809F000F89020FFF757FEEA7BD2
:1020C000E97A287B00F026FAB8E7297BEA7AEB7BED
:1020D000484808F0F1FF8020FFF748FE2B7B802B5B
:1020E000ACD1EB7A262BA9D10024192C10D82200D0
:1020F0001032A95C404B1B199C331970A95C3F48F6
:1021000008F0DAFF0A2008F073FF0134A4B2ECE70C
:102110000020FEF74FFC91E7394808F09DFF83202F
:10212000FFF724FE6420FFF759FE87E7354808F0E3
:1021300093FF8020FFF71AFE80E7334808F0BCFFCA
:102140008020FFF713FEEA7A0F231340072B0BD0F2
:102150000F2B0DD0032B03D02C4808F07DFF6DE72B
:102160002B4808F079FF69E72A4808F075FF65E712
:10217000294808F071FF61E72100284808F09CFF1A
:10218000002405E0295D264808F096FF0134A4B23A
:10219000B442F7D30A2008F02BFF8020FFF7E6FDBA
:1021A0004CE7204B195D1E4808F086FF0134E4B26D
:1021B0001F2CF6D90A2008F01BFF4023194A2121C1
:1021C00000200BF0CFFA70BDE0ED001010EF001012
:1021D000E8ED001008EF0010F8ED001008EE001018
:1021E00018EE0010C811002030EE001044EE001070
:1021F00058EE001080EE001098150020A8EE001098
:10220000B0EE0010C0EE0010D4EE0010E40B011090
:10221000E4EE0010E8EE0010ECEE0010F0EE00101E
:1022200000EF0010601E002070B50C001500102893
:1022300011D0802813D0012804D001000A4808F0EA
:102240003BFF07E0881CFFF7F7FDA07A2A0021007A
:10225000FFF7D4FE70BD881CFFF7EEFDFAE7487863
:10226000FFF746FEF6E7C04634F00010094B1B7836
:102270000A2B07D00B2B09D0064B0A221A70054BEC
:1022800018787047034B0B221A70F8E7014B0C22A9
:102290001A70F4E7C911002070B50400254B1B78B3
:1022A000002B04D1244B1B78302B0BD070BD234B5B
:1022B0001A88234B18782349FFF7B6FF1D4B0022DD
:1022C0001A70F3E7FFF742FD3020FFF749FDFFF7F3
:1022D00059FDFFF76BFD1C4D28000C3000F0F6F99E
:1022E0002378AB706378EB70A3782B71E3786B7114
:1022F00023790F210B40AB716079A3791B02034353
:102300001B11EB71E3792B72237A19406972617AA0
:10231000A37A1B020B431B11AB72FFF7A7FFE872F6
:102320000A4B197840232A0000200BF01BFA01F019
:1023300011FEBBE7912F0020C8110020C61100201C
:10234000922F0020A01E0020601E0020902F002051
:1023500010B5054B01241C70044B1870044B1A80F7
:10236000044808F043FD10BD912F0020922F00205B
:10237000C6110020A01E002010B5024B181808F04E
:1023800035FD10BD601E0020502800D1ADE00FD9F2
:1023900060282CD0802820D10B00263BDBB2192BE3
:1023A00000D9AEE02639584B59189C31087813E013
:1023B000402800D99BE0202808D3242900D19AE0A6
:1023C0000DD8012900D098E0222005E0002803D094
:1023D000102800D08DE000207047FF20FCE7263950
:1023E000C9B2252901D8FF20F6E70020F4E7A92982
:1023F00079D88B00454AD3589F46FF20ECE702204E
:10240000EAE70120E8E72320E6E70020E4E7B92037
:10241000E2E71A20E0E70120DEE70020DCE74020C9
:10242000DAE70020D8E74020D6E70020D4E74020B4
:10243000D2E70120D0E70020CEE70120CCE7002042
:10244000CAE70120C8E70020C6E73B20C4E73420E4
:10245000C2E73B20C0E73420BEE73B20BCE7342086
:10246000BAE73D392A4B585CB6E73D39284B585CF2
:10247000B2E71A20B0E71A20AEE71A20ACE75E20D8
:10248000AAE70120A8E75020A6E7FD20A4E7002046
:10249000A2E70020A0E7C6209EE70F209CE70F20C0
:1024A0009AE7302098E7612096E7AE2094E79020E5
:1024B00092E7D92090E7D4208EE714208CE75420AF
:1024C0008AE7412088E7152086E7542084E7C72063
:1024D00082E7792080E79C207EE733207CE7362066
:1024E0007AE7632078E7002076E7002074E7FF2092
:1024F00072E7FF2070E768206EE700206CE703209A
:102500006AE7FF2068E7C0469815002064F00010D5
:10251000142F0020F0B58BB006000F00150008A99D
:102520000F70487000248C70CC700A7105220E2048
:10253000FFF722FF00941A22002101A808F050FCA6
:1025400007E03919C9B23000FFF71EFF6B46185576
:102550000134A542F5DC2A0069461320FFF70CFF81
:102560000BB0F0BD4118CB0F5B185B1080225202FC
:10257000914204DA044A914203DB18B270470348DF
:10258000FCE70348FAE7C046FFFFFEFFFF7F0000BD
:102590000080FFFF70B51B48FEF768FCFEF760FC8B
:1025A000194D06220021280008F01AFCA81D062259
:1025B000002108F015FC154B01221A70144BFA2269
:1025C00052011A60134E144C31002000FDF7A0FF99
:1025D0000623E25EB63DB923EA540823E25EBA233D
:1025E000EA540A23E25EBB23EA540623F25EBF23C9
:1025F000EA540823F25EC023EA540A23F25EC123A0
:10260000EA5470BD0000FFFF4E1600207C2F002012
:10261000841C0020781C0020601C002010B5FEF7F0
:10262000A1FCFEF71DFCFEF7BFF9FEF7C3F9024B54
:1026300000221A7010BDC0467C2F0020F8B51D4D39
:102640001D4E29003000FDF763FF1C4CB9270623FF
:10265000F15EE057FFF786FFE05501370823F15E92
:10266000E057FFF77FFFE05501370A23F15EE0579F
:10267000FFF778FFE055BF260623E95EA057FFF776
:1026800071FFA05501360823E95EA057FFF76AFFE6
:10269000A05501360A23E95EA057FFF763FFA05556
:1026A000074A1368013B1360002B00D0F8BDFFF709
:1026B000B5FFFBE7781C0020601C00209815002067
:1026C000841C00200870001248707047F0B583B079
:1026D000040001A92F480CF0B7F80028F9D02E4EBD
:1026E00033782370737863702C4D2B78A3706B78DC
:1026F000E3702B48037823714378637129490B7881
:10270000A3714B78E371284A13782372537863726C
:10271000264B1F78A7725F78E772B7782773F77830
:102720006773AF78A773EF78E77387782774C778F4
:1027300067748F78A774CF78E77497782775D77800
:1027400067759F78A775DF78E7753779277676798B
:1027500066762E79A6766D79E576057925774079C6
:1027600060770879A0774979E17710792021605462
:1027700051792122A15419790132A1545A79232384
:10278000E2540B4B00221A7002480CF035F803B0EB
:10279000F0BDC04648140020301700202817002044
:1027A00038170020501C0020481C0020581C002016
:1027B0007F2F0020014B18707047C0467E2F0020ED
:1027C000F0B583B06C4B1A78002A16D16B4B1B788E
:1027D000002B03D16A4B1B78022B0CD9694B186074
:1027E000694B1B6898420BD2C31A013B67498B4265
:1027F0000AD8002A0CD103B0F0BDFFF71FFFFAE79B
:102800009842F6D9C31AF1E75F4B18600122F0E74E
:102810005F496048FDF77CFE5F4B1B78002B45D07D
:102820005C4DE8885D4FB923FB569BB2C01A584EE9
:10283000F188BF23FB569BB2C91A09B200B2FFF759
:1028400091FE574CE0802889BA23FB569BB2C01AF0
:102850003189C023FB569BB2C91A09B200B2FFF7F7
:1028600081FE20816889BB23FB569BB2C01A718907
:10287000C123FB569BB2C91A09B200B2FFF772FE20
:1028800060810023F15E0023E85EFFF76BFE20808D
:102890000223F15E0223E85EFFF764FE60800423FA
:1028A000F15E0423E85EFFF75DFEA08001A93D48CC
:1028B0000BF0CAFF0028F9D0314B1C786400E4B259
:1028C000354B1B78002B30D037490919344D06237E
:1028D000E85EFFF7F7FE354909190823E85EFFF7C0
:1028E000F1FE334909190A23E85EFFF7EBFE31498F
:1028F00009190023E85EFFF7E5FE2F4909190223B5
:10290000E85EFFF7DFFE2D4909190423E85EFFF7B3
:10291000D9FE24480BF070FF194B1B78022B00D90D
:1029200069E70133164A137065E71F490919194D04
:102930000623E85EFFF7C6FE1C4909190823E85E76
:10294000FFF7C0FE1A4909190A23E85EFFF7BAFE2D
:10295000184909190023E85EFFF7B4FE1649091962
:102960000223E85EFFF7AEFE144909190423E85E6E
:10297000FFF7A8FECDE7C0467C2F00207E2F002069
:102980007F2F0020402F0020B82900202D090000B3
:10299000781C0020601C00207D2F0020981500204E
:1029A0006C1C002048140020481C0020501C0020F3
:1029B000581C00202817002030170020381700204E
:1029C000C3B2052B03D880000D4B1B589F460D4BFF
:1029D0000B600833136070470B4B0B6008331360B8
:1029E000F9E70A4B0B6008331360F4E7084B0B6000
:1029F00008331360EFE7074B0B6008331360EAE717
:102A00000CF3001090160020B0160020A016002035
:102A1000C0160020D016002030B50F220D780F23ED
:102A20001D40047894432C4304704C781C402501CD
:102A300004781C402C4304708D781D4044789443E6
:102A40002C434470CC781C40250144781C402C4316
:102A500044700D791D40847894432C4384704C79E4
:102A60001C40250184781C402C4384708D791D40C6
:102A7000C47894432C43C470CC791C402501C4789D
:102A80001C402C43C4700D7A1D40047994432C43A0
:102A900004714C7A1C40250104791C402C430471BC
:102AA0008D7A1D40447994432C434471CC7A1C4068
:102AB000250144791C402C4344710D7B1D408479D1
:102AC00094432C4384714C7B1C40250184791C4029
:102AD0002C4384718D7B1D40C479944322002A438A
:102AE000C271CA7B1A401201C1790B401343C371F2
:102AF00030BD0B781B071B0F03700B781B0943704D
:102B00004B781B071B0F83704B781B09C3708B78A6
:102B10001B071B0F03718B781B094371CB781B07B5
:102B20001B0F8371CB781B09C3710B791B071B0F1C
:102B300003720B791B0943724B791B071B0F8372BE
:102B40004B791B09C3728B791B071B0F03738B799E
:102B50001B094373CB791B071B0F8373CB791B09AD
:102B6000C373704770B50400144D154A2900FFF770
:102B700027FF2B68134A1168526819605A60032CAA
:102B800012D0042C15D0022C09D00D4B1B6800224A
:102B90001A800A4B19680C48FFF7ABFF70BD084B51
:102BA0001B680A4A1A80F4E7054B1B68084A1A801A
:102BB000EFE7034B1B68074A1A80EAE7101D002065
:102BC000181F002068F30010001D002000E1FFFF27
:102BD00000C0FFFF00CAFFFF10B5084B1960084B8B
:102BE0001A60084B1870084C084A2100FFF7E8FEED
:102BF00021680748FFF77DFF10BDC04698170020E9
:102C00009C170020852F0020101D0020181F002079
:102C1000001D0020024AA4235B00D0547047C04628
:102C20009815002010B5044B00221A70034B196848
:102C30000348FFF75EFF10BD712F0020101D00201C
:102C4000001D002070B590B00500364C364E2200B5
:102C50003100FFF7B5FE31683448FFF74AFFFFF750
:102C6000E1FF002300933C22002101A808F0B8F8FE
:102C7000A6236A461370557033681A781207120F2C
:102C800069468A701A781209CA705A781207120FA8
:102C90000A715A7812094A719A781207120F8A71CA
:102CA0009A781209CA71DA781207120F0A72DA7862
:102CB00012094A721A791207120F8A721A791209C6
:102CC000CA725A791207120F0A735A7912094A7393
:102CD0009A791207120F8A739A791209CA73DA79EC
:102CE0001207120F0A74DB791B094B7422681388D0
:102CF0001B0A8B741388CB740D4BA42252009A5C70
:102D00000A75A52252009B5C4B75002002F0ACFEB8
:102D100000200AF0D3FF4022694600200AF0B0FFED
:102D200010B070BD0C1F0020081F0020F81E0020EE
:102D30009815002070B50A0000210F2937D803002C
:102D40000B41DB0714D40131C9B2F6E70133DBB222
:102D50000F2B0FD82A4AD05C2A4A12789042F5D11C
:102D6000294A146801209840228802432280EDE716
:102D70000023EDE7224C234803786354224B1D685F
:102D800001228A402B8893432B8002781F4808F049
:102D900093F91F4B00221A701E4B18682100FFF791
:102DA0003BFE1D4B00201856FFF74CFF70BD002A5C
:102DB000FCD0002401E00134E4B20F2C14D8104BF5
:102DC0001A5D104B1B789A42F5D12100134808F088
:102DD00073F90D4B19680122A2400B8813430B8035
:102DE0000B4B00221A70E6E70A4B18680449FFF7FC
:102DF00013FE094B00201856FFF724FFD6E7C04604
:102E0000F81E0020702F00200C1F002024F300105B
:102E1000712F0020081F0020932F002040F3001086
:102E200070B504000D00084E084A3100FFF7C8FDD8
:102E300031680748FFF75DFE064B1C70064B1D709E
:102E4000064B01221A7070BD081F00200C1F0020C5
:102E5000F81E0020932F0020702F0020712F0020DB
:102E600070B52B4B1A680021117051701B6800223D
:102E70009A70284B1B78002B12D0274B1A68937836
:102E80009B07D90F002B03DA9378022083439370BA
:102E9000214B1B681A78587800021043FFF74AFF4D
:102EA00001F02AFA00285CD1194B196808784B7890
:102EB0001B0203431BB2194A12685278D20609D486
:102EC000154A12685278D206D20F1548007B82400C
:102ED00012B200E0002213439AB2FF2003400B70AD
:102EE000120A4A700A4B196808784B781B02034390
:102EF0001BB20A4A12685278920613D4064A126824
:102F000052789206D20F0648407B824012B20AE005
:102F10009C170020712F002098170020181F0020F8
:102F2000001D0020002213439AB2FF2003400B70C3
:102F3000120A4A70E24C2168E24803689B789B07BA
:102F4000DB0F5B008A780225AA4313438B7021684C
:102F500003689B78DB07DA0F8B78012083431343E8
:102F60008B70D74B196808784B781B0203431BB250
:102F7000D54A12681278D20700D584E1D14A126886
:102F80001278D207D20FD1480078824012B2134390
:102F90009AB2FF2003400B70120A4A70C84B19689E
:102FA00008784B781B0203431BB2C74A1268127899
:102FB000920700D569E1C34A126812789207D20FCE
:102FC000C2484078824012B213439AB2FF200340B5
:102FD0000B70120A4A70BA4B196808784B781B02BA
:102FE00003431BB2B84A12681278520700D54EE16B
:102FF000B44A126812785207D20FB44880788240DF
:1030000012B213439AB2FF2003400B70120A4A70A7
:10301000AB4B196808784B781B0203431BB2AA4AD2
:1030200012681278120700D533E1A64A12681278A6
:103030001207D20FA548C078824012B213439AB249
:10304000FF2003400B70120A4A709D4B19680878E4
:103050004B781B0203431BB29B4A12681278D206BC
:1030600000D518E1974A12681278D206D20F974815
:103070000079824012B213439AB2FF2003400B70D2
:10308000120A4A708E4B196808784B781B0203436A
:103090001BB28D4A12681278920600D5FDE0894A6B
:1030A000126812789206D20F88484079824012B294
:1030B00013439AB2FF2003400B70120A4A70804BF0
:1030C000196808784B781B0203431BB27E4A1268CA
:1030D0001278520600D5E2E07A4A12681278520657
:1030E000D20F7A488079824012B213439AB2FF20FD
:1030F00003400B70120A4A70714B196808784B78BC
:103100001B0203431BB2704A12681278D20900D026
:10311000C7E06C4A12681278D2096C48C0798240C4
:1031200012B213439AB2FF2003400B70120A4A7086
:10313000634B196808784B781B0203431BB2624A41
:1031400012685278D20700D5ADE05E4A1268527814
:10315000D207D20F5D48007A824012B213439AB26E
:10316000FF2003400B70120A4A70554B196808780B
:103170004B781B0203431BB2534A12685278520722
:1031800000D592E04F4A126852785207D20F4F484A
:10319000807A824012B213439AB2FF2003400B7030
:1031A000120A4A70464B196808784B781B02034391
:1031B0001BB2454A12685278920700D577E0414A1F
:1031C000126852789207D20F4048407A824012B279
:1031D00013439AB2FF2003400B70120A4A70384B17
:1031E000196808784B781B0203431BB2364A1268F1
:1031F000527812075DD4334A126852781207D20F00
:103200003248C07A824012B213439AB2FF20034080
:103210000B70120A4A702A4B196808784B781B0207
:1032200003431BB2284A12685278520643D4254AF7
:10323000126852785206D20F2448807B824012B224
:1032400013439AB2FF2003400B70120A4A701C4BC2
:10325000196808784B781B0203431BB21A4A12689C
:103260005278D20929D1174A12685278D2091748E0
:10327000C07B824012B213439AB2FF2003400B700E
:10328000120A4A7070BD002281E600229CE60022EC
:10329000B7E60022D2E60022EDE6002208E700228F
:1032A00023E700223DE7002258E7002273E70022CF
:1032B0008EE70022A8E70022C2E70022DBE7C04633
:1032C0009C17002098170020181F0020001D0020C8
:1032D000F0B5DE4657464E464546E0B583B005009C
:1032E0000C00AC23CB5C002B2FD0B823CB5C9B0015
:1032F0005B589846AE23E35C002B2CD0B023E65CF1
:10330000013EF6B2E6547B4BE818C317C01858408C
:1033100080231B019D421CDA01277F4207F0B6FB88
:10332000B423E15807F061FB07F0D2FB4743B82311
:10333000E35C80221201944667449B001F51002EDB
:103340000DD1AE230022E25409E080231B019846F0
:10335000D0E70127E2E7B823E35C9B001D51AD23D2
:10336000E35C002B14D0634BEB18DA179B18534027
:103370009946AF23E65C0136F6B2E654282E02D811
:103380005D4B994512DD0023AF22A354023AA354AA
:10339000A423E358AB4200DCA0E080221201954256
:1033A00072DA934200DB97E000236EE0A823E05836
:1033B0004B461933984263DDFA2861DD07F066FB5E
:1033C000011C4E4807F0FBFA0190B923E75C00238B
:1033D0009B461AE001239A4607F058FB019907F033
:1033E00004FB07F075FB53464343180080231B0181
:1033F0009C466044BB001851781C292105F0BAFF97
:103400000F005B460133DBB29B465E450ED9BB0025
:103410001B59384A9818C217801850408022120150
:103420009342D7DA01235B429A46D5E780231B01FA
:103430009D4223DA01277F42484607F027FB019B84
:103440009946191C07F0D1FA07F042FB7843B823DC
:10345000E35C80221201944660449B001851B4231F
:103460004A46E2500023AD22A35401320121A15467
:1034700004360232A654013AA35489E70127DBE758
:10348000A8234A46E25083E70023002B0DD00123F6
:10349000AD22A3540332A354013AA354A73300220C
:1034A000E2501033E25C0133E254A423E550B82526
:1034B000605D0130292105F05DFFC9B26155002929
:1034C00002D1AC230122E254404603B0F0BCBB461B
:1034D000B246A946A046F0BD0123D6E780221201DC
:1034E000934203DA954203DA0023CEE70023CCE7C8
:1034F0000123CAE700F8FFFF3907000000007A4304
:1035000070B50D0014000D4A1368C31A0C490B6006
:1035100010600C492868FFF7DBFE20600A496868E4
:10352000FFF7D6FE60600949A868FFF7D1FEA060EA
:10353000E8680749FFF7CCFEE06070BDAC290020C9
:10354000D8230020E4290020A02A0020782B002086
:10355000342C002010B50011084A1378991C084C2F
:1035600060540133DBB213703D2B01D8002010BD35
:10357000130000221A700120F9E7C0467B2F0020BB
:10358000D01D002010B5444B1860444B1B68984276
:103590001ED2C31A013BFA22920093421CD200238E
:1035A000002B26D03E4B1B78002B1BD13D4B1B78AC
:1035B000002B65D10B68C93B3B4A934234D93B4B46
:1035C0001960384B01221A70394B00221A7010E032
:1035D000984205D9C31ADEE7304B18600123DFE7B4
:1035E0000023DDE7314B1B681868FFF7B3FF0028A5
:1035F00000D110BD2F4BA5221A702D4A12785A7097
:103600002D4802F031FA002805D10023244A137016
:10361000244A1370EDE74022264900200AF030FBCF
:1036200000200AF04BFBF0E74B68C93B1E4A93426F
:1036300008D904311D4B196001231A4A13701C4A22
:103640001370D6E78B68C93B174A934209D90831F2
:10365000164B1960134B01221A70154B01321A7068
:10366000C7E7CB68C93B104A9342C2D90C310F4B14
:1036700019600C4B01221A700D4B02321A70B8E718
:103680000A4B1B681B68C93B074A9342B1D8044BDD
:1036900001221A70ADE7C046442F0020BC2900204B
:1036A000732F0020792F00206D0E0000082E0020BF
:1036B0008E2F0020D01D00208813000010B507F0C9
:1036C00079F9041C0B4907F0D7F9002806D00949FD
:1036D000201C07F06AF9041C201C10BD0021201CCE
:1036E00007F0B4F90028F7D00249201C07F062F96E
:1036F000041CF1E70000B44310B50449FFF7DEFFF6
:1037000007F0E6F92D2105F035FE10BD0000B441AB
:10371000F8B5CE46474680B581460E0000231CE032
:1037200031680020FFF7CAFF051C71682948FFF7C0
:10373000C5FF071C011C281C07F09EF900282FD08C
:10374000291C484607F090F900283FD1391C48460B
:1037500007F07CF900283BD12300072B2ED85C1CF6
:10376000E4B2072B2CD0002BDAD01D009B00F158BF
:10377000194FD859FFF7A2FF8046A300F158D85936
:10378000FFF79CFF071C4946404607F065F90028F3
:10379000E2D04946381C07F06FF90028DCD010E071
:1037A000291C484607F060F90028D5D0391C484646
:1037B00007F04CF90028CFD0002502E0002500E0FA
:1037C00007252800C0BCB946B046F8BD0025F8E77B
:1037D0000025F6E70000344270F3001070B5CD1AF2
:1037E000801A07F053F9041C280007F04FF9211C38
:1037F00007F0C4F9114907F0F8F807F0A3F9104AE7
:10380000104B06F038F806F019F9041C002107F0F7
:103810001DF900280BD10C49201C07F025F90028C0
:103820000AD00949201C07F0C0F8041C04E006492E
:10383000201C07F0BFF8041C201C70BD000034439E
:10384000182D4454FB2109400000B443F8B50C0086
:1038500017001E0007F01AF9051C380007F016F9CA
:10386000011C281C07F0A1F8051C200007F00EF928
:10387000041C300007F00AF9011C201C07F095F821
:10388000041C291C281C07F0B0F8051C211C201C56
:1038900007F0ABF8011C281C07F08CF807F05CF966
:1038A000F8BD0000F8B50F00160007F04BF90B4A01
:1038B0000B4B05F0FEFF06F0C1F807F043F90400DA
:1038C0000D0006F0D1F806F0B9F8386020002900A4
:1038D00006F0E0F806F0B2F83060F8BD399D52A26B
:1038E00046DF913FF0B5DE4657464E464546E0B5C9
:1038F00085B08046019116001F001100FFF708FFF8
:103900000400451C072800D188E0AD00464B9B46CB
:103910007159E858FFF7D2FE8246A3009946F15844
:103920005B464A46D058FFF7C9FE80231B06C618DF
:10393000311C5046FFF7C2FE8246311C4046FFF75D
:10394000BDFE514607F03BF8061C011CFE20800519
:1039500007F02BF880467859311C07F046F8051C13
:103960004B46F858414607F040F8011C281C07F068
:1039700021F8051C2D49301C07F037F8061C6300A0
:103980001C192001001B07F081F8011C301C07F0F6
:1039900011F800230393029302AA03A9FFF782FF01
:1039A0000199281C07F021F8051C039907F01DF860
:1039B000041C0390291C029807F017F802908A2132
:1039C000C905201C06F0F6FF07F060F907F080F843
:1039D000002825DB80235B01984200DB144807F0B8
:1039E00055F80E9B18608A21C905029806F0E2FF7F
:1039F00007F04CF907F06CF8002813DB80235B011B
:103A0000984200DB0A4807F041F80F9B186005B0A8
:103A1000F0BCBB46B246A946A046F0BD002574E7FF
:103A20000020DEE70020F0E770F3001000003442D1
:103A3000FF0F0000F8B507000E00002409E0A50004
:103A4000795975198A20C00506F0B9FF286001343C
:103A5000E4B2072CF3D9F8BD30B51A481A4B1A0056
:103A60005C32010031CA31C131CA31C111CA11C140
:103A700016481A007C32010031CA31C131CA31C145
:103A800011CA11C1124AD9681160124A59691160EC
:103A9000114A19691160114A9969116010481A0098
:103AA0001C32010031CA31C131CA31C111CA11C140
:103AB0000C493C330A0013CB13C213CB13C203CB04
:103AC00003C230BDCC110020981500200C1200203C
:103AD000301E0020581E0020341E00205C1E0020D6
:103AE000101E0020381E002010B5094B1B68094A23
:103AF00012680949096809480068FCF7BFFF0849CE
:103B00000848FCF7C5FF08490848FCF7D3FF10BD7B
:103B10005C1E0020581E0020341E0020301E002095
:103B20000C120020CC110020381E0020101E002096
:103B300010B504490448FFF77DFF04490448FFF726
:103B400079FF10BDEC110020CC1100202C120020B8
:103B50000C12002010B50C4B00221A8020320021DC
:103B60000A4807F03DF920220021094807F038F9FA
:103B700020220021074807F033F9202200210648BF
:103B800007F02EF910BDC046682F0020CC11002090
:103B90000C120020101E0020381E0020F0B5DE465A
:103BA00057464E464546E0B585B004004E4B9B4611
:103BB0004E4E1B68326841680068FFF70FFE804672
:103BC0004B4D4C4F2B683A68E168A068FFF706FE42
:103BD00082460290434601934046FFF78DFD8146A1
:103BE0005046FFF789FD03905B461B6832686168A9
:103BF0002068FFF72BFE82462B683A68E168A068D0
:103C0000FFF724FE8046019806F09CFF00223A4B05
:103C100006F052F805F012FF041CFE21890506F09B
:103C200015FF002805D13549201C06F025FF002886
:103C30001AD04B469B00324A9858514606F006FF70
:103C4000002811D02F49504606F016FF00280BD04F
:103C50004B469A002A4B5146D15001224B469A407E
:103C600029490B8813430B80029806F06BFF002252
:103C7000214B06F021F805F0E1FE041CFE21890528
:103C800006F0E4FE002805D11C49201C06F0F4FED5
:103C9000002819D0039CA3001C4A9858414606F0FE
:103CA000D5FE002810D01749404606F0E5FE002852
:103CB0000AD0A200154B4146D15008340122A2403F
:103CC00011490B8813430B800F4B1888104B9C46EF
:103CD000604443425841C0B205B0F0BCBB46B24656
:103CE000A946A046F0BDC046341E0020301E00206C
:103CF0005C1E0020581E002000804640000030421C
:103D0000CC1100200000FA42682F00200C12002085
:103D10000100FFFF064B02681A60064B42681A60FA
:103D2000054B82681A60C268044B1A607047C0462F
:103D3000301E0020341E0020581E00205C1E002073
:103D4000F0B5D646474680B583B004003D4B9A4651
:103D50003D4D1B682A6841680068FFF73FFD8046BB
:103D60003A4F3B4E3B683268E168A068FFF736FD8A
:103D7000019053461B682A6861682068FFF766FD5A
:103D8000051C3B683268E168A068FFF75FFD041C12
:103D90003049281C06F070FE00280BD12D49201C4C
:103DA00006F06AFE002828D1002003B0C0BCBA4645
:103DB000B046F0BD4046FFF79FFC041E10D12649D7
:103DC000404606F051FE002806D02449404606F041
:103DD000ECFD234B18600BE0214B42461A6007E0D4
:103DE0008600204BF158404606F0DFFD1C4B9851F1
:103DF000A4001D4BE5500120D7E7019E301CFFF7C2
:103E00007BFC051E10D11449301C06F02DFE002845
:103E100006D01249301C06F0C8FD144B18600BE0A8
:103E2000124B019A1A6007E087000E4BF95801986F
:103E300006F0BBFD0D4BD851AD000D4BEC500120F1
:103E4000B3E7C046341E0020301E00205C1E002058
:103E5000581E00200000FA4200809D430000B44339
:103E6000101E002070F30010CC110020381E00201E
:103E70000C120020F0B5DE4657464E464546E0B5EA
:103E800087B004000D002B4B9B462B4B98465B469E
:103E90001B684246126841680068FFF79FFC824633
:103EA000264F274E3B683268E168A068FFF796FC12
:103EB00081465B461B684246126861682068FFF7CE
:103EC000C5FC80463B683268E168A068FFF7BEFC2D
:103ED000041C0023059304930393029304AB019302
:103EE00005AB0093174B184A41465046FFF7FAFCC2
:103EF00002AB019303AB0093144B154A211C4846B7
:103F0000FFF7F0FC059806F0E3FD2860039806F043
:103F1000DFFDA860049806F0DBFD6860029806F0FB
:103F2000D7FDE86007B0F0BCBB46B246A946A04644
:103F3000F0BDC046341E0020301E00205C1E002054
:103F4000581E0020EC110020101E00202C12002012
:103F5000381E00200023044A1360044A1360044AF8
:103F60001360044A13607047C81C0020CC1C00205A
:103F7000C81D0020CC1D002010B5E1200004FCF776
:103F800075FFFCF76DFFFFF7E5FD0023034A137093
:103F9000034A1370034B01221A7010BD6C2F0020CE
:103FA0006E2F00206D2F002010B50B4C20600B48A9
:103FB00001600B490A600B4C2360FFF74DFDFFF7D2
:103FC000B7FD23685A7830231340302B00D010BD42
:103FD000FFF7D2FFFBE7C0464C1A0020501A002022
:103FE000481A00209417002010B5FCF7BBFFFCF71F
:103FF00037FF094B00221A70FE208005FCF789FA72
:10400000C82003F0B1F90020FCF783FAFFF76CFD3C
:10401000FFF78EFD10BDC0466D2F002010B5FCF7D8
:10402000A1FFFCF71DFF0B4B00221A70FE2080053C
:10403000FCF76FFAC82003F097F90020FCF769FA43
:10404000FFF752FDFCF7B6FCC82003F08DF9FFF72F
:104050006FFD10BD6D2F002010B5024B1868FFF7E3
:104060006FFE10BD4C1A002010B5134B1B78002BAF
:104070000CD1124B1868FFF74DFE0F4B01221A703E
:104080000F4B1B689B789B0713D410BD0B4B186814
:10409000FFF784FD0028F3D00A4B1B78002BEFD1EB
:1040A000084B01221A700848FCF7E0FEFCF7D8FE26
:1040B000E6E7FFF7B3FFE8E76E2F00204C1A002079
:1040C000941700206C2F00200080008070B5C4176A
:1040D00080252D010026A8427441E4B20B4D4519FC
:1040E000EE17AD1975401E78A64203D01C701560FE
:1040F000086070BD1368AB4202DA15600860F8E72B
:1041000080231B019842F4D10B60F2E700F8FFFF17
:1041100070B50400274B1860274B1B68984207D2E4
:10412000C31A013BC72B07D80023002B0AD170BD4F
:10413000984205D9C31AF5E71F4B1C600123F4E729
:104140000023F2E71D4B1868FCF7A9F91C4B1B78FC
:10415000002B02D0FFF788FFE9E71A4E174B1868CB
:104160003100FFF787FE184D2A6831002000FFF765
:10417000C7F92B68154C1868154B164A2168FFF7CC
:10418000A5FF2B68216808319868134B134AFFF785
:104190009DFF2B682268111D5868114B114AFFF7CB
:1041A00095FF2B6821680C31D8680F4B0F4AFFF739
:1041B0008DFFBCE7482F0020C02900204C1A0020AA
:1041C0006D2F0020F02C0020481A0020501A0020EB
:1041D000802F0020C81C0020812F0020C81D002037
:1041E000882F0020CC1C0020892F0020CC1D00200F
:1041F00070B504000D00394B1860394B1B689842AC
:104200002CD2C31A013BFA22920193422AD20023F4
:10421000002B0CD0AB780422110019401A4227D091
:10422000304B1B78002B23D12E4B033A1A70AB78FE
:10423000DB08012253400122110019402A48046082
:104240001A423BD1294B1B689C423BD2E31A013BEB
:10425000274A93423AD800293CD170BD984205D9EB
:10426000C31AD0E71E4B1C600123D1E70023CFE720
:104270000029DCD11B4B1B78012BD8D11D4A1378A8
:1042800001214B40DBB21370164A00211170002B44
:1042900011D00620FCF702FE00210520FCF7FEFDF0
:1042A00000210320FCF7FAFD00210420FCF7F6FDB5
:1042B000FCF7D6FDBBE7FCF755FEF9E70B4B1C609E
:1042C0000021C8E79C42C6D9E31AC1E7074B1C602E
:1042D0000121C0E7FCF729FFBFE7C0465C2F0020A3
:1042E000D42900208A2F00204C2F0020C429002030
:1042F000BFC62D008C2F0020014B18787047C04698
:104300008B2F0020F8B5DE4657464E464546E0B5B1
:1043100004000D00CF4B21221A70086806F0B6FB8E
:10432000CD4906F062FBCD4906F044FB8246686841
:1043300006F0ACFBC84906F058FBC84906F03AFB4A
:104340008146A86806F0A2FBC34906F04EFBC349AC
:1043500006F030FB8046E86806F098FBBE4906F0A0
:1043600044FBBE4906F026FB071C2278D206D20F7A
:10437000BB4B01218C461978604681430A431A7071
:1043800022789206D20F5200187802218843024305
:104390001A7022785206D20F92001E7804208643AB
:1043A00032431A702278D209D20093461A78063125
:1043B0008A435E4632431A706278D206D60F3100C5
:1043C0005E786246964332000E0016435E70627855
:1043D0009207D20FD2005E7808218E4332435A7082
:1043E00062781207D20F92005E78864332435A7089
:1043F00066787607F60F7000D2B206398A43024318
:104400005A700021504606F021FB00280AD1954938
:10441000504606F031FB002818D1504606F08AFBC2
:10442000C0B200E000208E4B98700021484606F094
:104430000DFB00280CD18B49484606F01DFB0028D7
:104440001AD1484606F076FBC0B202E0FF20EAE748
:104450000020834BD8700021404606F0F7FA002870
:104460000CD18049404606F007FB00281AD140468F
:1044700006F060FBC0B202E0FF20EAE70020784BC4
:1044800018710021381C06F0E1FA00280CD175499A
:10449000381C06F0F1FA002836D1381C06F04AFB29
:1044A000C0B202E0FF20EAE700206D4B587122788D
:1044B0009207D20F92011978402081430A431A7063
:1044C0002278D207110E18787F2202400A431A7010
:1044D00022785207D20F12011978102081430A4323
:1044E0001A7022781207D20F5201197810308143C6
:1044F0000A431A705C4AA4235B00D35C052B05D8E1
:104500009B005A4AD3589F46FF20CEE76378022289
:10451000110019401A4200D0FF21514B9971637864
:104520000822110019401A4200D0FF214C4BD971CA
:104530004F4B1B78002B00D084E0464B14225A705E
:10454000103A9A72DA741A77494B033A1A70252294
:1045500040490020FDF7BEFBFFF7FCFCF0BCBB466A
:10456000B246A946A046F8BD6278D30712D53E49A7
:10457000A5235B00CB5C92070ED4DBB2384A937163
:1045800063780822110019401A4200D0FF21344BF1
:10459000D971CDE70023EEE7FF23EFE76278D30779
:1045A00012D53149A5235B00CB5C12070ED4DBB2D8
:1045B0002B4AD37163780222110019401A4200D0AD
:1045C000FF21274B9971B3E70023EEE7FF23EFE7C5
:1045D00063780222110019401A4200D0FF21204BBB
:1045E000997163780822110019401A4200D0FF2106
:1045F0001B4BD9716378DB079AD5194B1A780121C7
:104600000A431A70FF229A71DA715A7808210A4314
:104610005A70D2B204210A435A7089E76378DB07E3
:10462000DB0F0F4A1E437600537802218B431E4353
:1046300056707DE72B691B11094A93716B691B1139
:10464000D37175E7034808220549023006F0CEFB16
:104650007DE7C046DC24002082E2473D0000E041C7
:104660003825002000007F439815002090F30010AB
:10467000752F0020F0B5DE4657464E464546E0B55C
:1046800091B006008B4690461D001A9C1022002116
:1046900008A806F0A5FB80235B020893F8235B02C1
:1046A00009938023DB020A93C0231B030A93102281
:1046B00008A904A806F09AFB42461332059B03930F
:1046C000494B03990B404146C9010B431203134365
:1046D0000593079A0392D200D2088021C9050A43A4
:1046E0000792424A13400B4305930CAB99461022A4
:1046F00004A9180006F07AFB22004B4683CB83C244
:104700001B681360280001F0E7FC394B9E4266D01D
:104710000721280001F0AEFC0023009301332A009A
:104720005946300007F0AEFB324BE2681340EA0313
:104730001343E360304A13402B4380225203134358
:10474000E3602E4B626813402A0613436360052022
:1047500003F0D0FB2A4904F035FE06F092F98246B8
:1047600006F0E8F983B29946002B3AD0180006F01B
:1047700088F9011C504606F018F98721C90506F092
:1047800034F906F0D7F9C0B200024B461B041843B7
:1047900020601C4BE2681340AD021D43E5601A4ADD
:1047A000A3681A4081231B041343A360174A1340D4
:1047B000174A1343A360230042465946300007F0CE
:1047C000B3FB3268012359468B409A43134333604D
:1047D00011B0F0BCBB46B246A946A046F0BD0621CA
:1047E00097E70020D0E7C0467F00FEFFFFFFFF9F56
:1047F00000002050FF7FF0FFE0FF0FFCFFFFFFE015
:1048000000093D00FF83FFFFFFFF0AFEFFFFF5C128
:104810000000021070B582B0104B1B6B9B0701D4D7
:1048200002B070BD0D4C022323630D4B1E6823683C
:104830000125AB43236000230093013309220021AB
:10484000200007F01FFB074B32000021200007F07B
:104850006BFB2368AB432B432360E1E70000305040
:10486000EC1A0020D41A00200B4B5B68DB03FBD44E
:10487000094B902212051A61074B5B68DB03FBD4DE
:10488000054B00221A61044B5B68DB03FBD4024B2F
:10489000C02292041A61704700003050254B5B68BB
:1048A000DB03FBD4234B00221A61224B5B68DB0342
:1048B000FBD4204B802212061A611E4B5B68DB037F
:1048C000FBD41C4B802212061A611A4B5B68DB0377
:1048D000FBD4184B802212061A61164B5B68DB036F
:1048E000FBD4144B802212061A61124B5B68DB0367
:1048F000FBD4104B802212061A610E4B5B68DB035F
:10490000FBD40C4B00221A610A4B5B68DB03FBD41F
:10491000084B00221A61074B5B68DB03FBD4054B95
:1049200000221A61034B5B68DB03FBD4014B0022BE
:104930001A6170470000305010B5254B1A781206E6
:10494000244B5B68DB03FBD4224B1A61204B5A7863
:104950001206204B5B68DB03FBD41E4B1A611C4B19
:104960009A7812061B4B5B68DB03FBD4194B1A6168
:10497000174BDA781206174B5B68DB03FBD4154B39
:104980001A61134B1A791206124B5B68DB03FBD4D6
:10499000104B1A610E4B5A7912060E4B5B68DB0303
:1049A000FBD40C4B1A610A4B9A791206094B5B68CF
:1049B000DB03FBD4074B1A61054BDA791206054B72
:1049C0005B68DB03FBD4034B1A61FFF7C3FA10BD2E
:1049D000501200200000305070B582B00D4B1E68A0
:1049E0000D4C23680125AB43236000230093013362
:1049F00009220021200007F045FA084B320000216F
:104A0000200007F091FA2368AB432B43236002B0E8
:104A100070BDC046EC1A002000003050D41A0020AF
:104A200010B50A4B1B6BDB070ED50123084A137028
:104A3000064A1363282201E0C0461A00531E9BB2A7
:104A4000002AF9D109F040FF10BDC04600003050E7
:104A5000762F0020F0B5D6464F464646C0B582B008
:104A60000D001400D14B1B78002B3CD1962002F096
:104A70007BFCCF4ECF49300007F0E8F9CE4F3860CD
:104A8000CE4D09232B60CE4C0133236080239B0144
:104A9000CC4A1A43802149001160CB4A134380223B
:104AA00092001A60C949286801F036FCC84920689C
:104AB00001F032FC3A68C74B009309230021300013
:104AC000FFF7D8FD2868012101F016FC20680121BC
:104AD00001F012FCB54B01221A7002B0E0BCBA46DC
:104AE000B146A846F0BDBC4A1278D1B2BB4E306088
:104AF000002A00D09CE0BA4A1268904200D39BE0A2
:104B0000821A013AB74EB24200D99AE0002900D089
:104B10009BE0B54B1B78B54A1278934208D0B34A54
:104B20001370002B00D196E0FE208005FBF7F1FC0E
:104B3000A94B00221A70AE4B5978803A0A435A703A
:104B40002A78D106C90F18780126B043014319709D
:104B50009106C90F480019780136B1430143197015
:104B60005106C90F880019780236B1430143197004
:104B7000D209D200C9B2082081430A431A706A7868
:104B8000D106C90F080119781027B94301431970DC
:104B90009107C90F880159783C36B14301435970D8
:104BA0001107C90F48015978203EB143014359709C
:104BB0005207D60F31015A78BA430A435A70206817
:104BC00005F064FF8B4905F010FF8B4905F0F2FEFC
:104BD0008246606805F05AFF864905F006FF86495F
:104BE00005F0E8FE8146A06805F050FF814905F018
:104BF000FCFE814905F0DEFE8046E06805F046FFD8
:104C00007C4905F0F2FE7C4905F0D4FE071C00212A
:104C1000504605F01BFF00281FD17849504605F08B
:104C20002BFF00282DD1504605F084FFC0B215E0BF
:104C30006B4B1860002169E7904200D866E7821A42
:104C400060E7674A1060190060E7FFF7C5FE64205F
:104C500002F08AFB41E7002068E70020644B98706F
:104C60000021484605F0F2FE00280CD16349484671
:104C700005F002FF00281AD1484605F05BFFC0B2DC
:104C800002E0FF20EAE70020594BD870002140469F
:104C900005F0DCFE00280CD15849404605F0ECFE3A
:104CA00000281AD1404605F045FFC0B202E0FF20BF
:104CB000EAE700204E4B18710021381C05F0C6FEB3
:104CC00000280CD14D49381C05F0D6FE002832D101
:104CD000381C05F02FFFC0B202E0FF20EAE70020F9
:104CE000434B58712A789107C90F880059780427D7
:104CF000B943014359705107C90F5878033FB8436E
:104D0000014359701107C90F480059780137B94359
:104D100001435970D207120FC9B2082081430A43D8
:104D20005A70374AA4235B00D35C052B05D89B003F
:104D3000344AD3589F46FF20D2E76B7802221100F5
:104D400019401A4200D0FF21294A9171082211000E
:104D500019401A4200D0FF21254BD971BDE66B786E
:104D6000DA0704D52649A52252008A5C00E0002219
:104D7000990701D4D2B200E0FF221D498A710822AE
:104D8000110019401A4200D0FF21194BD971A4E635
:104D90006B78DA0704D51A49A52252008A5C00E034
:104DA0000022190730D4D2B22FE0C046782F00205D
:104DB00000003050C0F30010EC1A0020E41A00206C
:104DC000E81A00202C01305038013050214A0010E0
:104DD00015480010D41A0020762F0020502F0020F4
:104DE000C82900203F9C0000772F0020872F00203B
:104DF0005012002082E2473D0000E04100007F4366
:104E000098150020A8F30010FF222249CA7102223F
:104E1000110019401A4200D0FF211E4B99715CE627
:104E20006B780222110019401A4200D0FF21194A62
:104E300091710822110019401A4200D0FF21154A31
:104E4000D171DB0700D448E61300127801210A4330
:104E50001A70FF229A71DA715A7840210A435A7007
:104E6000D2B220210A435A7037E66A78D207D20FAD
:104E70000849164336014B78102293431E434E7067
:104E80002BE623691B11034A937163691B11D371CC
:104E900023E6C04650120020F0B5DE4657464E4687
:104EA0004546E0B591B006008B4690461D001A9C21
:104EB0001022002108A805F093FF80235B020893CD
:104EC000F8235B0209938023DB020A93C0231B03B0
:104ED0000A93102208A904A805F088FF424613325D
:104EE000059B0393494B03990B404146C9010B4372
:104EF000120313430593079A0392D200D20880212C
:104F0000C9050A430792424A13400B4305930CAB71
:104F10009946102204A9180005F068FF22004B46AC
:104F200083CB83C21B681360280001F0D5F8394B8E
:104F30009E4266D00721280001F09CF800230093D0
:104F400001332A005946300006F09CFF324BE268DC
:104F50001340EA031343E360304A13402B4380229B
:104F600052031343E3602E4B626813402A06134337
:104F70006360052002F0BEFF2A4904F023FA05F021
:104F800080FD824605F0D6FD83B29946002B3AD0CB
:104F9000180005F076FD011C504605F006FD87213E
:104FA000C90505F022FD05F0C5FDC0B200024B4663
:104FB0001B04184320601C4BE2681340AD021D43E4
:104FC000E5601A4AA3681A4081231B041343A360B7
:104FD000174A1340174A1343A36023004246594619
:104FE000300006F0A1FF3268012359468B409A43F6
:104FF0001343336011B0F0BCBB46B246A946A0468D
:10500000F0BD062197E70020D0E7C0467F00FEFFF5
:10501000FFFFFF9F00002050FF7FF0FFE0FF0FFC2D
:10502000FFFFFFE000093D00FF83FFFFFFFF0AFED7
:10503000FFFFF5C10000021070B582B0104B1B6B72
:105040009B0701D402B070BD0D4C022323630D4BAE
:105050001E6823680125AB432360002300930133BE
:1050600009220021200006F00DFF074B320000212D
:10507000200006F059FF2368AB432B432360E1E790
:1050800000003050E81C0020D01C0020024B185CAF
:10509000C043C0B27047C046581200200B4B5B683B
:1050A000DB03FBD4094BA022D2041A61074B5B68D7
:1050B000DB03FBD4054B00221A61044B5B68DB0366
:1050C000FBD4024B00221A617047C04600003050EA
:1050D000044B1A781206044B5B68DB03FBD4024BCB
:1050E0001A617047742F00200000305010B5144B27
:1050F0001A781206134B5B68DB03FBD4114B1A6161
:105100000F4B5A7812060F4B5B68DB03FBD40D4B39
:105110001A610B4B02229A5612060A4B5B68DB039C
:10512000FBD4084B1A61064B03229A561206054B14
:105130005B68DB03FBD4034B1A61FEF70BFF10BD6A
:10514000FC1C00200000305010B50A4B1B6BDB0725
:105150000ED50123084A1370064A1363282201E082
:10516000C0461A00531E9BB2002AF9D109F05CFB1D
:1051700010BDC04600003050822F002070B582B0B4
:105180000D4B1E680D4C23680125AB4323600023A3
:105190000093013309220021200006F073FE084B22
:1051A00032000021200006F0BFFE2368AB432B43F2
:1051B000236002B070BDC046E81C002000003050E3
:1051C000D01C0020F0B5DE4657464E464546E0B5B9
:1051D00085B016007E4B1B78002B3DD1962002F047
:1051E000C3F87C4E7C49300006F030FE7B4F3860BF
:1051F0007B4D09232B607B4C0133236080239B0173
:10520000794A1A43802149001160784A1343802269
:1052100092001A607649286801F07EF87549206886
:1052200001F07AF83A68744B0093092300213000AA
:10523000FFF732FE2868012101F05EF820680121A5
:1052400001F05AF8624B01221A7005B0F0BCBB465F
:10525000B246A946A046F0BD684A1278D4B2684D5D
:105260002860002A00D09DE0664A1268904200D370
:105270009CE0821A013A644DAA4200D99BE0002CBE
:1052800000D09CE05D4B00221A700D78EB06DB0F1E
:105290005E4CDA0120787F23034013432370AB0672
:1052A000DB0F012291469A01237840208343134368
:1052B00023706B06DB0FDA0063783838804683434F
:1052C00013436370EA099200DBB2043883468343D8
:1052D000134363704B78D907890F6278023882468E
:1052E00082430A4362705A07D20F6178484681436D
:1052F0000A436270DA06D20F110122781027BA43EE
:105300000A4322709A06D20F5001627820218A4304
:10531000024362701A07D20F10016278BA43024347
:1053200062709B07DB0F5B0122788A431343237073
:10533000A43730687843364904F01CF85A3805F031
:10534000A5FB039070687843314904F013F85A388C
:1053500005F09CFB061C039805F0BAFBA070301CFE
:1053600005F0B6FBE070AB07DB0F9A0023785946D7
:105370008B43134323706B07DB0F5A00237851468E
:105380008B43134323702B07DB0F227849468A4354
:1053900013432370ED072D0FDBB2424693431D43A9
:1053A000257052E7174B1860002468E7904200D838
:1053B00065E7821A5FE7134A10601C005FE7154833
:1053C00005F07AFEFFF7DAFE642001F0CDFF3CE73E
:1053D000832F002000003050F8F30010E81C00205C
:1053E000E01C0020E41C00202C013050380130501B
:1053F0004951001039500010D01C0020822F00208D
:10540000542F0020CC2900203F9C0000FC1C0020D1
:10541000FF0F0000F0F3001070B5184B1B6BDB079B
:1054200000D470BD154B01221A63154C154D21682F
:10543000286806F0EBFD28682168134B1B681F24C1
:105440001C404A005218D300C318D8331C604A00CD
:105450005218D300C318CC331B68002BF7DB0B4B5F
:105460001D6842680C0010340123A3401342F8D198
:10547000043189000D50FEF76DFDD2E70000305079
:10548000F81C0020F41C0020F01C00205813002001
:10549000F0B5C64600B58CB0A04DA1482860A14F1C
:1054A00009233B60A04E00233360A04906F0CEFCE8
:1054B0009F4C20609F4A80239B011343802252000F
:1054C0001A6038689C4900F027FF2D683668276805
:1054D0001022002108A805F083FC80235B020893BA
:1054E000F8235B0209938023DB020A93C0231B038A
:1054F0000A93102208A904A805F078FC3A000B32A0
:10550000059B03938D4B03990B40F9010B43120349
:1055100013430593102204A908A805F067FC09208D
:1055200000F0DAFD0A2000F0D7FD854B9D4200D146
:10553000EBE007242100092000F09CFD21000A2057
:1055400000F098FD0B9B03937E4B039A13400922B6
:105550001A4380235B0313430B937B4A1340A0221F
:10556000D20213430B93052002F0C4FC774903F0E9
:1055700029FF05F086FA804605F0DCFA84B2002C9B
:1055800000D1C4E0200005F07CFA011C404605F083
:105590000CFA8721C90505F028FA05F0CBFAC0B24C
:1055A00000022404044308940124009401230922E6
:1055B0003100280006F066FC0023009301330A2224
:1055C0003100280006F05EFC0A9B0393604A1A40F3
:1055D00080239B0513430A9308AB3A00310028004F
:1055E00006F0A2FC2B68B440A3431C432C604B4B39
:1055F0001D684D4B1E6801364D4B1F68102200215F
:1056000008A805F0EDFB80235B020893F8235B02FA
:1056100009938023DB020A93C0231B030A93102201
:1056200008A904A805F0E2FB3A000B32059B03939E
:10563000424B03990B40F9010B43120313430593AB
:10564000102204A908A805F0D1FB0B2000F044FDAE
:105650003B4B9D425DD007210B2000F00BFD0B9BC7
:105660000393394A1A40B023DB0213430B930520FE
:1056700002F040FC354903F0A5FE05F002FA804631
:1056800005F058FA84B2002C45D0200005F0F9F955
:10569000011C404605F089F98721C90505F0A5F9E7
:1056A00005F048FAC0B20002240404430894002321
:1056B000009301330B223100280006F0E3FB3A008F
:1056C000083208AB3100280006F02EFC2A680123BE
:1056D000B3409A4313432B60104B1C68124B18685D
:1056E00062680100103101238B401342F8D104306D
:1056F000800001235B4203510A4B1868012100F02E
:10570000FBFD0CB080BCB846F0BD062412E70020BB
:1057100046E70621A0E70020C5E7C046F41C0020AC
:1057200000003050EC1C0020F81C002028F4001071
:10573000F01C00202C013050195400107F00FEFF97
:1057400000002050E0FF0FFCFF7FF0FF80841E0070
:10575000FFFFF5C1F0B5C64600B516005D4B1B78DE
:10576000002B00D1AFE00B781D0901277D400122FD
:10577000904615405848ED0102787F24A446224007
:10578000154305705A097A4044462240D2014578B3
:10579000644625402A4342709A09574044463C409B
:1057A000A40102784025AA4314430470DB43DBB212
:1057B000DB099B014278AA43134343700A78D2075E
:1057C000D20F736801274548834200DC0027FFB2EF
:1057D00017430A789207D20F0125FA2080008342EE
:1057E00000DB0025EDB215430B781B07DB0F326899
:1057F00001243A48824200DC0024E4B21C430878C9
:105800004007C30F0120FA26B600B24200DB002099
:10581000C0B203437A1BE31A561E701E86412E48FF
:10582000012501242640F600B04647780826B743F4
:1058300046463E4346700132561EB2412240920017
:1058400046780427BE43324342705A1E561EB24168
:10585000224016004278033FBA43324342705A1C3A
:10586000531E9A412240520043780226B3431A4302
:1058700042704B785A096A402240520141781F37E2
:10588000B9430A4342701A096A402240120146781D
:1058900010218E43324342701A006A402240560162
:1058A0000278BA43324302709B086B4023401B01CD
:1058B000D2B28A431343037003881B04084A13605F
:1058C00080BCB846F0BDFFF7E3FD024B01221A7021
:1058D000F6E7C046842F00205C130020B80B0000C0
:1058E00058130020F8B5CE46474680B5030002782D
:1058F0009207D20F554801278478BC432243827017
:105900001A781207D20F920084780425AC43224300
:1059100082701A785207D20FD20086780824A046E7
:10592000A643324382701A78D207920F9446827847
:105930000226B2436446224382701A78D209047860
:10594000BC43224302701A785206D20F52000478E8
:10595000B443224302701A78D206D20FD200914685
:105960000478424694434A46224302701A789206CB
:10597000D20F92000478AC43224302705A78920608
:10598000D20F4478BC43224342705A78D206D20FD9
:1059900052004778B7433A4342709A789207D20F41
:1059A000120146781027BE43324342709A78D207DC
:1059B000960E42781037BA43324342705A78D20971
:1059C00096004278AA43324342705A785206D20F68
:1059D000D20045784446A5432A4342705A7852077C
:1059E000D20F920104784025AC43224302705A78CA
:1059F000D207540E8278AA43224382705A789207C3
:105A0000D20FD20185787F2425402A4382705B78AB
:105A10001B07DB0FDB0102781440234303700B8864
:105A2000C3701B0A03718B8843711B0A83710B8936
:105A3000C3711B0A03728B8943721B0A8372FCF7C2
:105A40002BFCC0BCB946B046F8BDC046402500207E
:105A5000014B18787047C046962F0020014B1870F4
:105A60007047C046962F002010B5041E0BDC0020A6
:105A700013E06420002101F04BFC01200021404292
:105A800007F0BCF9013C002008F026F9002801D1FC
:105A9000002CEEDC002C01D0012010BD0020FFF70F
:105AA000DDFF0020F9E7000010B50D4805F0D4FA3D
:105AB0000C4C40220021200005F092F9F1232370C4
:105AC000FA200001FFF7D0FF002800D110BD4022CE
:105AD0000449002008F0D4F8002008F0EFF8F5E7BA
