:020000041000EA
:1000000000B5324B212058609868022188439860DF
:10001000D860186158612E4B002199600221596106
:100020000121F02299502B49196001219960352056
:1000300000F044F80222904214D00621196600F024
:1000400034F8196E01211966002018661A6600F04E
:100050002CF8196E196E196E052000F02FF8012189
:100060000842F9D1002199601B49196000215960AB
:100070001A491B48016001219960EB211966A021F2
:10008000196600F012F800219960164914480160C1
:100090000121996001BC002800D000471248134993
:1000A000086003C880F30888084703B5996A0420EC
:1000B0000142FBD001200142F8D103BD02B5186610
:1000C0001866FFF7F2FF186E186E02BD00000240BE
:1000D000000000180000070000035F00212200005C
:1000E000F4000018222000A00001001008ED00E03C
:1000F00000000000000000000000000074B24E7A12
:1001000000200420F7010010C3010010C5010010F9
:10011000C1010010C1010010C1010010C101001097
:10012000C1010010C1010010C1010010C701001081
:10013000C1010010C1010010C9010010CB01001065
:10014000CD010010CD010010CD010010CD01001037
:10015000CD010010CD010010CD010010CD01001027
:10016000CD010010CD010010CD010010CD01001017
:10017000CD010010CD010010CD010010CD01001007
:10018000CD010010CD010010CD010010CD010010F7
:10019000CD010010CD010010CD010010CD010010E7
:1001A000CD010010CD010010CD010010CD010010D7
:1001B000CD010010CD010010CD010010CD010010C7
:1001C00000BE00BE00BE00BE00BE00BEEFF3058054
:1001D000103800BEF2EB88713C380110683801100D
:1001E0003402001090A31AE700201F49086006C8D7
:1001F00081F3088810471D48006800282FD10DA4FE
:100200000ECC002902D000F012F8F9E71849194A7B
:10021000002000E001C19142FCD1174988471749ED
:1002200088471749884700BEFDE701C901C29A42C5
:10023000FBD3704768380110C00000204015002033
:10024000E84C01100000042000000420E84C0110DC
:10025000001004200010042000000000704709482E
:100260000AF000FE0047000008ED00E0000000D0AA
:10027000601500204C2F0020ED9B0010B9040010E9
:10028000A99B00105756000006005250ABB36053B4
:10029000C82E011006005250861C0302D82E0110F1
:1002A000060052505422A29DE82E01100500525023
:1002B000DE65F468E84C0110F8B5C04610B5064C90
:1002C0002378002B07D1054B002B02D0044800E017
:1002D00000BF0123237010BD0018002000000000A3
:1002E000700A0110044B10B5002B03D003490448D9
:1002F00000E000BF10BDC046000000000418002050
:10030000700A01107047704710B5002000F04AFCD9
:10031000012000F047FC022000F044FC032000F024
:1003200041FC132000F03EFC152000F03BFC1220A5
:1003300000F038FC142000F035FC1C2000F032FCEA
:100340001D2000F02FFC042000F02CFC052000F004
:1003500029FC10BDF0B5D6464F464646C0B5D02262
:100360001206546801231C4061424C4101210C409B
:10037000240105781026B146B5432C430470546817
:1003800064081C4065426C410C40640107782025DC
:10039000AA46AF433C4304705468A4081C4067421B
:1003A0007C410C40A40107782035AF433C430470E6
:1003B0005468E4081C4067427C41E40105787F27CB
:1003C0002F403C4304705468A40C1C4067427C419D
:1003D0000C40A40005780427BD432C4304705468E6
:1003E000240D1C4025006C426C410C40E400057853
:1003F000AC460825A84665464646B5432C430470DE
:100400005468640D1C4025006C426C410C40640033
:100410000578AC460225A84665464646B5432C43BA
:1004200004705468E40C1C4025006C426C410C4084
:1004300005789D432C430470546824091C40250012
:100440006C426C410C4045789D432C434470546889
:1004500064091C4025006C426C410C40A4004578A6
:10046000BD432C4344705468640F1C4067427C4178
:100470000C40240147784D46AF433C4344705268DA
:10048000120F13405A4253410B405B01E2B25146F6
:100490008A4313434370E0BCBA46B146A846F0BD58
:1004A00080231B01036043608360C360704710B505
:1004B00000F032F810BD000010B584B00CF0BAFEA8
:1004C000642008F07FFC11480CF078FEFFF71CFF59
:1004D00001AC0B22002120000CF034FD2000FFF7BE
:1004E00039FF63789B0609D4094B1B886A46138041
:1004F000684600F07DFA002004B010BD05480AF0FF
:10050000B1FC0300002108009847C046700A0110A2
:10051000840A01105542000010B5FA211C4A490115
:1005200001F0C5FC002820D01A4B1B681A4A12683B
:1005300093421BDA1433174A1360164B1B68002BC7
:1005400022D1FF33154A126853401B041B0C144A76
:100550001360104B1B68002B18DB1B040F4A12683A
:1005600053401B0C1B040E4A136010BD0A3B094A82
:1005700013600C4A1268934201DC064B1A60054B6B
:100580001A68054B1A60D8E70023DBE70023E4E78D
:10059000E82B0020102000200C2000205C000540EB
:1005A0005C1005401820002070B50D1CFE21890547
:1005B000281C0CF059F9002801D0FE25AD050E4B82
:1005C00018780CF05BF9291C0CF0FFF80CF0AAF974
:1005D00084B20021281C0CF047F9002803D0074BF7
:1005E00018682418A4B2064B1C60064B1B689C427A
:1005F00001DD044B1C6070BD901100201420002010
:10060000182000200C200020F0B5C64600B582B0AE
:10061000192007F08FFA182007F08CFAD0231B0658
:10062000802292045A62802252045A6204211920C4
:1006300007F04EFA0421182007F04AFA3A4F042234
:100640003A603A4B98461A60394AFF251566156696
:10065000384C2268120C1204374802601A68910064
:1006600089188A00354B9C4662441668FF210904AC
:100670007140090C090480267601324311603A6802
:10068000910089188A002A4B9C4662441768012110
:100690000B00BB433243136043461B689A00D218D9
:1006A000930063441A6891431E43316023686B4092
:1006B0001B041B0C036023681B0C1B0403609620A7
:1006C000002108F053FB6B46DC1D991D200000F053
:1006D000FBF823781A1CDBB24B2B00D94B22D2B289
:1006E000174B1A606B4606331B781A1CDBB2322B91
:1006F00000D93222D3B213490A70002B02D1104A1A
:1007000013600B70FE2189050F48FFF74DFFAF20E6
:10071000400008F057FB0020011CFFF745FF02B026
:1007200080BCB846F0BDC046502C002004270020F5
:10073000000005405C0005405C1005400C000540D1
:1007400014200020901100200000C842F0B5C646D9
:1007500000B504000A282DD00B282FD0092803D07B
:10076000002080BCB846F0BD0B270A239846200025
:1007700007F0E0F901263300A340D0252D06AB6237
:1007800000220121200007F0BBF9404607F0D2F912
:100790003300424693406B62AB61380007F0CAF900
:1007A0003300BB406B62AB616B68E3401E4209D013
:1007B0000120D6E70B2709239846D8E709270A2303
:1007C0009846D4E70020CCE710B50920FFF7BEFF1C
:1007D00010BD10B50B20FFF7B9FF10BD10B50A20F2
:1007E000FFF7B4FF10BD000030B583B001AC237833
:1007F000102293432370DAB27F2313402370DBB2BD
:10080000402293432370FFF7E9FF0125284083002E
:1008100020780422904318432070FFF7D5FF03008F
:100820002B4020780122904318432070FFF7D1FF1E
:1008300028404000257802239D4328432070C3B2FE
:10084000082213432370DBB2202293432370637882
:10085000012213436370084DFE218905281CFFF710
:10086000A3FEFA20400008F0ADFA0021281CFFF793
:100870009BFE208803B030BD0000C84270470000D6
:1008800010B512E00C4B9A6A0C4B1A600C4810F031
:100890005FF800F0A9FA094C206804F001FE206816
:1008A00002F0DCFF2068FFF702FE0649044810F062
:1008B0007FF80028E6D1ECE700400540381D002015
:1008C0000015002010210020044B2C22FF329A5CDE
:1008D00002702A22FF329B5C0B707047601600206A
:1008E00070470000014B00201856704791110020FE
:1008F00000487047301800200048704768180020F2
:1009000010B50020FFF7FFFC0020FFF7FBFC0022E2
:100910000021002009F00CF910BD000010B5284B93
:100920001B78002B2CD02749274810F041F80028CD
:100930002ED12648FFF70EFD254B1B78002B2FD11B
:1009400003F08EFA234C2068204904F0FDFD206856
:1009500001F02CFA06F0C2FA002825D01D4C2068C0
:100960001D4903F063FD206800221C4906F0E2FAED
:100970001B4B1B785BB2012B1DD009F087F810BD13
:100980000021184809F0C8F80D4B01221A70CAE777
:10099000154B9A6A0F4B1A600B480FF0D9FFC8E746
:1009A0000A48FFF79DFFCBE70A4B18680B4A0F492F
:1009B00000F0E8FADCE7074B186801F02BFADCE7F7
:1009C0003A2F00200C21002000150020681800207C
:1009D0000C2F0020381D0020301800205018002057
:1009E0009111002088130000004005407418002079
:1009F00070B5041E00D1B8E001F054FAC0B201286D
:100A000035D0FFF781FC5948FFF7A4FC00F05CFAF1
:100A100000282FD0554D2B00554A5649564804F012
:100A20008FFBAB78DB062BD4FFF7EEFD02F000F96D
:100A3000012565576B1C29D00023E3565A1C01D0B1
:100A40004E4A1370494B1B789A0623D45A0632D467
:100A5000DA0632D45AB2002A31DB5A0731D40A22DC
:100A60001A40022A2FD01B0715D5022513E00223B6
:100A70002370C6E700F0D2F8C82008F0A3F9C9E750
:100A8000062200213E480CF05DFACDE73D4B0225E1
:100A90005D57D1E706253B4ABA235B00D65C0023AD
:100AA000E356013311D06421EBB2072B40D8AB00E1
:100AB000354AD3589F460125EDE70025EBE705258C
:100AC000E9E70425E7E70325E5E701F0C7F9002892
:100AD00004D12A4B02221A704621E5E7642001F076
:100AE000A1F9264B01221A706421DDE7274C300062
:100AF00001F0DEF80121200001F0B8F81F4B0021C1
:100B00005956280000F04EFA184B9B789B0727D4C3
:100B10001F4A1649280003F04BF80CF0A5FE1D48AB
:100B20000CF090FEFFF7FAFEFCE7FF242406DEE758
:100B3000194CDCE7FF242402D9E7104B00221A707D
:100B4000FF2424041921D2E70C4B00221A70134C05
:100B50000F21CCE7094B00221A70114C1921C6E76E
:100B6000084B9D7000F08EF9D2E770BD6818002028
:100B7000301800205018002040180020911100204B
:100B80008C17002060160020880A011000F115FF64
:100B9000741800208108001000A1A1A100FF6100CD
:100BA0000000FFE610B5040006F0C4FF002201219A
:100BB000200006F0A5FF0123A340D0221206936275
:100BC00010BD000010B512480CF028FB002407E00F
:100BD000104B5B18D97810480CF020FB0134E4B2BC
:100BE000052C0DD80DF014F92100C0B2094A1219D4
:100BF000D070002CECD1130001229043D870E7E7AD
:100C0000044B9B221A720A200CF0A4FA10BDC046B5
:100C1000A80A011060160020B80A0110F0B5DE46DF
:100C200057464E464546E0B5E9B0CC256D002A0052
:100C3000002102A80CF086F95D4B02AA1380059BE7
:100C40000193DB0FDB078022120113430593069B00
:100C50000193DB0FDB0713430693079B0193DB0F25
:100C6000DB0713430793089B0193DB0FDB071A4352
:100C70000892504F0A97504E0B96504C0C94504887
:100C80000D9050490E91504A0F92504B109312976D
:100C90001396149415901691179218934C4B199320
:100CA0001A931B931C931D931E931F9320932193C0
:100CB000802202A98B5004328B5004328B500432B4
:100CC0008B5004328B5004328B5004328B50FF23F4
:100CD0001B049946A8230A004946D1503D4B9B4628
:100CE000AC235946D1503C4B9846B0234146D15095
:100CF000FF273F060433D750FF2636020433D65071
:100D00000433364A02A9CA50354B9A46C0230A001A
:100D10005146D15004334946D1500433D75004339F
:100D2000D65004334146D1500433D650A23B2A2238
:100D3000FF3202A98B5401328B542A4C2A00200026
:100D40000CF006F9002002F0F9FE012002F0F6FE98
:100D5000022002F0F3FE032002F0F0FE042002F075
:100D6000EDFE20009C30062200210CF0EBF8200064
:100D7000A230062200210CF0E5F8FFF723FFBC2388
:100D80005B004A46E25004335A46E250043342467E
:100D9000E2500433E7500433E65004335246E25045
:100DA00069B0F0BCBB46B246A946A046F0BDC046FD
:100DB00001A0FFFF000034420000B44200000743DE
:100DC00000003443000061430000874300809D43DE
:100DD000000016440000FF4D0000FFE600F115FF83
:100DE00000FF61006016002070B51D4CA5441D4B2E
:100DF0001B78002B03D180235B019D4470BD0CF058
:100E00004BFDEFF3108672B600230093164A0021C3
:100E100001A80CF097F8CC225200144968460CF057
:100E200097F880256D01124C290020000FF0C8FDB5
:100E30002A00694620000FF0A3FD86F310880CF00D
:100E400035FD0C4B1B78002B03D1064B00221A708A
:100E5000D1E706F0D7F8074B00221A70F5E7C04635
:100E600000F0FFFF312F0020FC0F00006016002073
:100E700000D012003B2F0020014B01221A70704756
:100E80003B2F0020014B01221A707047312F0020A8
:100E900010B5031C4B2800D94B2303492C22FF32E9
:100EA0008B54FFF7B1FB10BD6016002010B5031C7A
:100EB000322800D9322303492A22FF328B54FFF70C
:100EC000A3FB10BD6016002010B5194CCC225200B7
:100ED000184920000CF03CF82288174B9A4209D0A0
:100EE00016480CF06BF9FFF799FE0020FFF7CAFFD8
:100EF00000201CE00E4A95235B00D35C1A1C312BAA
:100F000000D832220A4C95235B00E2542C23FF3395
:100F1000E05CFFF7BDFF2A23FF33E05CFFF7C6FF6D
:100F2000E37801229343E3709B232372012010BDD9
:100F30006016002000D0121001A00000C00A0110AD
:100F400030B50F4C40004508E068C00FC00728438B
:100F5000E060490048082169C90FC90701432161C0
:100F6000520051086269D20FD2070A4362615B00E6
:100F70005A08A369DB0FDB071343A36130BDC046EA
:100F80006016002010B5034B1B68002B00D098475B
:100F900010BDC0461C1B0020014B00201856704796
:100FA000182F002010B588B00400234B18700B22B6
:100FB000002105A80BF0C6FF1022002101A80BF0AC
:100FC000C1FFE3B2062B03D8A4001C4B1B599F465C
:100FD0001B4B1C4A1A60002001F014F808B010BD29
:100FE000174B184A1A60062001F00CF8F6E7144B6C
:100FF000144A1A60012001F005F8EFE7104B114A7E
:101000001A60052000F0FEFFE8E70D4B0E4A1A605B
:1010100001AA05A90020FFF7B5FFDFE7084B0B4A3F
:101020001A6001AA05A90020FFF7ACFFD6E7044B20
:10103000074A1A60D2E7C046182F0020180B01108B
:101040001C1B0020B12000102D5E001065660010F2
:10105000B16B0010F0B5C64600B590B004000D00AD
:1010600016001F0016AB1B789846494B984200D1DA
:1010700088E00721380006F02BFD012300933A0099
:10108000290020000CF0B0FF1022002108A80BF06E
:1010900059FF80235B020893F8235B0209938023A6
:1010A000DB020A93C0231B030A93102208A904A899
:1010B0000BF04EFFF31C059A039236491140F201E2
:1010C00011431B0319430591079B0393DB00DB08C6
:1010D00080229205134307932F4B1940059110224C
:1010E00004A90CA80BF034FF0F9B03932B4A1A4062
:1010F000BF0217430F974346002B45D020220E9B7B
:1011000003932749194080239B020B435206F82181
:1011100089050A4013430E939B009B088022D20549
:1011200013430E93052008F013FC1E4909F0EEFE50
:101130000BF09FFB80460BF0F5FB87B2002F25D00C
:1011400038000BF096FB011C40460BF01EFB87217C
:10115000C9050BF03AFB0BF0E5FBC0B200023F04FF
:1011600007430C970CAB3200290020000CF08EFFD7
:1011700022680123AB409A431343236010B080BC24
:10118000B846F0BD062175E71822B8E70020E5E76C
:10119000000020507F00FEFFFFFFFF9FFF83FFFF47
:1011A000FFFFF5C10050C30070B505000C000088BA
:1011B0000BF05FFB1B490BF0F2FA1B490BF005FB30
:1011C0000BF0B0FBC2B22B79A978C943C9B259431D
:1011D000090A5B1ADBB23F2528402D1AEDB25843AD
:1011E00080096B439B11DBB20818C0B2CB18DBB28D
:1011F0003F2A10D9403AD2B23F2A06D81A060B0627
:101200001B0A0002134318430AE0090600041B02EC
:101210000843184304E000061B040902184308436E
:10122000206070BD00007F4300003F43F8B5CE460C
:10123000474680B50400234B1D78002D05D10023BF
:101240000360C0BCB946B046F8BD642DF9D08778BC
:10125000E678B81963789846C0180BF00FFB1A4966
:101260000BF09DFA814628000BF003FB17490BF0A9
:1012700096FA051C011C48460BF0E6FA0028E0D15E
:101280004946281C0BF08BFA051C38000BF0F1FACC
:10129000291C0BF09AFA0BF045FBA07030000BF004
:1012A000E8FA291C0BF091FA0BF03CFBE070404689
:1012B0000BF0DFFA291C0BF088FA0BF033FB60709F
:1012C000BFE7C046B211002000007F430000C842C3
:1012D000F0B5D6464F464646C0B504000368002B1D
:1012E00035D083789846C778D819667880190BF07E
:1012F000C5FA051C40460BF0BCFA8046291C0BF0D1
:101300004EFA824638000BF0B4FA071C291C0BF089
:1013100046FA814630000BF0ACFA061C291C0BF093
:101320003EFA051C514640460BF04FFA0BF0FAFA14
:10133000A0704946381C0BF048FA0BF0F3FAE07045
:10134000291C301C0BF041FA0BF0ECFA6070E0BC89
:10135000BA46B146A846F0BD00220AE0930006490D
:101360005958064B5B68DB03FBD4044B196101320F
:10137000D2B20A2AF2D97047501F00200000205034
:10138000F8B5DE4657464E464546E0B506000D0028
:10139000141C80780BF06DFA8046F0780BF069FA37
:1013A000071C70780BF065FA061CA8780BF061FA40
:1013B0008346E8780BF05DFA824668780BF059FABC
:1013C0008146414658460BF0E0F9211C0BF0FDF92F
:1013D00041460BF0DFF9051C391C50460BF0D5F9DE
:1013E000211C0BF0F2F9391C0BF0D4F9071C311C4D
:1013F00048460BF0CAF9211C0BF0E7F9311C0BF041
:10140000C9F9061C281C0BF08DFAC5B2381C0BF06C
:1014100089FAC4B2301C0BF085FAC0B22D04000268
:10142000240628432043F0BCBB46B246A946A0464A
:10143000F8BD0000F8B52D4B1D7828000BF01EFA02
:10144000011CFE2080050BF0AAF9041C284B1B7818
:10145000002B11D02749284B0A0043CB43C243CB72
:1014600043C243CB43C203CB03C20023234A1370BE
:101470001F4A1370224A1370204B1E78B5421DD3A9
:1014800030000BF0F6F9211C0BF09FF9051C00242D
:101490000BE0A7001B49C9191648C0192A1CFFF701
:1014A0006FFF154BD8510134E4B20A2CF1D9013643
:1014B000124B1E70FFF750FF0020F8BD104B1B7839
:1014C000002B01D00020F8E70B490E4B0A0013CB8C
:1014D00013C213CB13C213CB13C203CB03C2FFF748
:1014E0003BFF074B01221A700120E6E7242F002062
:1014F0002B2F0020841F0020501F0020482F002089
:10150000B4110020B01F0020F0B5C64600B506009B
:101510000F001500984600240AE0335D9B00424608
:10152000EA50305D80002818FFF7D2FE0134E4B2A3
:10153000BC42F2D380BCB846F0BD0000031C642856
:1015400000D96423014A13707047C046B2110020CD
:10155000014B01221A7070472B2F002030B585B047
:101560001D4B1B78002B0FD100240A2C09D80CF03E
:101570004FFCFF2109F0CAFC184B19550134E4B2A5
:10158000F3E7154B01221A7000241FE0134D2B5D69
:10159000134A1078C018FF2109F090FCC9B22955F0
:1015A00002A80180FF23438083800023019301A9C7
:1015B000FFF7FAFD01A8FFF739FE0A48A300019AD8
:1015C0001A50C018FFF784FE0134E4B20A2CDDD9AA
:1015D000FFF7BEFF05B030BD2A2F0020281F0020D6
:1015E000B3110020B01F002070B5194B1B78002BE1
:1015F00012D1184B00221A70154B01321A700024B8
:101600000A2C0DD80CF004FC062109F07FFC124BCB
:1016100019550134E4B2F3E7104B1A78104B1A70E5
:10162000002410E00C4D2B5D5E339B000D4A995851
:10163000A2000D4BD1500CF0EBFB062109F066FC2B
:1016400029550134E4B20A2CECD9FFF781FF70BDB3
:101650002A2F0020122F0020341B0020252F0020CD
:10166000242F002060160020B01F002030B583B06A
:10167000050000240CE0019501A8FFF7D7FD0648FE
:10168000A300019A1A50C018FFF722FE0134E4B2F9
:101690000A2CF0D903B030BDB01F002010B50948A6
:1016A0000388094A12789B18FF2213400380074CD5
:1016B0002100FFF779FD2068FFF7D8FFFFF748FF0B
:1016C00010BDC046AC110020B3110020241F002023
:1016D00010B5104B1B78002B16D10F4B00221A703F
:1016E0000C4B01321A700C4C23785E339B000B4A72
:1016F0009858FFF7BBFF20780130062109F0DEFB88
:101700002170FFF725FF10BD054B1A78054B1A70A5
:10171000E9E7C0462A2F0020122F00206016002083
:10172000252F0020242F002010B50F4B1B78002BF5
:1017300010D10E4B1B68002B02D10C4B0C4A1A60C7
:101740000A4B1868FFF792FFFFF702FF064B0122D2
:101750001A7010BD0020FFF789FFFFF7F9FE024B5A
:1017600000221A70F5E7C046432F00207C1F00209E
:101770000000FFE610B50F4B1868FFF777FFFFF783
:10178000E7FE0D4B1B780D4A1278934204D20133C9
:10179000094A1370002010BD0023084A1370064A3E
:1017A0001370074A1370074B1A78074B1A70012001
:1017B000F1E7C046801F0020272F0020262F0020A1
:1017C000232F0020282F0020242F002070B5040094
:1017D0000D000A2803D883001F49CB589F460124D7
:1017E0001E4E1BE004241E4E18E001241D4E15E081
:1017F00001241D4E12E001241C4E0FE001241C4E5A
:101800000CE001241B4E09E001241B4E06E00124DC
:101810001A4E03E001241A4E00E01A4E002A12D09C
:101820002B00194A21003000FFF76EFE2B00174AEB
:1018300021003000FFF768FE2B00154A2100300020
:10184000FFF762FE70BD2B00104A21003000FFF749
:101850005BFEFFF77DFEF5E7340B0110B40B0110C2
:10186000A00B0110AC0B01109C0B0110A40B01107C
:10187000B00B0110BC0B0110B80B0110940B011040
:10188000980B0110A80B0110841F0020B01F00202E
:10189000501F002070B50C4B19682C220B480BF020
:1018A00057FB00240CE0A300084DED182800FFF7BB
:1018B000BDFC296800222000FFF788FF0134E4B254
:1018C0000A2CF0D970BDC046DC1F0020E01F0020AC
:1018D00010B5024B1860FFF7DDFF10BDDC1F0020C4
:1018E00010B50F4B1B78002B08D00E4B1B68052B37
:1018F0000DD80C4A13680133136010BD0A48FFF776
:10190000E7FFFFF725FE064B01221A70EDE7054BB6
:1019100000221A600448FFF7DBFFFFF719FEE8E733
:101920002A2F00206427002008170020274AC823F8
:101930005B00D35C834209D0002B03D19133FF338A
:101940000521D154214AC8235B00D0541F4AC82323
:101950005B00D25C1E4B1A701E4B1978052903D808
:101960008B001D49CB589F4615231C4A13701C4AF7
:10197000137070471523194A1370194A1370F8E74A
:101980001523164A1370164A1370F2E71523134AEB
:101990001370134A1370ECE7104B15211970930064
:1019A000D218FA2A00D9FA22D2B2D2430C4B1A70BA
:1019B000DFE70A4B152119709300D218FA2A00D9D3
:1019C000FA22D2B2D243064B1A70D2E76016002038
:1019D000B3110020292F0020600B0110242F0020BC
:1019E000252F002070B50C000AF048FF8A21C90598
:1019F0000AF0CBFE051C20000AF040FF8A21C90531
:101A00000AF0C3FE041C291C281C0AF0DEFE051C7B
:101A1000211C201C0AF0D9FE011C281C0AF0BAFE69
:101A20000AF092FFE82189050AF0CFFE041CFE218E
:101A300089050AF019FF002801D0FE24A405002121
:101A4000201C0AF0FBFE002801D1201C70BD0024E0
:101A5000FBE7000070B584B0FEF74EFF0400FEF710
:101A600047FF050041680068FFF7BCFF061CE968F6
:101A7000A868FFF7B7FF051C784B1B78002B04D133
:101A80000133764A1370764A1370227863781B020A
:101A90001343744A1288934200D1C9E02378DB06CD
:101AA00000D58DE023789B0600D591E023785B0676
:101AB00000D595E00023E356002B00DA98E0637828
:101AC000DB0600D59CE063789B0600D5A0E0227879
:101AD000D307DB0F9107C90F0B435107C90F0B4306
:101AE0001207D20F134300D09AE0227863781B02CA
:101AF00013435C4A13800121A3785A4A9278934297
:101B000000D1A7E053409B0700D593E0A378554A46
:101B100092785340DB0700D594E0A278514B9A703D
:101B2000002200210920FFF751FE002200210A2097
:101B3000FFF74CFE002200210820FFF747FE00229D
:101B400000210720FFF742FE002200210620FFF7B8
:101B50003DFE002200210320FFF738FE0022002175
:101B60000220FFF733FE002200210520FFF72EFEA2
:101B7000002200210420FFF729FEFFF7E9FC0023E3
:101B80000393394CAC33E3580293321C02A903A8E7
:101B9000FFF7F6FB010001220120FFF717FEA82343
:101BA000E35801932A1C01A903A8FFF7E9FB0100F0
:101BB00001220020FFF70AFEFFF7CEFB04B070BD44
:101BC000294ACC23D15801220920FFF7FFFD69E7FC
:101BD000254AD023D15801220A20FFF7F7FD65E7F7
:101BE000214AC823D15801220820FFF7EFFD61E701
:101BF0001D4AC423D15801220720FFF7E7FD5EE705
:101C0000194AC023D15801220620FFF7DFFD5AE709
:101C1000154AB423D15801220320FFF7D7FD56E718
:101C2000114AB023D15801220220FFF7CFFD5CE713
:101C3000002161E70C4ABC23D15801220520FFF79F
:101C4000C5FD63E7084AB823D15801220420FFF7F5
:101C5000BDFD62E7002900D191E761E72A2F00204E
:101C60002D2F0020682700206016002010B5094B9A
:101C70001970094B1978094A117015221A70084B0E
:101C80001860084B084A1A60084B01221A70FFF7C7
:101C90005FFC10BD262F0020242F0020282F0020BD
:101CA000801F00204C1F002075170010232F0020DC
:101CB00070B582B004000D00274B1B78002B0CD0B0
:101CC000264B1C700023264A1370264A1370062CDC
:101CD00014D8A400244B1B599F46244E244930009D
:101CE0000CF066F90200002300930F33002130004E
:101CF000FFF7B0F9184B01221A70E1E71D4B1E4A9D
:101D00001A601E4AC8235B00D05CFFF70FFE002D4F
:101D10001BDAFFF71DFC02B070BD164B184A1A60A3
:101D2000EFE7144B174A1A60EBE7124B164A1A609A
:101D3000E7E7104B154A1A60E3E70E4B144A1A60A6
:101D4000DFE70C4B134A1A60DBE7FF2D00DDFF25B0
:101D5000E8B2FFF7F3FBDCE72C2F0020292F00204F
:101D60002A2F00202D2F0020780B0110000020507A
:101D7000C00B0110481F0020E11800106016002061
:101D80009D1600105D15001029170010D1160010C7
:101D9000E9150010551A001010B5034B18606421A6
:101DA0000520FFF785FF10BD7C1F002010B5124AEB
:101DB000124900F07CF8002800D110BDFFF73AFB73
:101DC000002803D10E4B1B78002BF6D00D4B1B784F
:101DD000002B0AD00C4B1B6898470028EDD000233D
:101DE000084A1370094A1370E7E7094B1B68002B78
:101DF000E3D09847E1E7C046F02B00201A410000ED
:101E00002D2F0020232F00204C1F00202A2F0020E0
:101E1000481F0020704710B50020FEF774FAFEF747
:101E20006FFD10BD00B583B023280AD8C0B20538B5
:101E3000C0B27F23184001AB04221A70587003B05F
:101E400000BDAF235B00984200D9180028380A2152
:101E500009F034F8C0B21F30C0B2EAE710B502484A
:101E60000BF0ACF9012010BDD00B0110072804D8ED
:101E70008000024B9C466044016070470C80054026
:101E800010B5072802D90024200010BD8000044BA3
:101E90009C466044046800210520FFF7E7FFF3E754
:101EA0000C80054010B50520FFF7EAFF10BD10605B
:101EB0005368834205D9C31A013B8B4205D20020E7
:101EC0007047834204D2C31AF7E750600120F7E756
:101ED0000020F5E730B51860002A0BD15C68844219
:101EE0000BD9041B013C0025002D0BD1A14209D9BF
:101EF000100030BD58600020FBE7844205D2041B6F
:101F00000025F1E758600120F3E71000F1E7000039
:101F100010B5FFF741F8052801D0024810BD02486E
:101F2000FCE7C046080C0110F80C011010B50020A9
:101F30000DF0A2FC10BD000010B5102106480EF0F7
:101F400047FD002800D110BD044B01221A70024841
:101F50000EF0FEFCF7E7C04608150020382F0020E1
:101F600010B5102106480EF033FD002800D110BD39
:101F7000044B00221A7002480EF0EAFCF7E7C04654
:101F800008150020382F002070B5050010210D48DD
:101F90000EF01EFD041E09D10B4B22000B49280038
:101FA000FFF798FF051E08D1200070BD084B1C7874
:101FB000E4B204480EF0CCFCEEE7FFF7BDFF2C00C6
:101FC000F2E7C04608150020B42C0020A0860100CE
:101FD000382F0020037801330370044B1B785BB269
:101FE000052B01D0024870470248FCE7741200201C
:101FF0003C0E0110740F0110014B18607047C04671
:102000003C21002010B50400002001F021FC052C2B
:102010002BD0062C1CD0012C10D0012001F018FC74
:102020001748FFF7E9FF174B174A1A60174B184A72
:102030001A60184B1C700EF02BF810BD0120FFF732
:10204000DBFF104B144A1A60104B144A1A60F0E779
:10205000012001F0FDFB1248FFF7CEFF094B114AAA
:102060001A600A4B0A4A1A60E3E70120FFF7C4FF2F
:10207000044B0D4A1A60054B0C4A1A60D9E7C0465A
:10208000581B000038210020416D00104021002025
:102090002D1F00107412002079770010DD2600102B
:1020A000DC050000FD780010F1550010692B0010D0
:1020B00070B504000D0016000120002140420CF014
:1020C0004FFF2000FFF760FF002809D10E4B1B785F
:1020D000002B04D10D4B1B6898470B4B187070BD3B
:1020E0000B4B19680B4A2000FFF7E1FE0028F6D0E1
:1020F000FFF736FF044B1B78002BF0D0064B1B6814
:10210000310028009847EAE7392F002040210020BD
:102110003C210020F82B002038210020084B1B78A0
:102120005BB2052B07D0062B07D0012B01D0054849
:1021300070470548FCE70548FAE70548F8E7C04658
:1021400074120020F0150110840E0110600F0110B0
:10215000741C0110084B1B785BB2052B07D0062BB3
:1021600007D0012B01D0054870470548FCE705481A
:10217000FAE70548F8E7C04674120020B0150110D0
:10218000540E0110340F0110481C0110002070473C
:1021900010B5134B1B785BB2052B13D0062B18D050
:1021A000002B05D00B78002B0FD1FFF7C5FE0CE0FC
:1021B0000B78302B03D0212B01D0812B05D1FFF7D9
:1021C000BBFE02E00B78212B00D010BDFFF7B4FE60
:1021D000FBE70B78012BF8D1FFF7AEFEF5E7C04621
:1021E0007412002070B504AC25882B4C247864B29E
:1021F000012C2BD0052C12D0002C00D070BD002952
:10220000FCD1002AFAD11878102804D02A0019002D
:1022100001F06EF8F2E7981C00F0CEFDEEE7002921
:10222000ECD1002AEAD11A78112A05D0132AE5D177
:102230001A480AF0F3FFE1E75B78002B04D0184955
:102240001848FEF7B1F9D9E70021F9E70029D5D1FF
:10225000002AD3D11A78002AD0D15A78082ACDD1B1
:10226000DA78002A02D1197900290FD01B79101CC5
:102270009A4200D2181CC0B20AF0FBFA0A490AF0CE
:102280008EFA011C0748FEF78FF9B7E700210548D1
:10229000FEF78AF9B2E7C04674120020BC0D0110A7
:1022A0006666263F0000204200007F43064B1B78F5
:1022B0005BB2052B03D0062B03D1044870470448BA
:1022C000FCE70448FAE7C04674120020881C01109D
:1022D000C80E01100416011070B5EE2824D0002895
:1022E00025D080001E4BC55828000EF0F7FAC0B26A
:1022F0001F2800D91F20002327E05A1C194CA15C7D
:102300000902E25C0A434400174962520233013079
:10231000112BF2D9154A144B13CB13C211001A68B2
:102320000A609B888B8019E000200023F0E70C4BAB
:10233000196802220E480AF00BFE012007E05A1C21
:10234000EC5C5100094BCC52D3B29842F7D8013023
:102350004000C0239B001843044B1880034870BD05
:1023600098110020000E01101C180020481B0020AE
:102370004A1B002000B591B04022694600200DF0B4
:1023800009FD00200DF01CFD064B1B785BB2002BF5
:1023900001D011B000BD04480AF010FF684604F0F7
:1023A00055FEF6E774120020D40D0110F0B583B08D
:1023B00005001400012966D113785B069B0F012BE1
:1023C00058D0022B03D0002B01D000205CE06378B2
:1023D000022B24D0072B03D0012B19D0002053E06F
:1023E000227963791B021343042B03D0052B08D0F9
:1023F000002049E02433264A210028000CF0D4FEB6
:1024000042E08D33234A210028000CF0CDFE3BE052
:102410002723214A210028000CF0C6FE34E022794F
:1024200063791B021343072B30D11C4B1B785BB223
:10243000052B0FD06B469F1D194E0222310038002C
:102440000AF086FD3B883200083A210028000CF093
:10245000ABFE19E06B469F1D124E02223100380080
:102460000AF076FD3B883200083A210028000CF083
:102470009BFE09E051780C480AF0D0FE21002800AC
:102480000CF076FE00E0012003B0F0BD0020FBE779
:102490004C120020B8110020140E011074120020FC
:1024A0004C0C0110240D0110EC0D0110012815D069
:1024B000022907D000290BD1022A29D0002A29D0CD
:1024C00006207047022A1FD0002A1FD00800F8E714
:1024D000022A21D0002A21D00820F2E7022907D0C1
:1024E00000290BD1022A1FD0002A1FD00720E8E7BD
:1024F000022A15D0002A15D00320E2E7022AE0D0F4
:10250000002A15D00020DCE70120DAE70320D8E715
:102510000720D6E70520D4E70020D2E70420D0E743
:102520001000CEE70420CCE70820CAE70620C8E761
:102530000520C6E70120704710B58422002102481B
:102540000AF000FD10BDC0466025002010B5002037
:10255000FFF7F2FF10BD0000F0B5C64600B580469B
:102560000D008B795D2B24D10B79DF00FF1ABFB2F0
:102570001937BFB2974221D80C780C19002605E014
:10258000104A53700136F6B22378E4182B79B3421F
:1025900010D96378052BF7D1210040460CF00EFAD4
:1025A00000280DD0A378DA09012AE9D0054A9370F2
:1025B000E8E70027380080BCB846F0BD0027F9E7FF
:1025C0000027F7E76025002030B583B004001448E9
:1025D0004078884206D0124A92788A420CD0012074
:1025E00003B030BD0F4A002A18D09AB20E4900201D
:1025F000FFF7CEFD0120F3E70C4D9BB200932B00BB
:10260000002200210020FFF7EDFD2B00443B9978CC
:1026100040232A0020000CF045FAE1E70120DFE723
:10262000602500209121001064250020A4250020B1
:1026300010B50CF027F9002803D10023002B08D196
:1026400010BD0CF027F9002801D10123F6E7002383
:10265000F4E70B4B997800200CF060FA0028EFD1DA
:10266000074CA1780CF0F6F922004432A1784023FF
:1026700000200CF017FAA17800200CF0FFF9DFE73A
:102680006025002070B505000C000CF003F900284F
:1026900006D1812100200CF0DDF9002803D170BDA6
:1026A0000CF000F9F5E7231C402C00D940239CB224
:1026B000094E2200290030000AF04AFC351F6978D3
:1026C0002300320000200CF0EDF9697800200CF0B6
:1026D000D5F9FFF7ADFFE2E76425002010B5104BF8
:1026E0005C780CF0CFF8002806D10023002B13D023
:1026F000002C09D1002010E00CF0CCF8002801D10A
:102700000123F3E70023F1E7210000200CF006FA93
:10271000002803D1013000E0002010BD0020FCE7BC
:102720006025002010B53C22002102480AF00AFC76
:1027300010BDC046E41B002010B50020FFF7F2FFDB
:1027400010BD0000F0B583B006000F001500FEF7C5
:1027500023FC05284CD13B79DC00E41AA4B21234E6
:10276000A4B2AC4248D80023002B09D00025002D8C
:1027700044D0397879184B78212B11D0002438E0D7
:102780001A01D21A92001F4882185278002A02D0E9
:102790000133DBB2E8E71A01D11A89004518E6E7F0
:1027A000A9630B78C9183A796B1C0193AB1C009391
:1027B000032330000CF01CF9002821D0BB79012B39
:1027C00013D001232B71BB782B70AA6BD179137AAC
:1027D0001B020B43EB80A97800290AD02A00303273
:1027E000062330000CF05EF903E0FB79EB70E8E7BC
:1027F0000024200003B0F0BD0024FAE70024F8E72D
:102800000024F6E7E41B002070B582B005001D4CE3
:10281000002000280AD0002830D162788A4213D0E4
:10282000A2788A421AD0012002B070BD0401241A95
:10283000A400144A1419A2788A42ECD062788A4221
:10284000E9D00130C0B2E4E70F4A002A18D02100D5
:1028500008319AB2FFF79CFC0120E5E726003036EC
:102860009BB20093330000220021FFF7BBFCA1784C
:102870000623320028000CF015F9D5E70020D3E735
:102880000120D1E7E41B002091210010F0B5C646DD
:1028900000B582B00600150012781F231340012BEB
:1028A00000D01FE128790024002C0DD0FF24002C3B
:1028B00000D01CE12700602318001040134239D1DA
:1028C00001290BD001200EE123011B1B9B008E4F21
:1028D000DB5D9842EBD00134E4B2E5E7EA786B784F
:1028E000062B06D0062B00D005E1222A12D00020AC
:1028F000F9E0212AF6D123011F1BBF00824BDF190B
:10290000BA6B002A00D1F4E01378290030000CF0F3
:102910004BFCE8E02000FFF7C9FC02003B01DF1B95
:10292000BF00794BDF19FB88290030000CF03CFC1C
:102930000120D8E0202800D0DFE06B780B2B00D9F5
:10294000DDE09B00714AD3589F46012901D0012048
:10295000C9E0EA78A97823011B1B9B0008336A4F62
:10296000FF18A879EB791B020343181C252B00D90B
:10297000252080B2002909D0012B16D97B1C9C464A
:102980003970013880B20123984602E0BC4600232A
:102990009846009063462000FFF7F8FB030043448D
:1029A0009BB2002B05D100209DE0BC460023984639
:1029B000EFE73A00290030000CF0F6FB012092E02E
:1029C000012903D0032915D001208CE0AA79EB79E5
:1029D0001B021343062B01D9002084E02201121BA5
:1029E0009200303248498A18290030000CF0DCFB94
:1029F000012078E0EA78A97823011B1B9B00303383
:102A00004148C318AE79E87900023043051C062816
:102A100000D90625ADB2002904D0012802D91878C2
:102A2000884205D000952000FFF7DCFB01205AE02A
:102A30000133013DADB2F5E7012901D0012052E09B
:102A4000E97823011F1BBF002F4BDF197971304B31
:102A5000002B04D0200000E000BF002843D0290054
:102A600030000CF085FB01203DE0012901D0012060
:102A700039E02201171BBF00234AD2190532012376
:102A8000290030000CF090FB01202CE0012901D03E
:102A9000012028E02201171BBF001B4AD219043273
:102AA0000123290030000CF07FFB01201BE00129ED
:102AB00003D0032907D0012015E0290030000CF0D5
:102AC00057FB01200FE0A97823011F1BBF000E4B0D
:102AD000DF1939710F4B002B13D0200000E000BF2D
:102AE000012000E0002002B080BCB846F0BD00200C
:102AF000F9E70020F7E70020F5E70020F3E70020E2
:102B0000F1E70120EFE7C046E41B0020980E01101A
:102B1000000000000000000010B50301181A80003A
:102B2000104B181844780BF0ADFE002806D1002396
:102B3000002B13D0002C09D1002010E00BF0AAFECE
:102B4000002801D10123F3E70023F1E72100002051
:102B50000BF0E4FF002803D1013000E0002010BD9D
:102B60000020FCE7E41B002010B50020FFF7D4FF95
:102B700010BD0000F8B504000F0016001D00030191
:102B80001B1A9B001F4AD318597800200BF062FFD4
:102B9000002825D0002F24D02B1C242D00D924233D
:102BA0009DB2184A2301191B890051180F721B1B73
:102BB0009B000833D01801302A0031000AF0C8F910
:102BC0000135ADB20F4B2001021B920008329A185A
:102BD000001B8000181841782B0000200BF062FFCA
:102BE000F8BD2B1C252D00D925239DB22001001BEB
:102BF00080000830034B18182A0031000AF0A8F9A9
:102C0000E0E7C046E41B002010B513000A000100F5
:102C10000020FFF7AFFF10BD107003120F20184007
:102C200050700B01184350700911917070470000EB
:102C300070B5124D802424012A0021002000FFF7E6
:102C4000EBFFEA1C21002000FFF7E6FFAA1D210090
:102C50002000FFF7E1FF2A00093221002000FFF7E2
:102C6000DBFF2A000C3221002000FFF7D5FF2A00ED
:102C70000F3221002000FFF7CFFF70BDD82E0020BB
:102C800010B54022002102480AF05CF910BDC04690
:102C90007C200020014B18707047C046342F002064
:102CA000014B18737047C0467C200020014B5873BD
:102CB0007047C0467C200020074A0021535E1078F0
:102CC00006490870023399B21BB21380FF2B01DD55
:102CD000FF3911807047C046062F00207C2000205D
:102CE000024B1A78024B5A707047C046B010011060
:102CF0007C200020054B03229A734821D9731A7453
:102D0000013A5A74473919765A7670477C20002068
:102D100010B5C4B2000A002307E019000E31044ABE
:102D20005454013150540233DBB20D2BF5D910BD90
:102D30007C20002010B503007F2800D97F2080B2BE
:102D4000002B08D009F095FD044909F03EFD044927
:102D500009F020FD10BD0248FCE7C046BA6693406A
:102D60000000204210B503007F2800D97F2080B2E8
:102D7000002B08D009F07DFD044909F026FD044927
:102D800009F008FD10BD0248FCE7C046C5661341C6
:102D90000000A04210B503007F2800D97F2080B238
:102DA000002B05D009F065FD024909F0F8FC10BDC3
:102DB0000020FCE70000FE42F8B5CE46474680B54D
:102DC000C278930909D0012B54D0022B4ED14278FE
:102DD0001202037813439B0548D00478E30765D5B6
:102DE000630899464378DA00782111408846827852
:102DF000D200082515405B091D43ED00404E002719
:102E000000244378DB0601D50023984683789B078E
:102E100000D500250021381C09F008FD002803D04A
:102E20004846FFF79FFF071C0021301C09F0FEFCFD
:102E3000002803D02000FFF77DFF061C4046FFF767
:102E4000A9FF041C2800FFF7A5FF051C011C201C7E
:102E500009F0FAFC002841D00021281C09F004FDEB
:102E6000002835D10021301CFDF79EFBC0BCB946BF
:102E7000B046F8BD81780C024678330023431B0529
:102E8000F4D003789807F1D17F240C4052007E25BE
:102E90002A40CD091543F101FF220A409B081A433D
:102EA0009146730898460026371CB3E764084378B8
:102EB000DA007821114088468278D2000825154032
:102EC0005B091D43ED0000260E4F0023994698E74D
:102ED0000D49281C09F0A6FE011CC4E70021201C96
:102EE00009F0C2FC002804D10021381CFDF75CFB6E
:102EF000BCE70549201C09F095FE011CF5E7C0461A
:102F0000000020430000A0436666263F0A4B0122D2
:102F10001A7000225A7003329A70084A117AD970D6
:102F2000D179197191795971517999711179D97151
:102F3000D2781A727047C0467C20002060160020AC
:102F400010B50400FFF79CFE8120FFF7A3FE012CC3
:102F500009D0064B1C70064B19784023034A002009
:102F60000CF0B2FC10BDFFF7D1FFF4E77C2000208D
:102F7000342F002070B586B06C462A4B04332200F3
:102F800070CB70C270CB70C2022837D0032841D0FA
:102F90000023002500E00133052B10D8224AD21867
:102FA0002D32FF3214780522D21A885C8442F2D086
:102FB0001D4AD2182D32FF3210700125EBE7002D8B
:102FC00019D18120FFF76CFE184801238373164B3B
:102FD0001A7AC273DA7902749A7942745A798274CD
:102FE0001A79C274DB78037515301822694609F026
:102FF000AFFF06B070BDFDF745FFE2E78120FFF7A8
:103000004FFE0A48022383730F301022084909F04B
:103010009FFFEEE78120FFF743FE044B03229A73E4
:10302000E7E7C046B0100110601600207C200020A9
:10303000FC20002070B504000E001500FFF720FEF4
:103040002120FFF727FEFFF737FEFFF749FE20009C
:10305000FFF72CFE482C48D8A4002E4B1B599F4646
:103060008020FFF71DFE00234BE0F07A431E9841BD
:10307000C0B200F0EDFB8020FFF712FEF3E7310055
:103080000C31F07AFFF776FFEDE78020FFF708FEBE
:10309000F27A214B1A70E6E78220FFF701FEFFF774
:1030A00029FEE0E78020FFF7FBFDDCE79020FFF73B
:1030B000F7FDF27BF17A307B00F0FCF9D3E7FEF705
:1030C000AAFED0E78020FFF7EBFDCCE78320FFF7D7
:1030D000E7FD6420FFF71CFEC5E78020FFF7E0FD59
:1030E000C1E78020FFF7DCFDBDE70023AB4202D241
:1030F00001339BB2FAE78020FFF7D2FDB3E701333B
:10310000DBB21F2BFBD94023044A212100200CF005
:10311000DBFB70BD8C0F0110781200207C2000209A
:1031200070B50C00150010280DD080280FD0012894
:1031300000D070BD881CFFF73FFEA07A2A00210056
:10314000FFF778FFF5E7881CFFF736FEF1E74878D0
:10315000FFF7F6FEEDE70000094B1B780A2B07D0BE
:103160000B2B09D0064B0A221A70054B18787047B2
:10317000034B0B221A70F8E7014B0C221A70F4E78C
:103180007912002070B50500524B1B78002B04D13A
:10319000514B1B78302B0BD070BD504B1A88504BC5
:1031A00018785049FFF7BCFF4A4B00221A70F3E72A
:1031B000FFF766FD3020FFF76DFDFFF77DFDFFF7A0
:1031C0008FFD00F0EBF98378474C2373C37863736A
:1031D0000378A3734378E3730379237443796374A7
:1031E000037AA374437AE37483792375C37963758F
:1031F000837AA375C37AE37500F0D0F983782376D8
:10320000C37863760378A3764378E37603792377EC
:1032100043796377037AA377437AE377827920232C
:10322000E254C2790133E254827A0133E254C27A21
:103230000133E25400F0B2F982782423E254C278D8
:103240000133E25402780133E25442780133E2540C
:1032500002790133E25442790133E254027A0133B4
:10326000E254427A0133E25482790133E254C27962
:103270000133E254827A0133E254C27A0133E254D8
:103280002B78A3706B78E370AB782371EB78637164
:103290002B790F210B40A3716879AB791B02034393
:1032A0001B11E371EB7923722B7A19406172697AF1
:1032B000AB7A1B020B431B11A372FFF74DFFE072A9
:1032C0000A4B19784023220000200CF0FDFA01F08F
:1032D00001FF61E7352F00207812002076120020D0
:1032E000362F0020BC2000207C200020342F00201E
:1032F00010B5054B01241C70044B1870044B1A8048
:10330000044809F025FE10BD352F0020362F00207F
:1033100076120020BC20002010B5024B181809F0CE
:1033200017FE10BD7C200020502800D1B0E003D94A
:1033300060282FD0FF2010E0402800D9AAE02028E4
:1033400005D34B2924D88B00564AD3589F460028D2
:1033500003D0102800D09FE0002070479520FCE7A4
:103360000020FAE72A39504B59182D31FF310878DF
:10337000F3E704394C4B59182D31FF310878ECE74D
:103380000020EAE70020E8E76820E6E70020E4E71D
:103390000020E2E7A92979D88B00444AD3589F46F8
:1033A000FF20DAE70220D8E70120D6E72320D4E780
:1033B0000020D2E7B920D0E71A20CEE70120CCE7E1
:1033C0000020CAE74020C8E70020C6E74020C4E745
:1033D0000020C2E74020C0E70120BEE70020BCE794
:1033E0000120BAE70020B8E70120B6E70020B4E7E3
:1033F0003B20B2E73420B0E73B20AEE73420ACE717
:103400003B20AAE73420A8E73D39294B585CA4E7C4
:103410003D39274B585CA0E71A209EE71A209CE70D
:103420001A209AE75E2098E7012096E7502094E75B
:10343000FD2092E7002090E700208EE7C6208CE771
:103440000F208AE70F2088E7302086E7612084E795
:10345000AE2082E7902080E7D9207EE7D4207CE769
:1034600014207AE7542078E7412076E7152074E7A6
:10347000542072E7C72070E779206EE79C206CE744
:1034800033206AE7362068E7632066E7002064E7B8
:10349000002062E7FF2060E7FF205EE722205CE774
:1034A00003205AE7CC10011060160020FC11011017
:1034B000D82E0020F0B58BB006000F00150008A92B
:1034C0000F70487000248C70CC700A7105220E2099
:1034D000FFF722FF00941A22002101A809F032FD13
:1034E00007E03919C9B23000FFF71EFF6B461855C7
:1034F0000134A542F5DC2A0069461320FFF70CFFD2
:103500000BB0F0BDF8B50400204921480DF050FA89
:103510000028F9D01F4D2B68581C032107F0CEFC62
:103520002778627812021C4E4800401883005B180E
:103530003A43F254120AF3185A70A078E278120251
:1035400002439A70120ADA702079627912020243F9
:103550001A71120A5A71A079E279120202439A7121
:10356000120ADA71207A627A120202431A72120A7D
:103570005A72A07AE27A120202439A72120ADA723C
:10358000296003480DF0E4F9F8BDC0469C1D0020F9
:1035900010150020981D0020701D002010B509494D
:1035A00009480DF005FA0028F9D0084B1C680648B8
:1035B0000DF0CEF96000001980000019044B1818B6
:1035C00010BDC046A01D002010150020981D002031
:1035D000701D00204118CB0F5B185B108022520237
:1035E000914204DA044A914203DB18B2704703485F
:1035F000FCE70348FAE7C046FFFFFEFFFF7F00003D
:103600000080FFFF70B52848FEF7C6FB274D062255
:103610000021280009F096FCA81D0622002109F0CF
:1036200091FC234B01221A70224BFA2292011A605C
:10363000214B00221A70214E214C31002000FDF751
:103640001DF90023E25E9C3D9C23EA540223E25EC6
:103650009D23EA540423E25E9E23EA540623E25E9D
:103660009F23EA540823E25EA023EA540A23E25E81
:10367000A123EA540023F25EA223EA540223F25E5D
:10368000A323EA540423F25EA423EA540623F25E41
:10369000A523EA540823F25EA623EA540A23F25E25
:1036A000A723EA5470BDC0460000FFFFFC160020AF
:1036B0001A2F00206C1D00201B2F00205C1D0020F5
:1036C0003C1D002010B5084ABA235B00D05C0121E4
:1036D0004942FEF7EDFAFDF7CFFBFDF7D3FB034BB5
:1036E00000221A7010BDC046601600201A2F00205C
:1036F000F8B552495248FDF7C1F8524B1B78002BE0
:1037000000D160E0504C9C254D4E0023F15E605787
:10371000FFF760FF605501350223F15E6057FFF748
:1037200059FF605501350423F15E6057FFF752FFE2
:10373000605501350623F15E6057FFF74BFF60557A
:1037400001350823F15E6057FFF744FF60550135EE
:103750000A23F15E6057FFF73DFF6055A227374D02
:103760000023E95EE057FFF735FFE05501370223FC
:10377000E95EE057FFF72EFFE05501370423E95ECD
:10378000E057FFF727FFE05501370623E95EE057D2
:10379000FFF720FFE05501370823E95EE057FFF708
:1037A00019FFE05501370A23E95EE057FFF712FFE2
:1037B000E055002333732B73244A1368013B1360D5
:1037C000002B37D0F8BD1E4A0023D05E1E4B9C2133
:1037D00058540221505E9D2158540421505E9E2170
:1037E00058540621505E9F2158540821505EA02154
:1037F00058540A21515EA1229954104A0021505E6A
:10380000A22158540221505EA32158540421505E35
:10381000A42158540621505EA52158540821505E19
:10382000A62158540A21515EA7229954054BA63A65
:103830001A70C7E7FFF746FFC4E7C0465C1D0020CB
:103840003C1D00201B2F0020601600206C1D002056
:10385000014B18707047C0461C2F0020F8B5474B2D
:103860001B78002B04D1464B1B78002B03D1F8BDED
:10387000FFF73EFFFBE7FA21424AC900FEF717FBBC
:103880000028F4D0404C21004048FCF7F7FF237B90
:10389000002B03D03D4B1B7B002B09D13B4B1B7BEB
:1038A000002B67D10023394A1373374A1373DEE7BD
:1038B000364FF888364C9F23E3569BB2C01A324EDF
:1038C000F188A523E3569BB2C91A09B200B2FFF7EB
:1038D00081FE304DE8803889A023E3569BB2C01AA0
:1038E0003189A623E3569BB2C91A09B200B2FFF789
:1038F00071FE28817889A123E3569BB2C01A718991
:10390000A723E3569BB2C91A09B200B2FFF762FEC1
:10391000688138889C23E3569BB2C01A3188A22361
:10392000E3569BB2C91A09B200B2FFF753FE2880D2
:1039300078889D23E3569BB2C01A7188A323E3566F
:103940009BB2C91A09B200B2FFF744FE6880B8887A
:103950009E23E3569BB2C01AB188A423E3569BB2C0
:10396000C91A09B200B2FFF735FEA8802800FFF798
:10397000C9FD97E70548FFF7C5FD93E71A2F00201B
:103980001C2F0020002C00205C1D00203C1D00206E
:10399000601600204C1D0020C3B2052B03D8800008
:1039A0000D4B1B589F460D4B0B600833136070473F
:1039B0000B4B0B6008331360F9E70A4B0B600833BD
:1039C0001360F4E7084B0B6008331360EFE7074B15
:1039D0000B6008331360EAE7A414011038170020C5
:1039E000581700204817002068170020781700207B
:1039F00030B50F220D780F231D40047894432C43DB
:103A000004704C781C40250104781C402C43047041
:103A10008D781D40447894432C434470CC781C40EE
:103A2000250144781C402C4344700D791D40847856
:103A300094432C4384704C791C40250184781C40AD
:103A40002C4384708D791D40C47894432C43C470FA
:103A5000CC791C402501C4781C402C43C4700D7ADD
:103A60001D40047994432C4304714C7A1C40250179
:103A700004791C402C4304718D7A1D404479944391
:103A80002C434471CC7A1C40250144791C402C43C2
:103A900044710D7B1D40847994432C4384714C7B8D
:103AA0001C40250184791C402C4384718D7B1D4072
:103AB000C479944322002A43C271CA7B1A4012017E
:103AC000C1790B401343C37130BD0B781B071B0F2B
:103AD00003700B781B0943704B781B071B0F837017
:103AE0004B781B09C3708B781B071B0F03718B78F6
:103AF0001B094371CB781B071B0F8371CB781B0904
:103B0000C3710B791B071B0F03720B791B094372DF
:103B10004B791B071B0F83724B791B09C3728B797F
:103B20001B071B0F03738B791B094373CB791B078F
:103B30001B0F8373CB791B09C373704770B50400E7
:103B4000144D154A2900FFF727FF2B68134A116807
:103B5000526819605A60032C12D0042C15D0022C24
:103B600009D00D4B1B6800221A800A4B19680C48BB
:103B7000FFF7ABFF70BD084B1B680A4A1A80F4E7D9
:103B8000054B1B68084A1A80EFE7034B1B68074A7E
:103B90001A80EAE7441F002034210020001501109C
:103BA000341F002000E1FFFF00C0FFFF00CAFFFF3D
:103BB00010B50E4B19600E4B1A600E4B18700E4C60
:103BC0000E4A2100FFF7E8FE21680D4C2000FFF7A8
:103BD0007CFFE37A0B3B5A1E93410A4A1370637AC7
:103BE000093B5A1E9341084A137010BD84180020E7
:103BF00088180020222F0020441F0020342100209C
:103C0000341F0020212F00201D2F0020024A942362
:103C10005B00D0547047C0466016002010B5044BBE
:103C200000221A70034B19680348FFF74EFF10BDBE
:103C30000E2F0020441F0020341F002070B590B0CC
:103C40000500384C384E22003100FFF7A5FE3168E0
:103C50003648FFF73AFFFFF7E1FF002300933C22CD
:103C6000002101A809F06EF9A6236A461370557069
:103C700033681A781207120F69468A701A78120987
:103C8000CA705A781207120F0A715A7812094A71CB
:103C90009A781207120F8A719A781209CA71DA7823
:103CA0001207120F0A72DA7812094A721A79120789
:103CB000120F8A721A791209CA725A791207120FF0
:103CC0000A735A7912094A739A791207120F8A7382
:103CD0009A791209CA73DA791207120F0A74DB791A
:103CE0001B094B74226813881B0A8B741388CB74CE
:103CF0000F4B942252009A5C0A75952252009B5CED
:103D00004B75FA20000103F0F5F8002801D110B03E
:103D100070BD00200CF084F84022694600200CF0B1
:103D200061F8F4E72821002024210020142100203C
:103D30006016002070B50A0000210F2937D8030053
:103D40000B41DB0714D40131C9B2F6E70133DBB212
:103D50000F2B0FD82A4AD05C2A4A12789042F5D10C
:103D6000294A146801209840228802432280EDE706
:103D70000023EDE7224C234803786354224B1D684F
:103D800001228A402B8893432B8002781F4809F038
:103D900045FA1F4B00221A701E4B18682100FFF7CE
:103DA00027FE1D4B00201856FFF748FF70BD002A64
:103DB000FCD0002401E00134E4B20F2C14D8104BE5
:103DC0001A5D104B1B789A42F5D12100134809F077
:103DD00025FA0D4B19680122A2400B8813430B8072
:103DE0000B4B00221A70E6E70A4B18680449FFF7EC
:103DF000FFFD094B00201856FFF720FFD6E7C0460D
:103E0000142100200D2F002028210020BC140110B7
:103E10000E2F002024210020372F0020D81401105D
:103E200070B504000D00084E084A3100FFF7B4FDDC
:103E300031680748FFF749FE064B1C70064B1D70A2
:103E4000064B01221A7070BD242100202821002079
:103E500014210020372F00200D2F00200E2F0020CE
:103E600070B5104B1A680021117051701B68002248
:103E70009A700D4B1B78002B1AD00C4B1A68937854
:103E80009B07D90F002B03DA9378022083439370AA
:103E9000064B1B681A78587800021043FFF74AFF58
:103EA00070BDC046881800200E2F00208418002006
:103EB00001F098FB002826D0F54B19688A78012478
:103EC000A2438A7019688A78022082438A7019682E
:103ED0004A781025AA434A7019684A781035AA43CF
:103EE0004A7019680A78A2430A7019680A788243EE
:103EF0000A7019680A78023082430A701A681378C7
:103F000008218B431370E34B196808784B781B0228
:103F100003431BB2E04A12685278D20600D533E25E
:103F2000DB4A12685278D206D20FDC48007B82400E
:103F300012B213439AB2FF2003400B70120A4A7068
:103F4000D44B196808784B781B0203431BB2D24A42
:103F500012685278920600D518E2CD4A126852785B
:103F60009206D20FCD48407B824012B213439AB2E0
:103F7000FF2003400B70120A4A70C6490868C44CFF
:103F800023689B789B07DB0F5B0082780225AA439E
:103F900013438370086823689B78DB07DA0F837804
:103FA0000124A34313438370096808784B781B02EC
:103FB00003431BB2B84A12681278D20700D5E7E172
:103FC000B34A12681278D207D20FB4480078824000
:103FD00012B213439AB2FF2003400B70120A4A70C8
:103FE000AC4B196808784B781B0203431BB2AA4AF2
:103FF00012681278920700D5CCE1A54A12681278AF
:104000009207D20FA5484078824012B213439AB269
:10401000FF2003400B70120A4A709E4B1968087803
:104020004B781B0203431BB29B4A1268127852075B
:1040300000D5B1E1964A126812785207D20F97481C
:104040008078824012B213439AB2FF2003400B7073
:10405000120A4A708F4B196808784B781B02034389
:104060001BB28D4A12681278120700D596E1884A71
:10407000126812781207D20F8848C078824012B2B4
:1040800013439AB2FF2003400B70120A4A70814B0F
:10409000196808784B781B0203431BB27E4A1268EA
:1040A0001278D20600D57BE1794A12681278D206DE
:1040B000D20F7A480079824012B213439AB2FF209D
:1040C00003400B70120A4A70724B196808784B78DB
:1040D0001B0203431BB2704A12681278920600D585
:1040E00060E16B4A126812789206D20F6B484079F1
:1040F000824012B213439AB2FF2003400B70120A9F
:104100004A70644B196808784B781B0203431BB252
:10411000614A12681278520600D545E15C4A12687D
:1041200012785206D20F5D488079824012B2134352
:104130009AB2FF2003400B70120A4A70554B19685F
:1041400008784B781B0203431BB2534A126812785B
:10415000D20900D02AE14E4A12681278D2094F489B
:10416000C079824012B213439AB2FF2003400B7011
:10417000120A4A70474B196808784B781B020343B0
:104180001BB2454A12685278D20700D510E1404A66
:1041900012685278D207D20F4048007A824012B299
:1041A00013439AB2FF2003400B70120A4A70394B36
:1041B000196808784B781B0203431BB2364A126811
:1041C0005278520700D5F5E0314A1268527852070A
:1041D000D20F3248807A824012B213439AB2FF2043
:1041E00003400B70120A4A702A4B196808784B7802
:1041F0001B0203431BB2284A12685278920700D56B
:10420000DAE0234A126852789207D20F2348407AA4
:10421000824012B213439AB2FF2003400B70120A7D
:104220004A701C4B19684B789B0700D4C6E01C4BA6
:10423000CA1CCB70190A5170002191701B0ED370EB
:10424000144B196808784B781B0203431BB2124ABF
:1042500012685278920700D5B2E00D4A126852787F
:104260009207D20F0D48407A824012B213439AB29D
:10427000FF2003400B70120A4A70064B1968087839
:104280004B781B0203431BB2034A1268527809E0C1
:10429000841800208818002034210020341F0020BA
:1042A000FF0F0000120700D58CE04B4A12685278CD
:1042B0001207D20F4948C07A824012B213439AB211
:1042C000FF2003400B70120A4A70454B19684B7867
:1042D0001B0779D5434ACA71100A08720020487238
:1042E000120E8A7208784B781B0203431BB23E4AB7
:1042F00012685278120769D4374A12685278120746
:10430000D20F3648C07A824012B213439AB2FF20CD
:1043100003400B70120A4A70314B196808784B78C9
:104320001B0203431BB2304A1268527852064FD424
:10433000294A126852785206D20F2848807B824060
:1043400012B213439AB2FF2003400B70120A4A7054
:10435000234B196808784B781B0203431BB2224A8F
:1043600012685278D20935D11B4A12685278D209A4
:104370001A48C07B824012B213439AB2FF20034016
:104380000B70120A4A708BE50022D2E50022EDE59F
:1043900000221EE6002239E6002254E600226FE6E3
:1043A00000228AE60022A5E60022C0E60022DAE624
:1043B0000022F5E6002210E700222BE7002337E772
:1043C000002253E7002279E7002284E700229CE7DD
:1043D0000022B6E70022CFE784180020341F002017
:1043E00088180020FF0F00003421002080231B01CB
:1043F000136053609360D3607047000010B50011E4
:10440000084A1378991C084C60540133DBB21370CE
:104410003D2B01D8002010BD130000221A7001208E
:10442000F9E7C046192F00202C20002010B50C0001
:10443000FA213B4A8900FDF73AFD00281CD0394B90
:104440001B78002B11D1384B1B78002B5CD12368D3
:10445000C93B364A93422BD9354B1C60324B012263
:104460001A70344B00221A7006E0314B1B68186832
:10447000FFF7C4FF002800D110BD2F4BA5221A70F2
:104480002C4A12785A70FA20000102F033FD0028FD
:1044900005D10023234A1370234A1370ECE740220E
:1044A000254900200BF09EFC00200BF0B9FCF0E742
:1044B0006368C93B1D4A934208D904341C4B1C60F5
:1044C0000123194A13701B4A1370D5E7A368C93B2F
:1044D000164A934209D90834154B1C60124B01222D
:1044E0001A70144B01321A70C6E7E368C93B0F4AD1
:1044F0009342C1D90C340E4B1C600B4B01221A7035
:104500000C4B02321A70B7E7094B1B681B68C93B9A
:10451000064A9342B0D8034B01221A70ACE7C0465A
:10452000302C0020102F0020172F00206D0E0000CF
:10453000CC2D0020322F00202C20002070B5041C30
:104540000D000B78002B0AD0CE68011C301C08F03F
:1045500083F9002804D06868211C08F036F970BD82
:10456000311C201C08F011F9A96808F02EF9024945
:1045700008F010F9F3E7C0460000B44170B508F048
:1045800004F94000400808F0D5F904000D000200CD
:104590000B000020054906F000FF02000B00200080
:1045A00029000CF025FA06F0EDFF70BD0080764082
:1045B00070B5061C0C1C151C111C201C08F044F9BD
:1045C00000280FD0311C201C08F03EF9002807D02D
:1045D000311C281C08F040F9002802D0012000E01E
:1045E000002070BD311C201C08F02EF9002807D1D6
:1045F000311C281C08F030F9002803D00120F0E716
:104600000120EEE70020ECE7F8B5071C0E000024BF
:10461000002503E0002206E00134E4B2072C0DD8A7
:10462000062CF7D8621CA3009200B258F158381C2F
:10463000FFF7BEFF0028EFD02500EDE72800F8BD0A
:1046400010B508F077F90022104B07F0F1F806F0EA
:1046500099FF041C002108F0F1F800280FD1201C5C
:1046600008F068F900220A4B06F0A9FE06F04EFF9A
:10467000C217520F801807231840801A10BD054931
:10468000201C08F087F8041CE9E7C046008076404B
:10469000008046400000B44310B508F07BF8041CCD
:1046A0000B4908F0E1F8002806D00949201C08F061
:1046B0006CF8041C201C10BD0021201C08F0BEF862
:1046C0000028F7D00249201C08F064F8041CF1E728
:1046D0000000B44370B5CD1A801A08F0CFF8041C5E
:1046E000280008F0CBF8211C08F040F9114908F027
:1046F0006CF808F01FF9104A104B06F060FE06F047
:1047000041FF041C002108F099F800280BD10C4946
:10471000201C08F0A1F800280AD00949201C08F044
:1047200034F8041C04E00649201C08F033F8041C8B
:10473000201C70BD00003443182D4454FB21094057
:104740000000B443F8B50C0017001E0008F096F8FE
:10475000051C380008F092F8011C281C08F015F818
:10476000051C200008F08AF8041C300008F086F8C8
:10477000011C201C08F009F8041C291C281C08F046
:1047800024F8051C211C201C08F01FF8011C281C03
:1047900008F000F808F0D8F8F8BD0000F8B50F00F0
:1047A000160008F0C7F80B4A0B4B06F026FE06F081
:1047B000E9FE08F0BFF804000D0006F0F9FE06F06F
:1047C000E1FE38602000290006F008FF06F0DAFE5E
:1047D0003060F8BD399D52A246DF913FF0B5DE460C
:1047E00057464E464546E0B583B080468B46150099
:1047F0001F001100FFF708FF0400062800DD86E017
:10480000461CA3009946EB589A46B600A959181CB5
:10481000FFF7B4FE051C51464046FFF7AFFE804649
:10482000291C07F0BCFF051C4B46FB589A46011C8F
:10483000FE20800507F0A9FF011C504607F0C5FFC8
:104840008246B859291C07F0C0FF011C504607F0EA
:10485000A1FF051C0C9B4A469858414607F0B5FF3E
:10486000031C22010D9989180D98825C002A03D03F
:10487000181CFFF763FE031CA400284AA058191C4B
:10488000FFF70AFF0023019300936A4601A9FFF78F
:1048900085FF5946281C07F098FF051C019907F071
:1048A00094FF041C0190291C009807F08EFF0090D3
:1048B0008A21C905201C07F06DFF08F093F907F065
:1048C000FFFF002825DB80235B01984200DB1448B2
:1048D00007F0D4FF0E9B18608A21C905009807F0E5
:1048E00059FF08F07FF907F0EBFF002813DB802366
:1048F0005B01984200DB0A4807F0C0FF0F9B18607D
:1049000003B0F0BCBB46B246A946A046F0BD0026A7
:1049100077E70020DEE70020F0E7C0460815011029
:10492000FF0F0000F8B507000E00002409E0A50005
:10493000795975198A20C00507F031FF28600134C4
:10494000E4B2072CF3D9F8BDF8B505000E00002439
:104950000DE00023A7009B00E958E859FFF70EFE81
:10496000011C064807F01BFFF0510134E4B2072C8C
:1049700003D8062CEDD8631CECE7F8BD00003442E8
:10498000F0B5C64600B580460F00002419E02601A8
:10499000BE19012333702868164907F0FBFE051C79
:1049A000F060011C134807F0FAFE7060291C1248E1
:1049B00007F0EBFE011C0F4807F0F1FEB060013478
:1049C000E4B2072C12D8A50045440021286807F05E
:1049D0002DFF0028DBD02301FB1800221A70054AA6
:1049E000DA60FE2292055A609A60E8E780BCB84619
:1049F000F0BDC0460000B441000034420A4AD3680A
:104A00005B005B1009490B6053695B005B10084950
:104A10000B6013695B005B1006490B6093695B00D8
:104A20005B10054A13607047601600206C20002060
:104A300074200020702000207820002010B5054B45
:104A40001B68054A12680549096805480068FCF7B3
:104A500077FA10BD782000207420002070200020FC
:104A60006C20002010B5104C10492000FFF76CFF9F
:104A7000200020300E49FFF767FF200040300D492D
:104A8000FFF750FF200060300B49FFF74BFF20007D
:104A90001930FF300949FFF773FF20003930FF302C
:104AA0000749FFF76DFF10BD7C1600207C12002027
:104AB000BC1200209C120020DC120020E41D00200B
:104AC000A41E002010B50E4B00221A800D4C20327F
:104AD0000021200008F036FA20002030202200219A
:104AE00008F030FA200040382022002108F02AFA8D
:104AF000200020382022002108F024FA10BDC046F2
:104B0000042F0020BC160020F0B5DE4657464E4666
:104B10004546E0B583B004005F4B9B465F4B9A4629
:104B20005B461B685246126841680068FFF7D2FD79
:104B3000071C5B4B99465B4D1B682A68E168A068BF
:104B4000FFF7C8FD80460190574E311C0097381C76
:104B5000FFF7A2FD071C311C4046FFF79DFD061C18
:104B6000381CFFF76DFD0700301CFFF769FD0600DC
:104B70005B461B685246126861682068FFF7E2FDD9
:104B800082464B461B682A68E168A068FFF7DAFD99
:104B90008046009807F0CEFE0022444B06F048FE07
:104BA00006F0F0FC041CFE21890507F047FE0028F2
:104BB00005D13F49201C07F057FE002822D03A00BB
:104BC000163292003B4B9B185868514607F036FE50
:104BD000002817D03849504607F046FE002811D06B
:104BE000344A3B0016339B00D31851465960BB1D15
:104BF0009B00D218009B53600122BA402F490B88BA
:104C000013430B80019807F095FE0022274B06F016
:104C10000FFE06F0B7FC041CFE21890507F00EFE0E
:104C2000002805D12249201C07F01EFE002824D0B0
:104C300032001E3292001F4B9B185868414607F005
:104C4000FDFD002819D01C49404607F00DFE002844
:104C500013D0184A33001E339B00D31841465960C5
:104C600033000E339B00D218019B5360083601229B
:104C7000B24012490B8813430B80104B1888104B1D
:104C80009C46604443425841C0B203B0F0BCBB46AE
:104C9000B246A946A046F0BD702000206C2000203E
:104CA00078200020742000200000B441008046409D
:104CB00000003042601600200000FA42042F00205D
:104CC0000100FFFF064B02681A60064B42681A603B
:104CD000054B82681A60C268044B1A607047C04670
:104CE0006C200020702000207420002078200020FC
:104CF000F0B5DE4600B584B0040000910192224B6D
:104D00009B46224F1B683A6841680068FFF7E2FC47
:104D100002901F4E1F4D33682A68E168A068FFF7B4
:104D2000D9FC03905B461B683A6861682068FFF70E
:104D300009FD071C33682A68E168A068FFF702FDD7
:104D4000041C1549381C07F08FFD002809D11249B1
:104D5000201C07F089FD00280CD104B080BCBB46A4
:104D6000F0BD0298FFF76CFC0023009A1370019BC2
:104D70001870F2E70398FFF763FC0123009A1370A1
:104D8000019B1870E9E7C046702000206C200020CD
:104D900078200020742000200000FA42F0B5DE46A2
:104DA00057464E464546E0B585B004000091019255
:104DB000294B9A46294D1B682A6841680068FFF70D
:104DC00089FC8146264E274F33683A68E168A0681F
:104DD000FFF780FC8046244B9B46191C4846FFF792
:104DE0005BFC029059464046FFF756FC0390534641
:104DF0001B682A6861682068FFF7A4FC051C3368FB
:104E00003A68E168A068FFF79DFC041C1749281C5C
:104E100007F02AFD00280CD11449201C07F024FDBE
:104E200000280FD105B0F0BCBB46B246A946A0464B
:104E3000F0BD0298FFF704FC0023009A1370019B59
:104E40001870EFE70398FFF7FBFB0123009A13703C
:104E5000019B1870E6E7C046702000206C200020FF
:104E600078200020742000200000B4410000FA42A5
:104E7000F0B5DE4657464E464546E0B585B00400DF
:104E8000334B9A46334D1B682A6841680068FFF728
:104E900021FC81460190304E304F33683A68E1681A
:104EA000A068FFF717FC80462D4B9B46191C48460F
:104EB000FFF7F2FB029059464046FFF7EDFB0390E7
:104EC00053461B682A6861682068FFF73BFC8146EF
:104ED00033683A68E168A068FFF734FC041C214994
:104EE000484607F0C1FC00280DD11E49201C07F0E0
:104EF000BBFC002819D1002005B0F0BCBB46B2466F
:104F0000A946A046F0BD0298FFF79AFB164A831DFA
:104F10009B00D318019959601630800010184B4639
:104F20004360FFF79FFD0120E6E70398FFF788FB4A
:104F30000D4A03000E339B00D318414659601E30C2
:104F4000800010184460FFF78DFD0120D4E7C046B3
:104F5000702000206C200020782000207420002089
:104F60000000B4410000FA4260160020F0B5DE46B1
:104F700057464E464546E0B589B004000D00484B03
:104F80009B46484B99465B461B684A4612684168F7
:104F90000068FFF79FFB8046434E444F33683A68F2
:104FA000E168A068FFF796FB82465B461B684A46AD
:104FB000126861682068FFF7C5FB814633683A686C
:104FC000E168A068FFF7BEFB071C00230793069368
:104FD00005930493364C06AB039307AB0293354B12
:104FE0000193354B0093354B220049464046FFF76D
:104FF000F5FB2200203204AB039305AB0293304B48
:105000000193304B0093304B391C5046FFF7E6FBC1
:105010001C3C0F23E356002B25DB079807F050FCC0
:1050200028602A4BDB7C5BB2002B23DB069807F061
:1050300047FC6860254BDB7D5BB2002B21DB0598CC
:1050400007F03EFCA860214BDB7E5BB2002B1FDB30
:10505000049807F035FCE86009B0F0BCBB46B246E6
:10506000A946A046F0BD0799194807F08EFB07F046
:1050700027FCD5E70699164807F087FB07F020FCC8
:10508000D7E70599124807F080FB07F019FCD9E72C
:1050900004990F4807F079FB07F012FCDBE7C046E4
:1050A000702000206C200020782000207420002038
:1050B0007C160020E41D00207C1200209C120020A1
:1050C000A41E0020BC120020DC120020601600206C
:1050D00000F07F450023044A1370044A1370044A09
:1050E0001370044A13707047641E00206C1E002069
:1050F0001C2000202420002010B5E1200004FCF733
:105100004BFEFFF7DFFC0A4C20220021200007F0B5
:1051100019FF200020302022002107F013FF002378
:10512000044A1370044A1370044B01221A7010BD14
:1051300094170020082F00200A2F0020092F00209C
:1051400010B50B4C20600B4801600B490A600B4CFA
:105150002360FFF753FCFFF785FC23685A78302360
:105160001340302B00D010BDFFF7C6FFFBE7C04651
:10517000401B0020441B00206018002080180020E5
:1051800010B50F4B00221A700E4CFE218905201C11
:10519000FBF70AFAFA20400003F014FE0021201C5D
:1051A000FBF702FAFFF74AFCFFF75CFC064ABA235A
:1051B0005B00D05C01214942FCF77AFD10BDC0467E
:1051C000092F0020000020426016002010B5114B6E
:1051D00000221A70104CFE218905201CFBF7E4F90F
:1051E000FA20400003F0EEFD0021201CFBF7DCF963
:1051F000FFF724FCFBF746FEC82003F0E3FDFFF7B2
:1052000031FC064ABA235B00D05C01214942FCF71D
:105210004FFD10BD092F0020000020426016002025
:1052200010B5024B1868FFF723FE10BD401B00208D
:1052300010B5124B1B78002B0CD1114B1868FFF7DF
:1052400041FD0E4B01221A700E4B1B689B789B0789
:1052500011D410BD0A4B1868FFF756FC0028F3D094
:10526000094B1B78002BEFD1074B01221A7007481E
:10527000FCF792FDE8E7FFF7A9FFEAE70A2F002015
:10528000401B002080180020082F00200080008094
:1052900030B55368C51A80242401A04209D00024E7
:1052A0001457002C0BD1002D06DD0123137008606C
:1052B00000E00C60506030BD01235B42F6E7002C3B
:1052C00004DD8342F6DA08605060F3E7002C01DB6E
:1052D0000860EFE78342EDDD08605060EAE7000018
:1052E00010B503000A00034908681900FFF756FDCE
:1052F00010BDC046401B002010B503000A00034942
:1053000008681900FFF7F4FC10BDC046401B0020E0
:10531000F0B5C64600B582B004000D008026360107
:105320003300320041680068FFF70CFA071C3300B5
:105330003200E168A068FFF705FA061C5549381CE1
:1053400007F082FA002811D080231B012B606B60CC
:105350005049301C07F078FA002850D080231B01F8
:10536000AB60EB6002B080BCB846F0BD4949381C68
:1053700007F00BFA071C80221201130061682068F5
:10538000FFF7A8F900230093019301AA6946FFF7EC
:1053900005FA4149381C07F018FA8046009907F0D1
:1053A00014FA071C00904146019807F00EFA01908C
:1053B0008A21C905381C07F0EDF907F013FC07F046
:1053C0007FFA002805DB80235B01984202DB33482B
:1053D00000E0002028608A21C905019807F0DAF969
:1053E00007F000FC07F06CFA002805DB80235B0166
:1053F000984202DB294800E000206860A8E72549C0
:10540000301C07F0C2F9061C80221201E168A06876
:105410001300FFF75FF900230093019301AA694687
:10542000FFF7BCF91C49301C07F0CFF9041C0099A8
:1054300007F0CBF9061C00900199201C07F0C5F974
:10544000041C01908A21C905301C07F0A3F907F05C
:10545000C9FB07F035FA031E05DB8022520190429A
:1054600002DB0E4B00E00023AB608A21C905201C43
:1054700007F090F907F0B6FB07F022FA002805DBE9
:1054800080235B01984202DB044800E00020E860D2
:1054900068E7C046000048420534833FFF0F000024
:1054A00070B504001D4AC821FCF701FD002800D199
:1054B00070BD1B4B1868FAF7F3FF1A4B1B78002BD3
:1054C00002D0FFF7B5FEF3E7174E154B1868310011
:1054D000FFF74CFD154D2A6831002000FEF786FFCE
:1054E000134C28682100FFF713FF124D124A296858
:1054F0002068FFF7CDFE29680831104AA068FFF741
:10550000C7FE2B68191D0E4A6068FFF7C1FE2968A7
:105510000C31E0680B4AFFF7BBFEC9E7082C0020FE
:10552000401B0020092F0020BC2C00206018002008
:10553000F4250020441B0020641E00201C200020B5
:105540006C1E00202420002070B504000D00FA21FC
:105550001F4A8901FCF7ABFC00280CD0AB78042271
:10556000110019401A4214D01A4B1B78002B10D18D
:10557000184B033A1A70AA78D20801235A40012323
:105580001A40154B15492000FCF7A4FC00281CD13B
:1055900070BD0029EFD10F4B1B78012BEBD1104AC6
:1055A000137801214B40DBB213700A4A00211170BD
:1055B000002B04D0FF200006FCF758FBDBE7FF20A0
:1055C00000210004FCF752FBD5E7FBF78BF9DFE77E
:1055D000202C00202F2F0020382C0020C0C62D00AA
:1055E000302F0020014B18787047C046302F002024
:1055F000F8B5DE4657464E464546E0B504000D0078
:10560000CE4B21221A70086807F038F9CC4907F010
:10561000DCF8CC4907F0BEF88146686807F02EF93F
:10562000C74907F0D2F8C74907F0B4F88046A86820
:1056300007F024F9C24907F0C8F8C24907F0AAF8F0
:10564000071CE86807F01AF9BD4907F0BEF8BD4924
:1056500007F0A0F8061C2278D206D20FBA4B01211F
:105660008C461978604681430A431A702278920664
:10567000D20F520018780221884302431A70227810
:105680005206D20F92001D78042085432A431A70D7
:105690002278D209D20092461A7806318B468A4384
:1056A00055462A431A706278D206D50F29005D78D4
:1056B000624695432A000D0015435D70627892079B
:1056C000D20FD2005D7859468D432A435A706278D2
:1056D0001207D20F92005D7885432A435A7065788D
:1056E0006D07ED0F6800D2B206398A4302435A7043
:1056F0000021484607F0A2F800280AD193494846FD
:1057000007F0B2F8002818D1484607F00BF9C0B2EC
:1057100000E000208C4B98700021404607F08EF886
:1057200000280CD18949404607F09EF800281AD17C
:10573000404607F0F7F8C0B202E0FF20EAE7002099
:10574000814BD8700021381C07F078F800280CD164
:105750007E49381C07F088F800281AD1381C07F059
:10576000E1F8C0B202E0FF20EAE70020764B1871B2
:105770000021301C07F062F800280CD17349301C5E
:1057800007F072F8002842D1301C07F0CBF8C0B205
:1057900002E0FF20EAE700206B4B58712278920765
:1057A000D20F92011978402081430A431A7022785F
:1057B000D207110E18787F2202400A431A7022780D
:1057C0005207D20F12011978102081430A431A7030
:1057D00022781207D20F52011978103081430A4300
:1057E0001A705B4A94235B00D35C032B00D1E6E084
:1057F0000FD8012B00D194E0022B50D16278D3074F
:1058000000D4C0E0524995235B00CB5CBCE0FF2094
:10581000C2E7042B43D16378DB07DB0F4A491D4302
:105820006D004B78022293431D434D7063789B07B4
:10583000DB0FDB00EAB20820824313434B7063782E
:105840001B07DB0F9B004A780438824313434B70DD
:10585000E378207900021843627912041043A37997
:105860001B0603431B11DBB28B716278920700D5D4
:10587000FF2335488371E379217A09021943627A5B
:1058800012041143A37A1B060B431B11DBB2C37135
:105890006278120700D5FF232B4AD37125E0637885
:1058A0009B070CD4E3782179090219436279120429
:1058B0001143A3791B060B431B11DBB200E0FF234E
:1058C000214A937163781B070CD4E379217A09028A
:1058D0001943627A12041143A37A1B060B431B116E
:1058E000DBB200E0FF23184AD3711A4B1B78002B60
:1058F00000D0A0E0114B14225A70103A9A72DA7458
:105900001A77144B033A1A7025220C490020FDF730
:105910007BF9FFF7DFFBF0BCBB46B246A946A046C9
:10592000F8BD6278D30704D5094995235B00CB5CA9
:1059300000E0002392070FD4DBB20EE0082700201E
:1059400082E2473D0000E0417427002000007F43D1
:1059500060160020132F0020FF233A488371E3795B
:10596000217A09021943627A12041143A37A1B06B1
:105970000B431B11DBB2C3716278120700D5FF2302
:10598000304AD371B1E70023120701D4DBB200E043
:10599000FF232C48C371E378217909021943627906
:1059A00012041143A3791B060B431B11DBB2837155
:1059B0006278920700D5FF23224A937195E7E37836
:1059C000217909021943627912041143A3791B0654
:1059D0000B431B11DBB21B4A93716278920700D50F
:1059E000FF2318488371E379217A09021943627A07
:1059F00012041143A37A1B060B431B11DBB2C371C4
:105A00006278120700D5FF230E4AD3716378DB0753
:105A100000D46AE71300127801210A431A70FF22AA
:105A20009A71DA715A7808210A435A70D2B2042165
:105A30000A435A7059E7044808220249023007F025
:105A400087FA61E77427002008270020F0B5DE46BA
:105A500057464E464546E0B591B006008B46904607
:105A60001D001A9C1022002108A807F06BFA802361
:105A70005B020893F8235B0209938023DB020A93FD
:105A8000C0231B030A93102208A904A807F060FA98
:105A900042461432059B0393494B03990B40414600
:105AA000C9010B43120313430593079A0392D200D3
:105AB000D2088021C9050A430792424A13400B438A
:105AC00005930CAB9946102204A9180007F040FA80
:105AD00022004B4683CB83C21B681360280002F070
